S011000074696D65725F70776D2E737265633F
S1130000E8050020E5180000E3180000E3180000EC
S113001000000000000000000000000000000000DC
S1130020000000000000000000000000E3180000D1
S11300300000000000000000E3180000E3180000C6
S1130040E3180000E3180000E3180000E3180000C0
S1130050E3180000E3180000E3180000E3180000B0
S1130060E31800004D0A00005D0A00006D0A00005C
S1130070891500001D1600002D160000E31800006D
S1130080E3180000E3180000E318000010B5064C64
S11300902378002B07D1054B002B02D0044800E045
S11300A000BF0123237010BD1C00002000000000CD
S11300B0AC3C0000084B10B5002B03D0074908489E
S11300C000E000BF07480368002B00D110BD064BB9
S11300D0002BFBD09847F9E7000000002000002027
S11300E0AC3C0000AC3C00000000000070B51F4CAC
S11300F01F4920001F4B984705220023A267A362D3
S1130100E2650433E26703322266E218D367092208
S113011062662200022518481849194E0832D3672E
S11301206060A365E16120626162164B22001049A0
S113013030002576984733689A682A42FCD1042017
S11301401F24E0211A6815431D6032689368034236
S1130150FCD15379A34305D0202B05D0402BF5D1F6
S11301601171F3E72023537170BDC046C80000200D
S113017000140042A1110000FF0F0000FF02000064
S11301808800002085120000094B196800290BD152
S1130190EFF31080074A002805D172B6BFF35F8FD2
S11301A005490870012111701A6801321A607047FC
S11301B0380000203C00002000000020084B1A6892
S11301C0013A1A601B68002B09D1064B1B78002BDF
S11301D005D00122044B1A70BFF35F8F62B67047DB
S11301E0380000203C00002000000020F7B5012565
S11301F0002701AC084E210010206570A7702570FF
S1130200B0478022054B52029A6121000E202770CC
S11302106570B047F7BDC0462102000000440041AC
S113022007B5802201AB1A700A785A704A789A701E
S11302308A781900DA70014B984707BD4111000014
S113024007230168CA691A42FCD17047F0B5070058
S11302508BB0396008009B4B14000E0098470125B1
S1130260831C9D402B00984A0E30116AC5B20B4383
S11302701362237B08AA137011002800934B98473C
S11302802800934B9847934B207B00219847336871
S11302901C209B0700D509E10123356817381D4050
S11302A000D003E1874B386898478B498B4B049007
S11302B09847049B3D769A00894B7D76D750BB1DA9
S11302C07D83BD83DD7714233D6233603B6809AED3
S11302D0049318007B4B984780230090E0693370A7
S11302E07F3B7570F570B370256A002803D1010057
S11302F07C4B0498984702233070000C7370C0B292
S11303003100794B9847002D04D101210498754B95
S113031098470500022335702D0C7370E8B2724BB8
S113032031009847A38AFB80E38A3B81227E8023A5
S1130330002A06D16D4B02329B7813405F1EBB41ED
S1130340DB01A268276917431F43631DDB7F002B72
S113035002D08023DB051F43A36A1F4323002C33F1
S11303601B78002B03D180239B049A4202D1802363
S11303701B051F4323002D331B78002B02D0802341
S11303801B041F4323002E331B78002B02D0802331
S1130390DB031F43049B00981B68FA251F43049B3F
S11303A0049A1F6080230E305B005360C0B2504B30
S11303B098472368AD005D436368070005934D4B80
S11303C098474C4B00900191680098470290039124
S11303D0484B208E9847484E069007910098019903
S11303E0464A474BB04702000B0006980799B047AE
S11303F0444E0022444BB0473E4B069007912800E0
S113040098473D4D02000B0006980799A8473F4DB9
S113041002000B0000980199A847029A039BB04779
S113042000223B4BA847029A039B3A4EB0473A4BF3
S1130430984780230290A2689B049A423ED1FA23F3
S1130440059C9B005C43009A019B2E4E10001900F2
S1130450B047284B009001912000984700222F4B71
S1130460254EB0472B4E02000B0000980199B0476F
S11304700022274BA847284B9847294B061E17D024
S11304802100380098470238831B029A4020FF2A33
S11304900CD8FF2B0AD8FF20150000041B040340CE
S11304A0002036063543049A2B43D3600BB0F0BDCD
S11304B06100481EC0199847431EE6E70026330032
S11304C0E3E7C046BD090000000400406D100000D1
S11304D0E50F0000C508000039070000F909000015
S11304E06C010020090900004111000000200041B6
S11304F089100000C93A0000352F000095D626E87F
S11305000B2E113EAD2200000000244035340000C3
S11305100000F03FCD280000613A000000000840D0
S11305209521000002220368197E114206D01A7632
S11305305B8B412013420AD1002008E05A8B5207FA
S1130540FAD5C0221820596892020A435A607047AB
S113055070B500220126022401680B7E334002D1CB
S11305600D7E254201D0002005E00132038992B2BC
S11305709342F2D8122070BD802310B50468DB02C8
S11305806268134363606162024B984701232376D8
S113059010BDC04651050000F7B50F004B8805009B
S11305A001932A4B046898477B7A002B03D0B97ACD
S11305B02800274B98476368264A134063607A7A79
S11305C03B88397A5B0092031343002902D08022CE
S11305D012021343636228001F4B9847061E15D16D
S11305E028001E4B9847061E10D10090009B019ACC
S11305F093420DD10026AB7A002B07D0134B280071
S11306009847C02362689B02134363603000FEBDB9
S11306102022638B134216D028000C4B98477B682A
S1130620009A28009A5C230028331A700A4B9847D2
S1130630061EE0D1009A638B013200920422134219
S1130640D4D01E26D7E74126E0E7C0464102000089
S113065079050000FFFFFBFF5105000025050000A0
S113066010B5828B03000520002A05D101329A724D
S1130670DA721800014B984710BDC0469905000076
S113068007230168CA691A42FCD17047F8B50568A6
S113069004002A68468B838BF61A838BB6B2013B1F
S11306A09BB28383C37A12010AD5002B0DD0838BAE
S11306B0012B0AD180236A68DB0213436B6004E0D8
S11306C0002B02D0838B002BF4D0A38B0A4F002B7A
S11306D009D1A37A002B06D02000B847C0236A684A
S11306E09B0213436B602000B847236A28359E1988
S11306F02B78DBB23370F8BD8106000070B5066854
S11307000400738B5B0703D51E230634E37770BDA7
S1130710458B838B2836ED1A838BADB2013B9BB29C
S11307208383044B9847236A5D192B78DBB23370BB
S1130730EDE7C04681060000F8B55E4B8000C45862
S11307402568A61D2B68627E277E1B011740628BDD
S1130750DB0F002A2ED1A28B002A2BD001232A7E64
S11307601A4206D002222B766B8B134010D0412301
S1130770F377A38B9BB26383F37F052B3CD1631D7B
S1130780DB7F2000002B00D08AE04B4B984733E0FE
S11307906A8B5207EDD51822F277A383A37A002B34
S11307A0E7D0464B20009847C0236A689B02134356
S11307B06B60DEE7628B002A5FD0A28B002A5CD1DB
S11307C0F27F052A59D1621DD27FD2B2002A54D1B8
S11307D003232B756283F277A37A002B4AD0374B1D
S11307E020009847C0236A689B0213436B60FB0791
S11307F002D5E36820009847638B002B1BD0A38BA2
S1130800002B18D1F37F052B15D1631DDA7F012A44
S113081011D1297E0132114200D02A7603222A7591
S113082000226283F277BA073CD5DA7F012A39D1F4
S1130830236920009847F37F052B1AD0F37F002B00
S113084017D003232B7500236383A383F37F412BEA
S11308500AD0A37A002B07D0184B20009847E02336
S11308606A68DB0213436B607B0702D5636920006F
S11308709847F8BD01232B76B9E7628B002ABBD0D9
S1130880A28B002AB8D06A8B920600D577E7002B9A
S113089003D0A38B012B00D171E74123F377ABE79E
S11308A0074B73E7FA07C6D5DB7F002BC3D1E36898
S11308B0BFE7C0466C010020FD0600008106000071
S11308C08D06000037B50D4C05002378002B01D0B0
S11308D000290CD001A90D20094B0D7098470D205B
S11308E0084B984701230020657023703EBD637850
S11308F00800AB42FAD01D20F8E7C0463D000020B6
S11309006D100000E50F00001D4A030000B508004B
S1130910934213D01B4A93421DD01B4A934227D1C2
S11309200023032904D801F02BFC25020507174BEB
S1130930180000BD164BFBE7164BF9E7002303290B
S1130940F6D801F01DFC19020406134BF0E7134B13
S1130950EEE7134BECE700230329E9D801F010FC80
S11309600E0204060F4BE3E70F4BE1E70F4BDFE703
S11309700023DDE70E4BDBE70E4BD9E70E4BD7E741
S1130980000C004200100042000800420300050071
S113099003000600030007000200170003001E0006
S11309A003001F00030017000300100003001900D8
S11309B00300040002001600030016007FB50C4B70
S11309C00100180001AA70C870C2019A8A420AD0B4
S11309D05A688A4209D09B6800208B4201D10230B8
S11309E0C0B204B070BD0020FAE70120F8E7C046A9
S11309F0CC3B00007047000070B5094E094B3278BB
S1130A00002A09D1084C094D22606260A2600132BB
S1130A101D605D609D6032708000195070BDC046DD
S1130A203F000020400000206C010020F509000078
S1130A30092313B501AC2370013363700133A37030
S1130A40014B9847205616BDBD09000010B5024B56
S1130A5000201B68984710BD4000002010B5024BD1
S1130A6001205B68984710BD4000002010B5024B80
S1130A7002209B68984710BD4000002010230249C3
S1130A80CA681A42FCD07047000800400222F8B538
S1130A900026094D094C2B68094F13432B60A2848F
S1130AA0B847AB68E3626B68A362A684B8472B6857
S1130AB030009BB2A384F8BD4C0000200008004025
S1130AC07D0A000070B5082806D801F059FB080516
S1130AD0053030120B1528000024200070BD164B81
S1130AE01C69FAE7154B164C1B6A9B059B0FDC40EF
S1130AF0F3E7114B5C69F0E70F4D00242B689B076B
S1130B00EBD5104B984724222B681340042B11D1AA
S1130B1020000D4B9847AC68A4B24443DDE70B4B6F
S1130B2000241B785B07D8D5034BDC68D5E7802409
S1130B302402D2E7064CD0E74C0000200008004015
S1130B4000127A007D0A000089100000500800405D
S1130B50006CDC0270B58478027845780120402668
S1130B600540204080240849AD010B6AC001B3430D
S1130B702B43A343034303200240044812020340CF
S1130B8013430B6270BDC04600080040FFFCFFFF2A
S1130B90F7B5184F4678BB6919000378019304230D
S1130BA042790479C5780092012299430823807818
S1130BB016401040800008439843F6000643154051
S1130BC0A801350038339D4305431440E3018020D8
S1130BD02C0084431C43072301990B4006491B0244
S1130BE021401943009B1A401303044A0A401A4344
S1130BF0BA61F7BD00080040FFF8FFFFFFEFFFFFF9
S1130C0010B5027A438992069B059B0D120C1A4378
S1130C10174B5A60C179827984880A4341882143F9
S1130C200A4341780478C9010A431A60042C0DD19F
S1130C30027B018A92060A43C1890E4809040140D5
S1130C400A439A601A6814431C6010BD202CFCD11E
S1130C50027B018A92060A43C189064809040140BD
S1130C600A439A601968044A0A431A60EDE7C046C9
S1130C704C0000200000FF032404000010B50828E5
S1130C8006D801F07DFA1405050C0E1A072023007E
S1130C90172010BD0223104A116A0B43136200206F
S1130CA0F7E702230C4A91690B439361F7E70223A8
S1130CB0094A118A0B431382F1E70223064A918AF7
S1130CC00B439382EBE7054B9847E2E70223044A80
S1130CD011780B431370E2E7000800408D0A00000E
S1130CE044080040C2231E22F0B50025484EDB0014
S1130CF04849B3604B688DB093431C3A134307AC27
S1130D004B602270E8B22100434B01359847182DFF
S1130D10F8D1424FB2693B684149DB045B0E0A409B
S1130D201B041343B3610123002502A8437083709D
S1130D300371063303703B4BC570457198473A4BBA
S1130D40042098473F2363813B3B6580A580A571C0
S1130D50E571237065703B689B0E3F2B00D1203BEF
S1130D602372B723DB002382072323733F23002549
S1130D700127E38120002D4B984701A82C4B457097
S1130D80877005709847284B06209847294B984749
S1130D90042304AC210023703800274B676065707E
S1130DA02572657298473800244B98470723210021
S1130DB023700320204B6760657025726572984725
S1130DC003201E4B984721002800134B2770984797
S1130DD028001B4B98471B4B9847D022F3681340BD
S1130DE0D02BFBD10025184B21001D725D729D7222
S1130DF0DD72012363600533237028000E4B657098
S1130E0025726572984728000C4B98470DB0F0BDC9
S1130E1000080040004000416D1000002460800084
S1130E20FFFF80FF910B00007D0C0000010C00000F
S1130E30550B0000590E0000790E00001D0F000034
S1130E40E50F00008D0A000000040040014B5878B3
S1130E50C0097047000C00400823054A91690B4300
S1130E6093610123034A137011781942FCD170472E
S1130E7000040040000C0040F8B50C784B782402C4
S1130E80060005000443002B02D08023DB021C4330
S1130E904B7A002B02D080231B031C434B68012B8D
S1130EA012D95D1E1D400222002D06D01D02802392
S1130EB035439B0207E0013552009A42FBD380235D
S1130EC02D0235435B031C430B7A002B02D0802395
S1130ED09B031C430C4FB8470028FBD10B4B98478E
S1130EE00B4B1E70B8470028FCD10A4B9D601D00B7
S1130EF0B8470028FCD180226B68520213401C437F
S1130F006C60054B9847F8BD4D0E00008901000048
S1130F10080C0040000C0040BD01000070B5050045
S1130F20094CA0470028FBD1084B9847084B1D707B
S1130F30A0470028FCD18023064A5B0251680B437A
S1130F405360054B984770BD4D0E000089010000A9
S1130F50040C0040000C0040BD010000F7B5070080
S1130F60184EB0470028FBD1174B9847174B1F70FA
S1130F700193B0470028FCD1154D164B6868C00496
S1130F80C00E98470400019B1F706B68DB02DB0FE7
S1130F900193114B1F70B0470028FCD1AD680F4B73
S1130FA09847019B2D022D0C002B08D1012D04D94B
S1130FB0200029000A4B984704002000FEBD01359B
S1130FC0EC40FAE74D0E000089010000040C0040DB
S1130FD0000C0040C50A0000080C0040BD010000E0
S1130FE09521000010B50400064B9847064B074AAC
S1130FF01C7080235188DB010B435380044B9847BA
S113100010BDC04689010000020C0040000C0040E5
S1131010BD01000010B504000E4B98470E4B0F4A5B
S11310201C700F4B0F4C588859880005114059808B
S11310305988000F2140598011008022D2015C8818
S11310401442FCD15A8800020A4002435A80064BDB
S1131050984710BD89010000020C0040FFF0FFFF1B
S1131060000C0040FFBFFFFFBD01000010B50C786D
S1131070034B240204439847024BA4B25C8010BD86
S113108015100000000C004010B50400064B9847F2
S1131090064B1C70064B5C88064B2405240F9847AE
S11310A02000054B984710BD89010000020C004048
S11310B0000C0040BD0100005D0F0000D37830B586
S11310C0002B35D11478802C03D0802324065B02B6
S11310D0234302255478AC4306D19478002C24D1C0
S11310E08024A402234341605478013C012C01D89C
S11310F0124C2340A0248DB2E4052C431C4384628B
S1131100D0240D0C24062C431C438462D478002C78
S11311100AD15B0303D59378012B0CD181615378F9
S1131120013B012B00D8816030BDC024E402D9E723
S113113041600023DEE74161F1E7C046FFFFFBFFAA
S113114010B503000A004409C1090020814202D1FC
S11311500449E00140181F210B401E399940024BFD
S1131160984710BD00440041BD10000070470000C6
S113117010B5054B9847054B9847054B9847054BC9
S11311809847054B984710BDE50C0000ED010000A1
S11311906D1100006D1100006D11000000207047FA
S11311A0374A10B542600200002304002C32483450
S11311B003608372C372037343720372C361036275
S11311C043628362037543758375C37503764376FF
S11311D0037443748374C374137053709370D37023
S11311E0137153719371D371137253729372D372D7
S11311F00C32137053709370D370137153719371D5
S1131200D371137253729372D372137353739373B0
S1131210D373011D23706370A370E3702371637132
S1131220A371E37123726372A372E3722373637312
S1131230A373E37350342370836583676370C3655A
S1131240C367A3700366CB6797310B700121303AF3
S11312504366D36794321370143A836613605375EC
S11312600432C36613609374043203671360D37348
S113127043670432A13013601173037010BDC0467C
S1131280FFFFFF00F0B5A74B8FB0060008000D006C
S1131290140098472023A44A0990116A1C200B4388
S11312A013622B689B0707D42B68DB0704D49F4A7F
S11312B02368934202D917200FB0F0BD63689342AC
S11312C0F9D8230021001C332C3118689042F2D83D
S11312D004338B42F9D10022802102924904A018E0
S11312E0007C012804D108009040029F0743029724
S11312F00132042AF3D12200A1321278002A04D048
S113130080220299120111430291227A511E8A41CC
S113131092000392627A012A02D103991143039144
S1131320227B0692E27A0792002294465F7A032F88
S1131330C1D819780F29BED8F0205A7800050906BB
S1131340014012040A4399780192481E8141C9015F
S11313500491D9780322481E81411879C900059166
S1131360411E88410101602008919979BF02490119
S1131370014058791040019A02430A43C021D879A8
S1131380890000020140E02011431A7AC0011203CF
S11313900240C0200001114307400F436146049AF4
S11313A00A331743059A1743089A17430CAA8F5018
S11313B0042294446246082AB8D1802200235202AF
S11313C0022094460193FF30E218170050373F780B
S11313D0002F04D067469F400199394301911F00B3
S11313E04137D25D002A07D0022A00D098E00200DB
S11313F09A400199114301910133082BE4D1302221
S11314000721637E1B011340227E0A40134380227E
S1131410049300235202E118097D002904D011002D
S113142099400498084304900133042BF3D131000C
S11314300023321D343108C28A42FCD17363B36382
S1131440099B0AAA98003A4B1100C6502300356044
S1131450A0331B783C363370A37A11201370354BBC
S11314609847354B112098472300270026007833EE
S11314709837583605933B78002B0DD001230BA9E0
S11314808B700023CB702033F3181B7830780B70EB
S113149001234B70294B9847059B04360137B3420F
S11314A0E9D1069B079A1B0312021343029A1343C2
S11314B02B600423AA681A42FCD1FF232B71FB3B47
S11314C0AA681A42FCD16B461B7B6B710C9BEB60C8
S11314D00D9B2B61019BAB61194BAA681A42FCD18D
S11314E0049BEB631023AA681A42FCD12368154AB3
S11314F06B63AB681340FCD1626813492A640A0029
S11315009A40A8681040FCD19A00A218D6691A0023
S113151010329200AA1801335660042BEFD1CBE6A7
S1131520012265E79D11000000040040FFFFFF0059
S1131530780100206D100000E50F0000411100004B
S1131540400002008000040000010800F8B50025F6
S11315500B4B8000C4582368626BDE6AA36B134094
S11315601E40084BEF58374205D063195B682000D2
S113157098472368DF620435302DF2D1F8BDC046A8
S113158078010020D83B000010B50020014B98479B
S113159010BDC0464D150000931C9B001950037EDE
S11315A0022A04D10E321343037600207047032A23
S11315B001D11D32F7E7012191400B43F4E700000C
S11315C070B50126144B8000C4582368227E657EC2
S11315D09B7B15401D40354204D0A36820009847EA
S11315E023689E730226354204D0E368200098479E
S11315F023689E731026354204D02369200098473F
S113160023689E732026354204D0636920009847DE
S113161023689E7370BDC0467C01002010B5002075
S1131620014B984710BDC046C115000010B50120FC
S1131630014B984710BDC046C1150000064B9842A7
S113164007D0064A0023904201D10133DBB21800CF
S113165070470023FAE7C04600180042001C00420D
S1131660F0B5874B050085B0080014000E009847BC
S11316706A461223137153712E33138140335381FD
S11316800023AB60EB602B616B612B766B767D4B3B
S11316908200D5502E60A3780700082B03D11720B1
S11316A0FA0700D5D5E001222B71338805201342B7
S11316B000D0CEE0F37B1730DB0600D5C9E0022171
S11316C033880B4000D0C4E0217C002908D003A952
S11316D0CB70237E207D0B706B4B8A704A709847C9
S11316E0237F002B0ED00022012303A9CA702432C9
S11316F08B70A2184B701F33E31812781878624B62
S11317000A7098477A009446684608228018624610
S11317105E4B825A196A0A431A62A278082A0AD1CD
S1131720791C4A00944608216A4652186146186A90
S1131730525A02431A626A462378694613706B460A
S11317400433DF5D524B38009847524B38009847BA
S11317502389A288A1791A43A3780B43134362789F
S1131760002A02D08022120113432968CA7B52B294
S1131770002AFBDB3380637B5A1E9341A27B9B00D0
S1131780002A01D0012213432968CA7B52B2002ADD
S1131790FBDBFF223271002B05D02968CA7B52B2D1
S11317A0002AFBDB7371E37AA27A002B01D01023A9
S11317B01A43237B002B01D020231A432968CB7BB7
S11317C05BB2002BFBDBB2712B68DA7B52B2002ACE
S11317D0FBDB2A79042A19D0082A3CD01720002AD6
S11317E037D1DA7B52B2002AFBDB238D33822A689D
S11317F0D37B5BB2002BFBDB638D33832A68D37B03
S11318005BB2002BFBDBA38D738321E0DA7B52B246
S1131810002AFBDB230028331B7833742A68D37B2C
S11318205BB2002BFBDB230029331B7833752A685A
S1131830D37B5BB2002BFBDB23002A331B7833768C
S11318402A68D37B5BB2002BFBDB2B3423787376C3
S1131850002005B0F0BDDA7B52B2002AFBDBA36A9C
S113186033612A68D37B5BB2002BFBDBE36AB36191
S11318702A68D37B5BB2002BFBDB236BF361E7E7C6
S11318803D1600007C0100204111000000040040CE
S11318906D100000E50F000010B50468E37B5BB237
S11318A0002BFBDB0379042B0CD0082B12D0172060
S11318B0002B0ED1172001290BD80C3192B249000C
S11318C00A5305E01720012903D8D2B261180A7619
S11318D0002010BD17200129FBD8063189000A51C8
S11318E0F6E7FEE72148224970B5884204D0002378
S11318F0204CCA18A24232D300211F4B1F4A9342E4
S113190031D3FF211E4B1F4A8B43936002220C25C7
S1131910082430261C4B1D485A62C378FC398B437B
S11319201343C370C378AB432343C370184B987BF2
S1131930B0430600202030439873987BA8430443A7
S11319409C73987B884302439A738023114A51689D
S11319500B435360104B9847104B9847FEE7C5580C
S113196004331560C5E702C3C9E7C046AC3C0000B8
S1131970000000201C0000201C000020E4010020C6
S11319800000000000ED00E0FC7000410050004148
S11319900048004100400041753B00006521000003
S11319A0F0B58BB001AD194E0C2200212800B047D0
S11319B0022331276B80164B0C22002104A86B6094
S11319C02F80B0476B46022207AC5A821F82114B0C
S11319D00C22002120000593B047022363800E4BA4
S11319E0278063600D4F290038000D4EB047002852
S11319F0F8D104A93800B0470028FAD121003800F2
S1131A00B0470028FAD10BB0F0BDC046BD3B000082
S1131A100B000020010000200300002084010020AE
S1131A20610600001FB50A4B01AC9847094B0C2214
S1131A30002120009847312323802F3B6380064BED
S1131A40636021000548064B98470028F9D11FBD63
S1131A50A1190000BD3B00000F00002084010020FC
S1131A60610600001FB50A4B01AC9847094B0C22D4
S1131A70002120009847312323802F3B6380064BAD
S1131A80636021000548064B98470028F9D11FBD23
S1131A90A1190000BD3B00000D00002084010020BE
S1131AA0610600001FB50A4B01AC9847094B0C2294
S1131AB0002120009847312323802F3B6380064B6D
S1131AC0636021000548064B98470028F9D11FBDE3
S1131AD0A1190000BD3B0000090000208401002082
S1131AE061060000F0B58BB001AD1A4B98471A4E51
S1131AF00C2200212800B047022331276B80174BAA
S1131B000C22002104A86B602F80B0476B46022290
S1131B1007AC5A821F82124B0C220021200005932D
S1131B20B047022363800F4B278063600E4F290068
S1131B3038000E4EB0470028F8D104A93800B04749
S1131B400028FAD121003800B0470028FAD10BB0A0
S1131B50F0BDC046A1190000BD3B00000B000020F1
S1131B600500002007000020840100206106000019
S1131B708021642370B58EB001AA8903116101210B
S1131B8001931E4B49425360002391820A316944F8
S1131B90CB770CA90B70312169440B703221694455
S1131BA0936013731376D361136293620B70D7330C
S1131BB01386134E134B1449D3823000134B9847AA
S1131BC007223568EC691440FCD102232A681343C8
S1131BD02B6030680E4B98471F2318401E3B8340F0
S1131BE00C4A13601022F088698B114203D101342E
S1131BF08442F9D36A830EB070BDC046480D00001C
S1131C008401002010270000001000424D02000053
S1131C10310A000000E100E016490B685A1C0A6012
S1131C20154B092A07DD1A6801321A6000220A607E
S1131C300121124A11701968114A042904DD11683E
S1131C40013111600021196011680E4B012904DD76
S1131C50196801311960002111601A68012A08DD30
S1131C6009490A6801320A6000221A60074B0132EE
S1131C701A70704778000020740000206C00002067
S1131C8080000020700000207C0000206D000020F7
S1131C90F7B50226002701AC124D21001B20277046
S1131CA0A7706670A8470123210006202370667080
S1131CB0A847012323700123210007206370A8474C
S1131CC021000F2027706670A84721000B20277081
S1131CD06670A84701232100032066702370A8477B
S1131CE0F7BDC04621020000A02110B58EB001AAA4
S1131CF0C90091802D2100236F2069441385087049
S1131D000121124C13709371138153709372D37227
S1131D1013739373537313771362536253859385C9
S1131D20117404330F319370516193610849094B65
S1131D30200098472368DA7B52B2002AFBDB022298
S1131D4019880A431A800EB010BDC046AC010020A9
S1131D50001800426116000010B50C4C00220C491A
S1131D6020000C4B984720680B4B98470B4B1A5C90
S1131D701F231A401E3B19009140094A1160627EDC
S1131D801A4362762268537310BDC046AC0100202A
S1131D90191C0000991500003D160000083C0000C5
S1131DA000E100E0124B134A196A134B090416D4DC
S1131DB01968013919601168013911601168002925
S1131DC004DC01200D49087000211160002019680D
S1131DD00B4A814208DC1070186001307047022100
S1131DE019608F31FF31E8E701231370F6E7C0462D
S1131DF00044004114000020180000206800002066
S1131E006600002070B500240D4B0E4D1C700E4B67
S1131E1015221C7021000D4B280098470C4B1C7098
S1131E202B68DA7B52B2002AFBDB3B2202211A73B5
S1131E309A731A888A431A804022064B5A6170BDED
S1131E406A000020C80100208400002099180000C6
S1131E506B0000200044004110B5154B1B78002B8B
S1131E600AD0144B1B78022B07D1134B22220021DA
S1131E7012489847124B984710BD032B06D10E4BBE
S1131E804D2200210D4898470E4BF4E7042B09D14D
S1131E9001220D4B00211A700848074B4C32984719
S1131EA00A4BE8E7042BE7D9094B9847E4E7C04617
S1131EB06B0000208400002099180000C801002055
S1131EC0651A0000A51A00006A000020251A000007
S1131ED0051E000010B51A4B9847002826D0194B50
S1131EE01B78002B06D08022174B52025A61174BE5
S1131EF098471BE016490B78002B17D1154A137825
S1131F00013313700122144B0A701978002915D17A
S1131F101A70124B1B68DA7B52B2002AFBDB0222D6
S1131F2019880A431A804022074B9A610C4B1B788C
S1131F30002B02D00022064B1A7010BD094BD7E7C4
S1131F40A51D00006800002000440041051E00009B
S1131F506F000020840000206B000020C8010020D6
S1131F6066000020591E0000034B044A1B6A1B0133
S1131F70DB0F13707047C046004400416E00002020
S1131F80034B044A1B6A1B05DB0F13707047C046E2
S1131F90004400416700002010B5024B9847024BF3
S1131FA0984710BD691F0000811F000010B5064B43
S1131FB01B78002B02D0054B984710BD044B1B78AF
S1131FC0002BFAD0034BF7E764000020651A0000E9
S1131FD065000020E51A000010B50B4B1B78002BA0
S1131FE00BD08021094A0A4B147840204902002C66
S1131FF004D0586199610023137010BD012414703A
S113200098615961F9E7C0466A0000206900002020
S11320100044004110B5024B9847024B984710BD4D
S1132020991F0000AD1F000000B5274B8FB01B782F
S1132030002B3AD1A02101AAC90091802D2155205D
S11320406944138508702E2140386944538508700B
S113205040211370138153709372D372137393736B
S1132060537313771362536293850433937091719E
S113207093613639033B516113741449144B154869
S11320809847154B9847154B1A78002A03D000221D
S11320901A70134B9847134B1A78002A03D0002266
S11320A01A70114B98470FB000BD104B104A1978A5
S11320B0104B002903D1012019701070E3E70021AF
S11320C0117001221A70DEE76E000020001C00422D
S11320D061160000C8010020A51A00006C00002051
S11320E0D51E00006D000020D91F000067000020ED
S11320F065000020640000204022064B5A619218BB
S11321005A61802212025A61802212015A61082205
S11321109A6170470044004110B50A4B9847012268
S1132120094B1A70BFF35F8F62B6084B9847084B90
S11321309847084B9847084B9847084B9847084BD3
S1132140984710BD7111000000000020911C000090
S1132150F9200000E91C0000591D0000711B00005B
S1132160ED00000010B5034B9847034B9847034B11
S1132170FAE7C046192100001520000029200000BC
S113218002B4714649084900095C49008E4402BC06
S11321907047C046002243088B4274D303098B4224
S11321A05FD3030A8B4244D3030B8B4228D3030C23
S11321B08B420DD3FF22090212BA030C8B4202D3C5
S11321C01212090265D0030B8B4219D300E0090AED
S11321D0C30B8B4201D3CB03C01A5241830B8B42F6
S11321E001D38B03C01A5241430B8B4201D34B03DF
S11321F0C01A5241030B8B4201D30B03C01A524144
S1132200C30A8B4201D3CB02C01A5241830A8B42C8
S113221001D38B02C01A5241430A8B4201D34B02B1
S1132220C01A5241030A8B4201D30B02C01A524115
S1132230CDD2C3098B4201D3CB01C01A52418309C9
S11322408B4201D38B01C01A524143098B4201D303
S11322504B01C01A524103098B4201D30B01C01A2E
S11322605241C3088B4201D3CB00C01A52418308A8
S11322708B4201D38B00C01A524143088B4201D3D5
S11322804B00C01A5241411A00D201465241104635
S11322907047FFE701B5002000F006F802BDC04614
S11322A00029F7D076E770477047C046F8B5454631
S11322B0DE4657464E460C03E0B54E00C90F88462D
S11322C00D00610A440F0C43C70019035800DB0FCB
S11322D09B464B0A510F0B43760D400D1900D2005B
S11322E0D84500D1AEE0351A002D00DCF6E0002818
S11322F00FD1134300D1DBE06B1E002B00D037E17C
S1132300BA1A9742BF41641A7F42E41B01261700A0
S113231024E0C64B9E424DD080231B041943382D24
S113232000DD07E11F2D00DD38E12020431B9A4624
S11323300B0050468340994613004846EB4018432F
S1132340030050468240501E8241E9401A43BA1AA3
S1132350611A9742A441170064420C1B230262D500
S11323606402650A002D00D1DFE0280001F0E4FBDF
S11323700300083B1F2B00DDD2E020223C00D21AD0
S11323809D40D4409F4025439E4200DDC4E09E1BF7
S1132390731C1F2B00DDF1E0202238002900D21A23
S11323A0D840914097402C000143781E8741DC407F
S11323B000260F437B0709D00F233B40042B05D095
S11323C03B1DBB42BF417F42E4191F0023022CD5B1
S11323D0964B01369E4200D19AE04546944BFF0845
S11323E01C406007760564020743240B760D002128
S11323F02403230B0C0D8F4A24051C43144033057E
S113240023435B00ED075B082B43380019003CBCF9
S113241090469946A246AB46F8BD6446044300D1B3
S113242011E2040067467B07C6D145466007FF08F2
S11324300743E4087D4B9E4230D024037605240BE9
S1132440760DD4E7331A9A46002B78DD002831D074
S113245076488642AED08020000401435346382B90
S113246000DCE9E00A43511E8A410021D219BA4234
S1132470BF4109197C4217000C192302D3D56B4BB9
S113248001369E4200D13AE10120694B1C407B0891
S113249007401F43E007074364088BE723003B43DF
S11324A000D1CBE18022120314432403240B9EE7C2
S11324B02E007FE70800104300D1B4E0581E002826
S11324C000D0DEE0BA18BA429B4164185B42E418BB
S11324D0170001262302A6D50226D5E7002D6ED1CA
S11324E0701C4005400D012800DCF9E0B81A844650
S11324F087428041E51A40422D1A280200D489E01F
S1132500D71BBA4292411C1B5242A51AD84629E74E
S11325104546002400276AE7454CF61A2C4049E753
S11325203D002838854000272EE7380001F004FBE1
S113253020301DE70A43511E8A41002107E7002B82
S113254000D0F3E0701C43055B0D012B00DCADE013
S1132550364B984200D1D1E0BA18BA42BF41641850
S11325607F42E419E707520817436408060021E78D
S11325702E48854200D193E01D00D0E629001F3E7D
S1132580F140202B00D18DE04022D31A9D402F43EF
S11325907D1EAF4100240F43002644E72B000800B2
S11325A0203BD8400300202D00D17DE04020451B76
S11325B0A9400A43511E8A4100211A43C7E6002E4E
S11325C050D01A4EB04257D080266B4299463604FA
S11325D034434B46382B00DDD6E01F2B00DD35E1BC
S11325E02026F51A2600AE40B2463E00DE40AC4638
S11325F0350056462E436546AF407D1EAF41DC4054
S11326003743D71BBA4292410C1B5242A41A06000C
S1132610D846A3E6644667462C4300D0A2E60025CC
S11326200026002706E71E00C4E6C046FF07000098
S1132630FFFF7FFFFFFF0F801F2B63DC2020C31AE7
S1132640080098409C46834653461000D840030037
S11326505846184363469A40531E9A4153460243D0
S1132660D94003E726003E4306D0EB439946002BAE
S1132670C7D0944EB042ACD10C0017000600D84627
S113268098E6904B9A450BD08246E7E6002800D0A6
S11326909EE01800104300D1E9E01C001700D84662
S11326A0884E87E6002572E7002182E723003B433A
S11326B0002E00D0ABE0002B00D1E7E00B00134369
S11326C000D177E6BA18BA42BF4164187F42E419D0
S11326D0230200D4F2E07C4B17001C40060069E69C
S11326E020003843002ED1D100285BD11C001443B4
S11326F000D1A8E01C001700D8465BE606000024C1
S1132700002797E650460B002038C34099465346AD
S1132710202B00D195E0402350461B1A99400A43D0
S1132720511E8A414B4600211A439FE6002E30D1A8
S113273026003E4367D0DB439A46002B1CD0614EF3
S1132740B04260D05346382B00DD96E01F2B00DDED
S11327509FE02026F31A26009E409C46B34653462B
S11327603E00DE4033005E461E4363469F407B1EB0
S11327709F415346DC403743BF1897429241641847
S11327805242A418060078E627437C1EA741002481
S113279037E74C4EB04236D080265B4236049A4628
S11327A03443CFE71800104300D103E6B81A844637
S11327B06745AD41E01A6D42401B050200D42CE68A
S11327C0D71BBA4292411C1B5242A41AD846F1E5C7
S11327D01800104300D163E7F80867070743802017
S11327E0E4080003044208D0DD08054205D1D208FC
S11327F0590711430F002C00D8467B0FE4001C43FB
S1132800FF00304ED6E50C0017000600D2E5002B81
S113281038D00B00134300D142E7F8086707074399
S11328208020E40800030442E7D0CB080342E4D14B
S1132830D208490711430F001C00DEE700270024DB
S1132840D5E500216BE700250027F3E54E4625007A
S1132850203EF5404B462E00202B2DD04025ED1A6E
S1132860AC4027437C1EA74100243743C9E680249B
S113287000252403134E0027DCE527437C1EA741D3
S1132880002479E70C0017000E4E93E50C001700A6
S113289090E556462300203EF34099465346202BAC
S11328A00ED0402356469B1B9C4027437C1EA741C9
S11328B04B4600241F435FE70024D2E71700B2E52C
S11328C00024F2E7FF070000FFFF7FFFF0B5574643
S11328D04546DE464E46E0B54C000E0387B08346BF
S11328E092461D008046360B640DCF0F002C4FD04E
S11328F06F4B9C4235D08023420F1B04F6001343D8
S113290033439946C30098466A4B00269C460023ED
S1132910644403932B031B0B9B466B00ED0F504643
S11329205B0D01955ED0624A934253D05A46D10062
S11329308022400F120402430A4393465246D100B8
S11329405C4A9446002263443800684084460290FE
S1132950E41A16430F2E00D9B4E0574BB6009B5926
S11329609F460300334399466CD1002398460233B3
S113297008260393CEE7CB464146039A0197022AE1
S113298065D1019B4A4C9C460023002298466BE08B
S11329900300334399464ED0002E00D1BCE13000F1
S11329A001F0CAF803000B3B1C2B00DDACE11D2237
S11329B0D31A5A460100DA4008398E4013003343D3
S11329C099465B468B40984600233C4C0026241ACB
S11329D003939FE751465A46114329D10022934657
S11329E00232B1E7594601431ED05B46002B00D1A9
S11329F09EE1584601F0A0F803000B3B1C2B00DDC0
S1132A008FE102005946083A91408B461D21CB1AAA
S1132A105146D9400B0059460B4351469B469140C1
S1132A20264B00221B1A8FE7002301229B468BE7CB
S1132A305146032288E700239846013304260024E4
S1132A40039367E70323B14603930C2662E7032A43
S1132A5000D15CE2019B012A00D0E4E113409C46D2
S1132A60002300240022984600211203130B0A0DB0
S1132A7012051A432305124C404622401343624672
S1132A805B00D2075B081343190007B03CBC9046B7
S1132A909946A246AB46F0BD002380229C46120311
S1132AA09846034CE0E70023014C00229846DBE7FC
S1132AB0FF07000001FCFFFF0C3C00000DFCFFFFC2
S1132AC0FFFF0F80D94500D939E100D134E100235B
S1132AD046464D469A46013C5B460A0E1B021A4383
S1132AE00B02170C039313041B0C390028009046A7
S1132AF00193FFF74FFB0200019B83465A432800D2
S1132B0039009146FFF7CCFB350C09040D43A94568
S1132B100DD95B464544013BA84500D93AE1A94596
S1132B2000D837E102235B429C464544E3444B46CC
S1132B30EB1A390018000493FFF72CFB019B0500E6
S1132B404343390004989946FFF7AAFB3304090468
S1132B501B0C0B43994509D943446A1E984500D977
S1132B601AE1994500D817E1023D43444A469B1AAD
S1132B705A4612042A4303999346100C0A0C9146B0
S1132B8009045A46090C4E460D001204120C454322
S1132B90059151437243704352190E0CB218954279
S1132BA003D980256D02AC466044150C0904120457
S1132BB0090C28185218834200D2CEE000D1C8E094
S1132BC01D1A53469E1AB24592415242AB1A9A4676
S1132BD0984500D117E139001800FFF7DBFA019B93
S1132BE005004343390050460493FFF759FB04980A
S1132BF00B04310C1943884209D941446B1E8845A2
S1132C0000D907E1884200D804E1023D4144049B15
S1132C10CB1A180039000493FFF7BCFA019B8246D3
S1132C204343390004980193FFF73AFB01980B04DE
S1132C303104090C194388420DD953464144013BE0
S1132C40884500D9E8E0884200D8E5E002235B42E9
S1132C509C464144E244019B2D04CE1A514629432B
S1132C60059D4F462A000B04080C1B0C5A43454390
S1132C707B4378435B19170CFB189D4203D98025CD
S1132C806D02AC4660441D0C12041B04120C28187F
S1132C909B18864200D293E000D18EE001231943B1
S1132CA0A04BE318002B00DC99E04A0700D09EE01B
S1132CB05A46D20106D55A469B4B1A408023934666
S1132CC0DB00E318994A934268DD0123029A984C89
S1132CD01A400023944698460022C5E680224B46BB
S1132CE0120313420AD05B46134206D11A4312035D
S1132CF0120BAC4688468E4CB6E64B461A4312037A
S1132D00120BBC468A4CAFE603005A46283B9A4055
S1132D1000239146984657E6584600F00DFF2030B0
S1132D2040E603005246283B9A400021934677E64A
S1132D3000F002FF20305FE6884500D2C7E64B462C
S1132D40DE075D0843465B081E434346DB079A469D
S1132D50C2E60025924500D333E7039E5946B446A4
S1132D60E244B245AD416D424544EB180139984502
S1132D7007D2984200D97FE000D1BCE01D1A8B46EF
S1132D801FE79845FAD1039D5545F2D943468B4632
S1132D901D1A16E79B46CAE61500E7E65A46C90817
S1132DA052070A435B0590465C0D5A46012302997B
S1132DB052021940120B8C4656E6002B00D16FE7E5
S1132DC046444A1EB04529D91100864200D065E721
S1132DD0039A934200D061E762E70121494201204E
S1132DE0C21A382A21DD029B03409C4638E60F2292
S1132DF00A40042A00D15BE70A00111D9142924166
S1132E005242934454E7474BE318002BE5DD01227B
S1132E105242F2E71D00FAE69A461CE7B04239D85E
S1132E206ED011003AE702933AE71F2A3CDC2023D4
S1132E309B1A0C005846994098404B1E99415B469A
S1132E40D440D340204308431A00430709D00F233A
S1132E500340042B05D00100081D88429B415B42BE
S1132E60D21813023AD50123029A01241A400023EE
S1132E70944698460022F7E5022149428C46039D78
S1132E80E344AC46E244AA45AD416D424544ED18E5
S1132E902D1A96E68A1E03994D008D4289414942B6
S1132EA04144761803958FE71F204042C31A5846C1
S1132EB0D8400300202A28D040205D46821A95403D
S1132EC029434A1E91411943072300220B4009D08C
S1132ED00F2300220B400800042BBDD1010053072F
S1132EE05202120BC908194301238846029900248F
S1132EF019408C46B8E55245BED88B46002560E69D
S1132F00039D9D42C6D3110062E70025D8E78022C5
S1132F105B4612031A43019B1203120B9C4688461C
S1132F20034CA1E5FF030000FFFFFFFEFE070000C6
S1132F30FF070000F0B557464546DE464E46E0B56D
S1132F400C0398464E00230B87B0070092469B461D
S1132F50760DCD0F002E6BD06D4B9E4235D0802464
S1132F605B46420F2404DB0014431C43C300994610
S1132F70684BA3469C4600230027664402934346BD
S1132F801C035A00DB0F5046240B520D984600D107
S1132F9076E05F4B9A426DD08023410F1B040B43B4
S1132FA05C49E4008C461C43C30000206244414653
S1132FB0B6186940721C0191944607430F2F00D93B
S1132FC0B0E0554ABF00D25997465B460343994641
S1132FD000D087E000239B46023308270293CEE704
S1132FE042460192022867D0032800D10EE201284C
S1132FF000D062E100230024002299460199014097
S1133000CDB2002112030B0D120B1B051343434ACF
S1133010240513401C436400ED0764082C43484610
S1133020210007B03CBC90469946A246AB46F0BD91
S1133030034399464FD05B46002B00D189E15846A3
S113304000F07AFD03000B3B1C2B00DD7AE11D220E
S1133050D31A3A0001005C46DA4008398C40130068
S11330608F4023439B46B94600232D4E0027361A32
S1133070029384E7534623432AD10024022096E78F
S11330805346234320D0002C00D157E1200000F008
S113309053FD03000B3B1C2B00DD49E11D21CB1A22
S11330A051460200D9405346083A944093400C4399
S11330B01B4A121A00207AE70125019B144C1D407B
S11330C00023002299469CE70024002201206EE799
S11330D0534603206BE700239B4601330427002655
S11330E002934CE7032381460C27029347E780228F
S11330F00023002512039946054C82E75C464B46A3
S113310002986FE75C464B46019502986AE7C04611
S1133110FF07000001FCFFFF4C3C0000FFFF0F8095
S11331200DFCFFFF4A464946170C1A0C1B041B0CE6
S113313008041900000C41431500884619007D431A
S11331407943039589462900150045434D4402956A
S113315045462D0CAA46029D5544A94506D98A46E2
S1133160802149028946CA4451460391290C04919D
S1133170414609042D04090C88462900250C240421
S11331804144240C059121004143884621007943A0
S11331908A466843414650448146080C48446F437C
S11331A0824503D98021490289464F44010C89464E
S11331B039004944029141460F0404993F0C884662
S11331C00004C01980444146049159460F0C090477
S11331D0090C884659438A46390051438946414679
S11331E04A435146090C8B467B43D2185A449342B6
S11331F003D980235B029B46D94451460904090C38
S11332008A46414661437C43130C12044B445244A6
S1133210A1468A463C0041466C434D4351464D44C9
S11332200F0C7D19A94503D98021490288464444DD
S1133230049F0399B84641448B46834580414142EB
S11332408846514608042F04000C3F18584602993A
S113325010188946904292414F44BA4652429946C8
S11332609346C244D144CB448F42BF41C2458941B5
S113327099459B41934592417F4249422D0C5242CC
S11332800F435B4213437F19FF185B463C19DB0D68
S1133290059A64021C43430213435D1EAB415A4624
S11332A0C00D034352021343E20156D501205A08CC
S11332B003401343E207134364085A486044002858
S11332C04DDD5A0709D00F221A40042A05D01A1DD1
S11332D09A429B415B42E4181300E20104D580202A
S11332E0514AC00014406044504A904200DDE3E675
S11332F00125DB0862071A436402019B9146220BF5
S11333004405640D1D407CE6802259461203114297
S113331008D0144206D122431203120B45469946A3
S1133320434C6EE65B461A431203120B404C68E6AC
S113333003005446283B9C400023B9E600F0FCFB04
S11333402030A6E60300283B9F400023BB46994655
S11333508AE600F0F1FB203074E6B446ADE70125BF
S11333602A1A382A06DD019B00241D40002300226E
S1133370994646E61F2A21DC20252000AD1A1E00AE
S1133380AB40A840D6405D1EAB4130431843D44007
S1133390430709D00F230340042B05D00300181D55
S11333A098429B415B42E418230221D50125019BED
S11333B001241D4000230022994622E61F252100F6
S11333C06D42281AC1400800202A1DD05F35AA1A70
S11333D0944023435C1EA341072503431D40002260
S11333E0002D09D00F2200241A401800042AD6D137
S11333F0030065076402220BDB082B430125994671
S1133400019B00241D40FCE50024E2E78022012505
S11334101203224301991203120B0D409946044CE6
S1133420EFE5C046FF030000FFFFFFFEFE070000BC
S1133430FF070000F0B54646D6464F460C03C0B51C
S1133440CD0F4E00610A440F0C43C1005800400DDB
S113345084468A460F001903500F490A0143C6489F
S1133460760DA846DB0FD200844500D1D8E00120B8
S11334704340AB4200D1A6E06046351A002D00DC83
S113348005E1002810D10B00134300D1D7E06B1ED7
S1133490002B00D04BE153469F1ABA458041641A71
S11334A04042241A01261EE0B34B9E4248D080239A
S11334B01B041943382D00DD19E11F2D00DD4CE1FB
S11334C020230F005B1B10009A409F40E840531ECE
S11334D09A41E940074317435346DF1B611ABA4533
S11334E0A44164420C1B230200D4C5E06402650AB3
S11334F0002D00D1F6E0280000F01EFB0300083B7D
S11335001F2B00DDE9E020223C00D21A9D40D4406C
S11335109F4025439E4200DDDBE09E1B731C1F2B56
S113352000DD0AE120223800D21A290097402C003D
S11335309140D8407A1E9741DC40002601430F4356
S11335407B0709D00F233B40042B05D03B1DBB4216
S1133550BF417F42E4191F00230225D5864B013663
S11335609E4200D1AFE0854B01251C4043466207D3
S1133570FF08640276051743240B760D1D400021D5
S11335802403230B0C0D7E4A24051C4314403305ED
S113359023435B00ED075B082B43380019001CBC78
S11335A090469946A246F0BD012543466207FF08AE
S11335B01743E4081D40704B9E4236D02403760521
S11335C0240B760DDBE76346F31A002B00DC94E052
S11335D06046002835D068488642B1D080273F0431
S11335E03943382B00DCFDE00A43170000217A1E22
S11335F09741574457458041091944420C19230205
S11336003AD55D4B01369E4200D14BE101225B4B22
S11336101C407B0817401F43E207174364088FE7E9
S11336200800104300D024E721E723003B4300D1E6
S1133630B9E18022120314432403240B9FE72E00D4
S11336407EE70800104300D1CAE0581E84460028D3
S113365000D0E7E0524452458041641840422418A7
S113366017000126230207D50226CFE764462C4320
S113367000D1B3E12C0067467B0700D062E7630703
S1133680FF081F4301254346E4081D4093E7002D2E
S113369078D1751C6D056D0D012D00DCF2E05046EE
S11336A0801A8245BF41651A7F42ED1B8446280279
S11336B000D48CE05046171ABA4292410C1B554272
S11336C0651B984614E70125434600241D40002746
S11336D055E72A4CF61A2C4032E73D00283885403D
S11336E0002717E7380000F027FA203006E70A43DE
S11336F0170000217A1E9741EEE6002B00D0E5E08A
S1133700731C9C465B055B0D012B00DC9FE01A4B90
S11337109C4500D1C5E05244524580416418404262
S11337202418E707520817436408664608E7124856
S1133730854200D185E01D00BCE629001F3EF14012
S1133740202B00D17FE04022D31A9D402F437D1EC1
S1133750AF4100240F4300268EE72B000F00203BCF
S1133760DF40202D71D040235D1BA9400A43511E28
S11337708A4100211743AFE6FF070000FFFF7FFFE8
S1133780FFFF0F80002E3ED0B34EB44545D08026B7
S113379036046D423443382D00DDA8E01F2D00DDD2
S11337A01FE1202627005046761BB740E840074318
S11337B05046B040461EB041EC403843171ABA4256
S11337C092410C1B5242A41A664698468BE6644604
S11337D067462C4300D08BE6002500260027EAE646
S11337E01E00ADE61F2B60DC2027F81A0F0084466C
S11337F087401000D840074360468240501E8241F3
S1133800D9401743F5E626005046064305D0ED435C
S1133810002DD3D0904EB445BDD10C0017006646A0
S113382098468DE68C4883420BD06346D9E6002D3A
S113383000D096E00800104300D1E2E00C0017002D
S11338409846854E7CE6002580E700218EE723001C
S113385050460343002E00D0A8E0002B00D1DEE048
S11338600B00134300D16BE6524452458041641867
S1133870404224181700230200D4FDE6774B664625
S11338801C405DE6250050460543002ECFD1002D97
S11338904FD10C00144300D1A0E00C00170098464F
S11338A04EE666460024002785E61F000800203FF8
S11338B0F8400700202B00D18EE04020C31A994025
S11338C00A43511E8A410021174392E6002E14D167
S11338D026005046064362D0DB43002B5CD1871898
S11338E09742924164185242A418664687E65046AD
S11338F02043441EA041002460E7574EB4454ED0F7
S1133900802636045B423443382B00DD7FE01F2BD6
S113391000DD8BE0202627005046F61AB740D84039
S113392007435046B040461EB0410743DC40BF1831
S1133930D6E70D00154300D102E65046801A8245B1
S1133940BF41651A7F42ED1B8446280200D48DE6F0
S11339505046171ABA4292410C1B5242A41A984676
S1133960EEE50D00154300D16BE750466707C0082C
S113397007438020E4080003044207D0CD08054231
S113398004D12C009846D70849070F437B0FE40065
S11339901C43FF00304ED3E52F4EB445B4D10C0088
S11339A017006646CCE500270024E8E5002B39D053
S11339B00B00134300D144E7C00867070743802086
S11339C0E40800030442E1D0CB080342DED1D70867
S11339D049070F431C00D9E7002171E700250027A0
S11339E0E9E52E002700203EF740202D2FD0402669
S11339F0751BAC4050462043441EA041002438436C
S1133A00DCE6802400252403134E0027D3E550462A
S1133A1020430700781E87410024BF1860E70C008C
S1133A2017008DE50C0017000B4E89E51E002700DA
S1133A30203EF740202B0CD04026F31A9C405046E1
S1133A402043441EA04107430024BF1848E7002434
S1133A50D0E70024F3E7C046FF070000FFFF7FFF25
S1133A6030B5134D0A034B00120B5B0DC90F002434
S1133A70AB4210DD0F4CA3420FDC80240E4D6403D7
S1133A802243ED1A1F2D0BDD0C48C31ADA405442B1
S1133A90002900D11400200030BD094BCC18FAE7EE
S1133AA0084CE840A44663449A400243EFE7C0460A
S1133AB0FE0300001D040000330400001304000092
S1133AC0FFFFFF7FEDFBFFFF10B5041E28D000F0C1
S1133AD033F8154B154A1B1AD21A1F2A15DD144A3E
S1133AE0D21A9440002224035B05240B5B0D0021B1
S1133AF0100024030A0D240B120522430D4C1B0550
S1133B00224013435B00590810BD210091400A0074
S1133B100B21081AC4405B052403240B5B0DE6E764
S1133B20002300240022E2E71E0400003304000006
S1133B3013040000FFFF0F801C2101231B04984283
S1133B4001D3000C10391B0A984201D3000A08392A
S1133B501B09984201D30009043902A2105C4018E1
S1133B607047C04604030202010101010000000085
S1133B700000000070B500260C4D0D4C641BA41011
S1133B80A64209D1002600F081F80A4D0A4C641BB4
S1133B90A410A64205D170BDB300EB589847013676
S1133BA0EEE7B300EB5898470136F2E7983C000083
S1133BB0983C0000983C00009C3C000003008218E4
S1133BC0934200D1704719700133F9E700080042AD
S1133BD0000C00420010004201000000020000003E
S1133BE00400000008000000001000000020000095
S1133BF000400000008000000000010000000200FE
S1133C0000000400000008000D0E0000C42A00009B
S1133C10A62A0000602A00007E290000602A000015
S1133C20982A0000602A00007E290000A62A0000CD
S1133C30A62A0000982A00007E29000076290000A8
S1133C407629000076290000DC2C000024310000D5
S1133C50E42F0000E42F0000E02F0000FC300000FF
S1133C60FC300000EE300000E02F0000FC300000CB
S1133C70EE300000FC300000E02F000004310000B2
S1133C80043100000431000008330000F8B5C046D8
S1133C90F8BC08BC9E467047B5000000F8B5C046A5
S10F3CA0F8BC08BC9E4670478D00000074
S1133CAC0101000500011005F004140408041104BA
S10F3CBC05000000900100000200000060
S90318E5FF
