S011000074696D65725F70776D2E737265633F
S113000018050020451D00003D1E00003D1E000097
S113001000000000000000000000000000000000DC
S11300200000000000000000000000003D1E000071
S113003000000000000000003D1E00003D1E000006
S11300403D1E00003D1E00003D1E00003D1E000040
S11300508D0400003D1E00003D1E00003D1E0000FA
S1130060CD020000AD070000C5070000DD07000059
S1130070691500006D160000811600003D1E000089
S11300803D1E00003D1E00003D1E000010B5064C44
S11300902378002B07D1054B002B02D0044800E045
S11300A000BF0123237010BD2400002000000000C5
S11300B09C280000084B10B5002B03D007490848C2
S11300C000E000BF07480368002B00D110BD064BB9
S11300D0002BFBD09847F9E700000000280000201F
S11300E09C2800009C2800000000000080B582B01D
S11300F000AF104B1B68002B12D1EFF310837B6011
S11301007B68002B09D172B6BFF35F8F0A4B0022C4
S11301101A700A4B01221A7002E0084B00221A706E
S1130120044B1B685A1C034B1A60C046BD4602B000
S113013080BDC04640000020000000204400002094
S113014080B500AF0B4B1B685A1E0A4B1A60094B53
S11301501B68002B0AD1084B1B78DBB2002B05D09F
S1130160064B01221A70BFF35F8F62B6C046BD46CC
S113017080BDC04640000020440000200000002054
S113018080B584B000AF0200FB1D1A700F23FB186A
S1130190FA1D1278D2091A700E23FB18FA1D127870
S11301A052091A700D4BBB600F23FB181B78002BF0
S11301B00FD10F23FB181B789B0010229446BC44DC
S11301C06344083B1A680E23FB181B78DB01D31821
S11301D000E000231800BD4604B080BD0044004187
S11301E080B582B000AF0200FB1D1A70FB1D1B78A6
S11301F01800034B984703001800BD4602B080BDA9
S11302008101000080B582B000AF78607B68002275
S11302101A707B6801225A707B6800229A70C0466B
S1130220BD4602B080BD000080B584B000AF0200BE
S1130230FB1D1A70BB1D0A1C1A70FB1D1B781800CD
S11302400D4B98470300FB60FB1D1B781F221340D6
S113025001229A401300BB60BB1D1B78002B03D006
S1130260FB68BA689A6102E0FB68BA685A61C046E2
S1130270BD4604B080BDC046E101000080B582B037
S113028000AF3B1D18000E4B98473B1D01221A700E
S11302903B1D190010200B4B9847012110200A4BDD
S11302A098473B1D00221A703B1D01225A703B1DCA
S11302B019000E20034B9847C046BD4602B080BDCE
S11302C0050200004D0700002902000080B582B03D
S11302D000AF154B1B697B60144B9B693B60124B51
S11302E09A683B681A43104B9A60104B104A9A6103
S11302F008E07B685A687B681B68180090477B6835
S11303009B687B607B68002BF3D1074BDB683B6009
S1130310054B9B683A68D2431A40034B9A60C04627
S1130320BD4602B080BDC046040000200004004267
S1130330FFFF0F0F80B582B000AF02003960FB1DD4
S11303401A70FB1D1B78012B0AD0022B0FD0002B37
S113035014D10E4B0D4A91693A680A439A610FE031
S11303600A4B0A4AD1693A680A43DA6108E0074B42
S1130370064A116A3A680A431A6201E0172300E048
S113038000231800BD4602B080BDC04600040040F2
S113039080B500AF02210220074B9847074B01228A
S11303A01A70C046054B1B78DBB21A0001231340B8
S11303B0F8D1C046BD4680BD3503000000040042AC
S11303C080B584B000AF0200FB1D1A700F23FB1828
S11303D0FA1D127852091A700F23FB181B78002B90
S11303E00CD1094BBB600F23FB181B789B00102218
S11303F09446BC446344083B1B6800E00023180097
S1130400BD4604B080BDC0460018004080B584B02D
S113041000AF0200FB1D1A70FB1D1B7818000B4B6C
S113042098470300FB60FB1D1B781F221340012229
S11304309A401300BB60FB681B69BA6813405A1EDC
S11304409341DBB21800BD4604B080BDC103000077
S113045080B584B000AF0200FB1D1A70FB1D1B7831
S11304601800094B98470300FB60FB1D1B781F22F3
S1130470134001229A401300BB60FB68BA681A61FA
S1130480C046BD4604B080BDC103000080B500AFC6
S1130490154B00221A7020E0134B1B781800134BE5
S11304A09847031E13D0104B1B781800104B984725
S11304B00D4B1B781A000F4B9200D358002B06D01B
S11304C0094B1B781A000B4B9200D3589847064BE4
S11304D01B780133DAB2044B1A70034B1B780F2BD1
S11304E0DAD9C046BD4680BD920000200D0400004C
S11304F0510400009400002080B582B000AF786001
S11305007B6800221A70C046BD4602B080BD000060
S113051080B582B000AF02003960FB1D1A70FB1D6C
S11305201B78012B0AD0022B0FD0002B14D10E4BB9
S11305300D4A91693A680A439A610FE00A4B0A4AE4
S1130540D1693A680A43DA6108E0074B064A116A3E
S11305503A680A431A6201E0172300E000231800F6
S1130560BD4602B080BDC0460004004080B582B0E4
S113057000AF0200FB1D1A70064BFA1D1278110021
S11305801F220A40012191400A001A60C046BD465C
S113059002B080BD00E100E080B582B000AF0F4B37
S11305A03B6000237B6011E07B689B00082294463B
S11305B0BC446344083B1B685B78DBB25BB2002B32
S11305C001DA012306E07B6801337B607B68002B42
S11305D0EAD000231800BD4602B080BD00180040D8
S11305E080B584B000AF2D4B7B60402100202C4BA4
S11305F098473B0018002B4B98473B0001221A7088
S11306003B0019000520284B98470520274B9847A5
S11306100023FB6018E0FB689B0010229446BC4456
S113062063440C3B1A68FB689B0010218C46BC4455
S113063063440C3B1B681B78DBB201210B43DBB228
S11306401370FB680133FB60FB68002BE3D0C046EA
S1130650174B9847031EFBD10B23FB1800221A707B
S11306600DE00B23FB181A78124B92000021D15095
S11306700B23FB181A780B23FB1801321A700B2377
S1130680FB181B780F2BECD904200B4B98470B4B12
S11306909847C046BD4604B080BDC046001800401F
S11306A011050000F90400004D1200009112000031
S11306B099050000940000206D050000C1060000AB
S11306C080B582B000AF154B3B6000237B6018E01F
S11306D07B689B0008229446BC446344083B1A6828
S11306E07B689B0008218C46BC446344083B1B6820
S11306F01B78DBB202210B43DBB213707B6801333E
S11307007B607B68002BE3D0C046054B9847031EF3
S1130710FBD1C046BD4602B080BDC04600180040B3
S11307209905000080B582B000AF78607B688022B4
S11307301A707B6800225A707B6801229A707B6869
S11307400022DA70C046BD4602B080BD80B584B0D8
S113075000AF02003960FB1D1A700C23FB1818004F
S1130760104B98470C23FB1880221A703B681A78A8
S11307700C23FB185A703B685A780C23FB189A70A8
S11307803B689A780C23FB18DA700C23FA18FB1DCB
S11307901B7811001800044B9847C046BD4604B0AE
S11307A080BDC04625070000E114000080B500AFFD
S11307B0034B1B6800209847C046BD4680BDC04619
S11307C04800002080B500AF034B5B6801209847C8
S11307D0C046BD4680BDC0464800002080B500AF7D
S11307E0034B9B6802209847C046BD4680BDC04667
S11307F04800002080B582B000AF78607B68012299
S11308005A607B6800225A707B6806221A707B68E3
S113081000221A727B6800225A72C046BD4602B09A
S113082080BD80B582B000AF78607B6800221A700A
S1130830C046BD4602B080BD80B582B000AF7860CE
S11308407B6801225A707B6801229A707B680022BF
S1130850DA707B6801221A717B6807221A707B6840
S113086000225A71C046BD4602B080BD80B582B038
S113087000AF78607B6803221A707B6800225A708C
S11308807B6801229A70C046BD4602B080BD80B527
S113089082B000AF78607B6800221A707B68002207
S11308A05A807B6800229A807B6800229A717B6858
S11308B00022DA717B6801225A707B6807221A725F
S11308C07B683F225A817B6801221A737B6801226C
S11308D0DA817B6806221A82C046BD4602B080BD1A
S11308E080B582B000AF0200FB1D1A70034AFB1DE5
S11308F01B781372C046BD4602B080BD00040040A0
S113090080B582B000AF0200FB1D1A70BB1D0A1C2B
S11309101A70FB1D1B78012B08D0022B0BD0002B67
S11309200ED10B4ABB1D1B7853720BE0084ABB1D4A
S11309301B78937206E0064ABB1D1B78D37201E054
S1130940172300E000231800BD4602B080BDC04656
S11309500004004080B582B000AF0200FB1D1A7095
S1130960084AFB1D1B780F210B40D9B253680F2096
S1130970014049001E2083430B435360C046BD46DB
S113098002B080BD0040004180B500AFC046044BBA
S1130990DB6810221340FAD0C046BD4680BDC04675
S11309A00008004080B500AF0C4B02229A840C4B27
S11309B098470A4A0B4B9B68D362084A094B5B6809
S11309C09362064B00229A84054B9847034A054BD1
S11309D01B689BB29384C046BD4680BD000800409E
S11309E0890900005400002080B584B000AF78600D
S11309F01A4B1B6AFB607B681B781A1C0323134089
S1130A00DAB20D23FB1803210A4010001A780321DF
S1130A108A43111C021C0A431A707B689A780C23BF
S1130A20FB18D0011A787F210A40111C021C0A43CA
S1130A301A707B685A780C23FB1801210A40900134
S1130A401A7840218A43111C021C0A431A70034B72
S1130A50FA681A62C046BD4604B080BD0008004072
S1130A6080B584B000AF78602F4B9B69FB607B68D6
S1130A705A780C23FB1801210A40D0001A78082167
S1130A808A43111C021C0A431A707B689A780C234F
S1130A90FB1801210A4090001A7804218A43111C92
S1130AA0021C0A431A707B681B781A1C0723134024
S1130AB0DAB20D23FB1807210A4010001A78072127
S1130AC08A43111C021C0A431A707B681A790C238E
S1130AD0FB18D0011A787F210A40111C021C0A431A
S1130AE01A707B68DA780C23FB1801210A40900104
S1130AF01A7840218A43111C021C0A431A707B682D
S1130B005A790D23FB1801210A4010011A7810218B
S1130B108A43111C021C0A431A70034BFA689A6137
S1130B20C046BD4604B080BD0008004080B582B018
S1130B3000AF78607B681B7A9B021B041A0C7B68ED
S1130B405B899B059B0D1A432A4B5A607B689A79F3
S1130B507B68DB791343DBB21A007B685B88134341
S1130B607A6892881A437B685B78DB011A43214BCD
S1130B701A607B681B78042B16D17B681B7B9B0651
S1130B801A007B68DB891B0419001B4B0B401343C1
S1130B907A68128A1A43174B9A60164B1B687A6854
S1130BA012781A43134B1A607B681B78202B1CD1D4
S1130BB07B681B7B9B061A007B68DB891B0419007E
S1130BC00D4B0B4013437A68128A1A43094B9A60FF
S1130BD0084B1B687A68127804210A43D2B2134383
S1130BE08022D2001A43034B1A60C046BD4602B0AD
S1130BF080BDC046540000200000FF0380B582B0D1
S1130C0000AF0200FB1D1A70FB1D1B78082B3BD89C
S1130C109A00214BD3181B689F46204B1F4A126A27
S1130C2002210A431A62002331E01C4B1B4A9269D9
S1130C3002210A439A6129E0184A184B1B8A9BB285
S1130C4002210B439BB2138220E0144A134B9B8A6C
S1130C509BB202210B439BB2938217E0104B1B689B
S1130C6002221A430E4B1A600E4B98470EE00B4AB1
S1130C700A494423CB5CDBB202210B43D9B244239F
S1130C80D15403E0002302E0172300E000231800FE
S1130C90BD4602B080BDC046F427000000080040F5
S1130CA054000020A509000080B584B000AF020004
S1130CB0FB1D1A700023FB60FB1D1B78082B21D839
S1130CC09A00184BD3181B689F460823FB601BE04F
S1130CD00423FB6018E00123FB6015E00223FB60A2
S1130CE012E0D023FB600FE00F4A5023D35CDBB249
S1130CF01A0003231340033B5A425341DBB20CE076
S1130D0001230AE0002308E0074BDB68FA681A4075
S1130D10FB68D31A5A425341DBB21800BD4604B0F3
S1130D2080BDC046182800000008004080B582B08D
S1130D3000AF3B0002221A7000237B6009E07B684D
S1130D40DBB23A0011001800054B98477B68013369
S1130D507B607B68172BF2D9C046BD4602B080BDCC
S1130D604D12000080B5A0B000AF8D4BC222D2005E
S1130D709A6001208B4B98478B4B9847884A8B4B42
S1130D801B689B09DBB2191C7F230B40D9B2936902
S1130D907F2001400904864803400B439361742378
S1130DA0FB181800834B98477423FB1807221A700A
S1130DB07423FB1801225A707423FB1801229A70C1
S1130DC07423FB1801221A717423FB180022DA70B1
S1130DD07423FB181800784B98470420774B9847E6
S1130DE06023FB181800764B98476023FB180422F5
S1130DF01A706023FB1800225A706C4B1B689B0E00
S1130E00FB67FB6F3F2B01D11F23FB67FB6FDAB23C
S1130E106023FB181A726023FB1800225A80602397
S1130E20FB180022DA716023FB1800229A716023F8
S1130E30FB1800229A806023FB18B722D2001A8282
S1130E406023FB1807221A736023FB183F22DA8100
S1130E506023FB1818005B4B98475C23FB181800B1
S1130E60594B98475C23FB1800221A705C23FB182B
S1130E7001229A705C23FB1800225A705C23FB1831
S1130E801800524B984706204C4B9847504B9847B4
S1130E904423FB1818004F4B98474423FB180422A3
S1130EA01A704423FB1801225A604423FB180022C1
S1130EB01A724423FB1800225A724423FB181900A7
S1130EC00120454B98470120444B98472C23FB189D
S1130ED01800404B98472C23FB1807221A702C2328
S1130EE0FB1801225A602C23FB1800221A722C23AF
S1130EF0FB1800225A722C23FB1819000320364BCE
S1130F0098470320354B98471023FB181800344B9F
S1130F1098471023FB1801221A701023FB1819009C
S1130F200020304B984700202F4B98470720234B35
S1130F309847C04607202D4B984703001A00012309
S1130F405340DBB2002BF5D10020294B98470021F8
S1130F500020284B984700210120264B9847002168
S1130F600220244B98473B1D18001A4B98473B1D01
S1130F7006221A703B1D01225A603B1D00221A7280
S1130F803B1D00225A723B1D19000020124B98474A
S1130F900020124B9847C046BD4620B080BDC046D5
S1130FA000080040550900002D0D00002460800059
S1130FB0FFFF80FF39080000610A0000FD0B0000FC
S1130FC08F0800002D0B00006D080000E9090000E7
S1130FD09D100000F5070000CD100000F111000085
S1130FE0230800004D12000091120000A90C00001B
S1130FF0E10800000109000080B582B000AF0200E2
S11310003960FB1D1A70FB1D1B78012B0AD0022BC3
S11310100FD0002B14D10E4B0D4A91693A680A4344
S11310209A610FE00A4B0A4AD1693A680A43DA61C5
S113103008E0074B064A116A3A680A431A6201E05B
S1131040172300E000231800BD4602B080BDC0464F
S11310500004004080B500AF024B9847C046BD462F
S113106080BDC046ED00000080B500AF024B98473C
S1131070C046BD4680BDC0464101000080B500AFFA
S1131080054B5B78DBB25BB2002B01DA012300E095
S113109000231800BD4680BD000C004080B500AFA1
S11310A008210020074B9847074B01221A70C046BD
S11310B0054B1B78DBB21A0001231340F8D1C0465C
S11310C0BD4680BDF90F0000000C004080B586B01D
S11310D000AF02003960FB1D1A70FB1D1B787B6199
S11310E0FB1D1B783B613B681B781B021A007B6964
S11310F013437B613B685B78002B04D07B698022BF
S1131100D20213437B613B685B7A002B04D07B697A
S11311108022120313437B613B685B68012B2CD94B
S11311203B685A683B685B68013B13401AD1002353
S1131130FB600223BB6005E0FB680133FB60BB6816
S11311405B00BB603B685A68BB689A42F4D8FB6892
S11311501B023A6913433B617B69802252031343A8
S11311607B610AE03B685B681B023A6913433B619D
S11311707B698022920213437B613B681B7A002BBC
S113118004D07B698022920313437B61C046134BD6
S11311909847031EFBD1124B9847124AFB1D1B783C
S11311A01370C0460D4B9847031EFBD10E4B3A6992
S11311B09A60C046094B9847031EFBD10A4B0A4A62
S11311C051688022520211407A690A435A60074BDF
S11311D09847C046BD4606B080BDC0467D1000009D
S11311E055100000080C0040000C0040691000007D
S11311F080B582B000AF0200FB1D1A70C0460E4BD2
S11312009847031EFBD10D4B98470D4AFB1D1B78D5
S11312101370C046084B9847031EFBD1094B094A7B
S11312205268802149020A435A60074B9847C046D6
S1131230BD4602B080BDC0467D10000055100000C0
S1131240040C0040000C00406910000080B584B01C
S113125000AF02003960FB1D1A70FB1D1B78FB6098
S11312603B681B781B021A00FB681343FB60FB1DE1
S11312701B781800044B9847044BFA6892B25A80C2
S1131280C046BD4604B080BDD9120000000C004029
S113129080B582B000AF0200FB1D1A700A4B98475C
S11312A00A4AFB1D1B7813700949094B5B889BB2E2
S11312B08022D20113439BB24B80064B9847C04611
S11312C0BD4602B080BDC04655100000020C00406F
S11312D0000C00406910000080B584B000AF02002B
S11312E0FB1D1A701C4B98471C4AFB1D1B7813707E
S11312F01B4B5B881B051B0FDBB2FB60184A538832
S113130018490B405380164A154B5B889BB216490B
S11313100B409BB25380C046114B5B889BB21A00B2
S11313208023DB011340F7D10D4AFB68DBB2191CA3
S11313300F230B40D9B25388081C0F210140080227
S113134008490B40191C031C0B435380074B984757
S1131350C046BD4604B080BD55100000020C0040DC
S1131360000C0040FFF0FFFFFFBFFFFF691000000B
S113137080B584B000AF0200FB1D1A700F23FB1868
S1131380FA1D1278D2091A700E23FB18FA1D12786E
S113139052091A700D4BBB600F23FB181B78002BEE
S11313A00FD10F23FB181B789B0010229446BC44DA
S11313B06344083B1A680E23FB181B78DB01D3181F
S11313C000E000231800BD4604B080BD0044004185
S11313D080B588B000AFF860B9607A600023FB6123
S11313E07B68DB7801225340DBB2002B35D07B686D
S11313F01B78802B0BD0FB69802252021343FB61C4
S11314007B681B781B061A00FB691343FB617B682E
S11314105B78002B03D07B685B78022B10D1FB69CF
S1131420802292021343FB617B689B78002B04D0DB
S1131430FB698022D2021343FB61FB68BA685A60DD
S11314407B685B78012B03D07B685B78022B07D128
S1131450FB69224A1340FB6102E0FB68BA685A60E8
S1131460BB681B041B0CBB61BB681B0C7B61BA69AA
S1131470FB691343A022D2051A43FB689A627A6976
S1131480FB691343D02212061A43FB689A627B68F5
S1131490DB7801225340DBB2002B1AD0FA69802397
S11314A0DB0213400AD07B689B78012B03D1FB68D5
S11314B0BA689A6102E0FB68BA685A617B685B7833
S11314C0012B03D07B685B78022B02D1FB68BA68DE
S11314D09A60C046BD4608B080BDC046FFFFFBFF12
S11314E080B584B000AF02003960FB1D1A70FB1D8B
S11314F01B7818000A4B98470300FB60FB1D1B7800
S11315001F22134001229A401300BB603A68B96855
S1131510FB681800034B9847C046BD4604B080BD25
S113152071130000D113000080B500AFC046BD4662
S113153080BD000080B500AF064B9847064B984726
S1131540064B9847064B9847064B9847C046BD46FE
S113155080BDC046650D00007D02000091030000BF
S1131560E10500002915000080B500AF0020024B02
S11315709847C046BD4680BD7D15000080B586B045
S113158000AF0200FB1D1A70FB1D1A78184B920065
S1131590D3583B613B691B68DA6A3B695B6B1A4051
S11315A03B699B6B1340FB6000237B6119E0114B8B
S11315B07A699200D358FA6813400FD03A697B696C
S11315C09B00D31804331B683A69100098473B69A1
S11315D01B68084A796989008A58DA627B69013391
S11315E07B617B690B2BE2DDC046BD4606B080BD46
S11315F0D40000203C28000080B584B000AFF8601F
S1131600B960FB1D1A70FB1D1A78FB680232920048
S1131610B968D150FB1D1B78022B07D1FB681B7ED8
S113162010221343DAB2FB681A7619E0FB1D1B780B
S1131630032B07D1FB681B7E20221343DAB2FB681D
S11316401A760DE0FB681B7E5AB2FB1D1B78012144
S113165099400B005BB213435BB2DAB2FB681A76B3
S113166000231800BD4604B080BD000080B500AF63
S11316700020024B9847C046BD4680BD9516000029
S113168080B500AF0120024B9847C046BD4680BDDF
S11316909516000080B584B000AF0200FB1D1A70DF
S11316A0FB1D1A78284B9200D358FB60FB681B681B
S11316B09B7BDBB2FA68127E1340DAB2FB68597E78
S11316C00B23FB180A401A700B23FB181B7801220A
S11316D0134008D0FB689B68FA6810009847FB68C1
S11316E01B6801229A730B23FB181B7802221340F8
S11316F008D0FB68DB68FA6810009847FB681B6831
S113170002229A730B23FB181B781022134008D073
S1131710FB681B69FA6810009847FB681B68102275
S11317209A730B23FB181B782022134008D0FB6804
S11317305B69FA6810009847FB681B6820229A735B
S1131740C046BD4604B080BDD800002080B582B03C
S113175000AF78607B6800221A70C046BD4602B0B4
S113176080BD000080B582B000AF02003960FB1D6F
S11317701A70FB1D1B78012B0AD0022B0FD0002BF3
S113178014D10E4B0D4A91693A680A439A610FE0ED
S11317900A4B0A4AD1693A680A43DA6108E0074BFE
S11317A0064A116A3A680A431A6201E0172300E004
S11317B000231800BD4602B080BDC04600040040AE
S11317C080B582B000AF78607B6880221A707B6835
S11317D000225A707B6801229A707B680022DA70BA
S11317E0C046BD4602B080BD80B584B000AF78600D
S11317F07B681B68FB60FB68DB7BDBB21A00802321
S113180013405A1E9341DBB21800BD4604B080BD9C
S113181080B586B000AF78600C23FB180D4A03CA6C
S113182003C300237B610DE00C23FB187A6992004B
S1131830D2587B689A4202D17B69DBB206E07B69AD
S113184001337B617B69012BEED900231800BD466F
S113185006B080BD6C28000090B58BB000AFF86076
S1131860B9607A602623FB1800221A802523FB180E
S113187000221A702423FB1800221A702123FC185A
S1131880BB681800D44B9847030023701C23FB1833
S1131890D24A12881A801823FB18D14A12681A6097
S11318A02323FB1800221A700EE02323FB181A7856
S11318B0FB68023292000021D1502323FB181A78CE
S11318C02323FB1801321A702323FB181B78032BE4
S11318D0EBD9FB6800221A76FB6800225A76212392
S11318E0FB181A78BF4B9200F968D150FB68BA68AC
S11318F01A607B689B78082B08D12123FB181B787E
S113190001330122134001D11723C2E17B689A7885
S1131910FB681A71BB681B889BB21A000123134031
S113192001D00523B5E1BB68DB7BDBB21A001023D1
S1131930134001D01C23ACE1BB681B889BB21A0086
S11319400223134001D01C23A3E17B681B7C002BE2
S113195017D01423FB181800A34B98477B689B6986
S1131960DAB21423FB181A701423FB1801225A70DC
S11319707B685B69DBB21422BA18110018009B4B18
S113198098477B681B7F002B17D01423FB18180083
S1131990954B98477B685B6ADAB21423FB181A707C
S11319A01423FB1801225A707B681B6ADBB21422D1
S11319B0BA18110018008D4B98472123FB181A7888
S11319C01823FB185200D35A19000220884B984759
S11319D07B689B78082B0BD12123FB181B785A1C9E
S11319E01823FB185200D35A19000220804B984741
S11319F01023FB1818007F4B98477B681A78102334
S1131A00FB181A702123FB181B781C22BA18D35C0C
S1131A101022BA1811001800774B98472123FB189D
S1131A201B781C22BA18D35C1800744B98477B6847
S1131A309A787B689B791343DBB29AB27B681B89E3
S1131A40134399B27B689A882623FB180A431A80A9
S1131A507B685B78002B08D02623FB182622BA1853
S1131A601288802109010A431A80C046FB681800C5
S1131A70634B9847031EF9D1BB682622BA18128813
S1131A801A807B685B7B002B03D02523FB18042280
S1131A901A707B689B7B002B07D02523FB1825221B
S1131AA0BA18127801210A431A70C046FB6818005C
S1131AB0534B9847031EF9D1BB68FF221A712523A3
S1131AC0FB181B78002B0BD0C046FB6818004C4B4E
S1131AD09847031EF9D1BB682522BA1812785A71A7
S1131AE02423FB187A68927A1A702223FB180022A6
S1131AF01A701CE02223FB181B787A68D318DB7A4F
S1131B00002B0DD02223FB181B7810229A401300BF
S1131B10D9B22423FB182422BA1812780A431A7063
S1131B202223FB181A782223FB1801321A7022236D
S1131B30FB181B78012BDDD9C046FB681800304B1D
S1131B409847031EF9D1BB682422BA1812789A71F7
S1131B50C046FB6818002A4B9847031EF9D1FB685E
S1131B601B79042B05D0082B00D16EE0002B49D043
S1131B708EE0C046FB681800214B9847031EF9D13C
S1131B807B6828229A5CBB681A74C046FB681800FC
S1131B901B4B9847031EF9D17B6829229A5CBB68CA
S1131BA01A75C046FB681800154B9847031EF9D1F7
S1131BB07B682A229A5CBB681A76C046FB681800C8
S1131BC00F4B9847031EF9D17B682B229A5CBB68A4
S1131BD05A7600235DE0C046111800007428000006
S1131BE078280000D8000020C1170000E11400008C
S1131BF0651700004D1700004D12000091120000FF
S1131C00E9170000C046FB681800244B9847031EE0
S1131C10F9D17B681A8DBB681A82C046FB6818002C
S1131C201E4B9847031EF9D17B685A8DBB681A83F3
S1131C30C046FB681800194B9847031EF9D17B680E
S1131C409A8DBB685A83002323E0C046FB681800C2
S1131C50124B9847031EF9D17B689A6ABB681A61D4
S1131C60C046FB6818000D4B9847031EF9D17B68EA
S1131C70DA6ABB689A61C046FB681800074B98474C
S1131C80031EF9D17B681A6BBB68DA61002300E09C
S1131C9017231800BD460BB090BDC046E9170000DD
S1131CA080B586B000AFF8607A600B23FB180A1C7D
S1131CB01A70FB681B687B61C046FB681800204BE8
S1131CC09847031EF9D1FB681B79042B04D0082B19
S1131CD022D0002B10D02EE00B23FB181B78012BF5
S1131CE00AD80B23FB181B787A68D1B27A69D31807
S1131CF00A1C1A7600231FE00B23FB181B78012B08
S1131D000AD80B23FB181A787B6899B27B690C32CA
S1131D105200D15200230FE00B23FB181B78012B38
S1131D2009D80B23FB181A787B690632920079686C
S1131D30D150002300E017231800BD4606B080BD33
S1131D40E917000080B582B000AF2F4B7B602F4BAA
S1131D503B607A683B689A420CD007E03B681A1DE6
S1131D603A607A68111D796012681A603A68284BE3
S1131D709A42F3D3274B3B6004E03B681A1D3A6058
S1131D8000221A603A68244B9A42F6D3234B7B60B4
S1131D90234B7A68FF218A439A60224A90235B008E
S1131DA00221D150204AD37803218B43191C0223EA
S1131DB00B43D3701C4AD3780C218B43191C082382
S1131DC00B43D370194A937B30218B43191C202376
S1131DD00B439373154A937B0C218B43191C0823E3
S1131DE00B439373114A937B03218B43191C0223E6
S1131DF00B4393730E4A536880210B4353600D4B7E
S1131E0098470D4B9847FEE79C28000000000020EF
S1131E1024000020240000201801002000000000FD
S1131E2000ED00E000700041005000410048004116
S1131E3000400041AD2700008D27000080B500AFB1
S1131E40FEE7000080B584B000AF0200FB1D1A70ED
S1131E500F23FB18FA1D1278D2091A700E23FB18EF
S1131E60FA1D127852091A700D4BBB600F23FB1830
S1131E701B78002B0FD10F23FB181B789B0010221B
S1131E809446BC446344083B1A680E23FB181B7831
S1131E90DB01D31800E000231800BD4604B080BD68
S1131EA00044004180B582B000AF0200FB1D1A70EF
S1131EB0FB1D1B781800034B984703001800BD4610
S1131EC002B080BD451E000080B582B000AF7860CE
S1131ED07B6800221A707B6801225A707B6800229A
S1131EE09A70C046BD4602B080BD000080B584B083
S1131EF000AF0200FB1D1A70FB1D1B7818000B4B72
S1131F0098470300FB60FB1D1B781F22134001222E
S1131F109A401300BB60FB681B6ABA6813405A1EE0
S1131F209341DBB21800BD4604B080BDA51E00007D
S1131F3080B584B000AF0200FB1D1A70BB1D0A1CE3
S1131F401A70FB1D1B7818000D4B98470300FB60AB
S1131F50FB1D1B781F22134001229A401300BB6013
S1131F60BB1D1B78002B03D0FB68BA689A6102E0A2
S1131F70FB68BA685A61C046BD4604B080BDC0461D
S1131F80A51E000080B500AF044B01221A70BFF3F8
S1131F905F8F62B6C046BD4680BDC04600000020CB
S1131FA080B582B000AF0200FB1D1A70064BFA1D0B
S1131FB0127811001F220A40012191400A001A6080
S1131FC0C046BD4602B080BD00E100E080B584B0EB
S1131FD000AF78607B681B68FB60FB68DB7BDBB26F
S1131FE01A00802313405A1E9341DBB21800BD46E9
S1131FF004B080BD80B582B000AF78607B680022F9
S11320001A707B6800229A707B6800229A807B6831
S113201000229A717B6800221A817B6800225A7020
S11320207B6800229A727B680022DA727B68002245
S11320301A737B6800229A737B6800225A737B6848
S113204000221A747B6800225A617B6800229A611C
S11320507B6800221A777B6800221A627B68002260
S11320605A627B6800221A857B6800225A857B6845
S113207000229A85C046BD4602B080BD80B584B0BA
S113208000AF78607B681B68FB60C0467B68180003
S1132090074B9847031EF9D1FB681B889BB20222A9
S11320A013439AB2FB681A80C046BD4604B080BD93
S11320B0CD1F000080B584B000AF78607B681B68DA
S11320C0FB60C0467B6818000A4B9847031EF9D191
S11320D0FB683B221A73FB683B229A73FB681B88DC
S11320E09BB2022293439AB2FB681A80C046BD4653
S11320F004B080BDCD1F000080B582B000AF786011
S1132100044A7B68D3181B785BB21800BD4602B042
S113211080BDC0462000002080B582B000AF78604A
S11321200A00FB1C1A707B681B681800224B984736
S113213003001800214B984703001800204B9847D0
S1132140FB1C1B78022B0BD17B685B7E1022134394
S1132150DAB27B685A767B681B6810225A7326E0D1
S1132160FB1C1B78032B0BD17B685B7E2022134363
S1132170DAB27B685A767B681B6820225A7316E0B1
S11321807B685B7E5AB2FB1C1B78012199400B00D3
S11321905BB213435BB2DAB27B685A767B681B6826
S11321A0FA1C1278012191400A00D2B25A73C04637
S11321B0BD4602B080BDC04611180000F9200000E1
S11321C0A11F000080B582B000AF3B1D18000E4B6C
S11321D098473B1D00221A703B1D02225A703B1D7A
S11321E019001B20094B98473B1D01221A703B1D07
S11321F002225A703B1D19000620044B9847C04622
S1132200BD4602B080BDC046C91E00004D07000097
S113221080B582B000AF7860224B1B685A1C214BFA
S11322201A60204B1B68092B0ADD1F4B1B685A1CC4
S11322301D4B1A601B4B00221A601C4B01221A70A2
S1132240194B1B68042B0ADD194B1B685A1C184BCD
S11322501A60154B00221A60164B01221A70144B97
S11322601B68012B0ADD144B1B685A1C124B1A60A5
S11322700F4B00221A60114B01221A700E4B1B687F
S1132280012B0ADD0E4B1B685A1C0D4B1A600A4BBE
S113229000221A600B4B01221A70C046BD4602B0E0
S11322A080BDC0467C000020800000207400002017
S11322B084000020750000208800002076000020A3
S11322C08C0000207700002080B58EB000AF3B1D4D
S11322D01800134B98473B1D00221A703B1D042223
S11322E09A703B1DA022D2009A803B1D29226F21A7
S11322F099543B1D01221A743B1D0F225A613B1D48
S113230004229A613A1D0749074B1800074B984766
S1132310054B1800064B9847C046BD460EB080BD1D
S1132320F51F000000180042E000002059180000CA
S11323307D20000080B500AF0649074B002218003D
S1132340064B9847044B00211800054B9847C0469C
S1132350BD4680BD11220000E0000020F9150000F8
S11323601921000080B58EB000AF3B1D1800174B3B
S113237098473B1D00221A703B1D04229A703B1D96
S1132380A022D2009A803B1D2822002199543B1D93
S11323902922552199543B1D2A22152199543B1D6C
S11323A040229A713B1D0A225A613B1D04229A6104
S11323B03B1D01221A743A1D0549064B1800064BB1
S11323C09847C046BD460EB080BDC046F51F00000C
S11323D0001C0042FC0000205918000080B500AF2A
S11323E00E201F4B984703001A0001235340DBB211
S11323F0002B0DD01B4B01221A701B4B1B685A1E5D
S1132400194B1A60194B1B685A1E184B1A6009E0C5
S1132410144B00221A70144B02221A60134BC82268
S113242052001A60114B1B68002B05DC104B012273
S11324301A700E4B00221A600B4B1B68002B07DC32
S11324400C4B00221A70084B00221A60012303E08F
S1132450084B01221A7000231800BD4680BDC046F7
S1132460ED1E00006D000020180000201C0000205C
S1132470780000206E00002080B500AF0C4B0022D5
S11324801A700C4B00221A700B4B152200211800F5
S11324900A4B98470A4B00221A70074B1800094B45
S11324A0984700210620084B9847C046BD4680BD8A
S11324B0730000206C000020FC000020A11C000020
S11324C06F000020B5200000311F000080B500AF70
S11324D01E4B9847031E2FD01D4B1B78002B06D094
S11324E0002110201B4B98471B4B984724E01B4BA3
S11324F01B7801225340DBB2002B1DD0184B1B78F4
S11325000133DAB2164B1A70144B01221A70154BB0
S11325101B7801225340DBB2002B0BD0114B01225C
S11325201A70114B1800114B984701210620094BD2
S1132530984701E00E4B98470E4B1B78002B02D0B6
S1132540064B00221A70C046BD4680BDDD23000044
S113255078000020311F0000792400009000002042
S11325606C0000206F000020FC0000207D20000093
S1132570792500006E00002080B500AF184B1B7851
S1132580002B29D0174B1B78022B06D1164B222285
S113259000211800154B98471EE0124B1B78032BA3
S11325A006D1114B4D2200211800104B984713E01F
S11325B00C4B1B78042B09D10D4B01221A700A4BCA
S11325C04D2200211800094B984705E0054B1B7864
S11325D0042B01D9074B9847C046BD4680BDC04671
S11325E06F0000206C000020FC000020A11C0000F3
S11325F0730000207924000080B500AF1B20044B39
S1132600984703001A00034B1A70C046BD4680BDAC
S1132610ED1E00007000002080B500AFC046BD462E
S113262080BD80B500AFC046BD4680BD80B500AF5B
S1132630C046BD4680BD000080B500AF104B1B787E
S1132640002B1AD00F4B1B78002B0BD00021062037
S11326500D4B9847012110200B4B9847094B002242
S11326601A700AE0074B01221A7001210620064B5A
S1132670984700211020044B9847C046BD4680BDB2
S11326807300002091000020311F000080B500AFCE
S1132690044B9847044B9847044B9847C046BD46A3
S11326A080BDC046F925000019260000232600003D
S11326B080B500AF174B1B7801225340DBB2002BCF
S11326C001D0154B9847134B1B78002B01D0134BAB
S11326D09847134B1B78002B01D0104B9847114B94
S11326E01B78002B01D00D4B98470F4B1B78002B08
S11326F004D00D4B00221A700C4B98470C4B1B78DE
S1132700002B04D00A4B00221A700A4B9847C0468B
S1132710BD4680BD70000020652300002D2600000A
S1132720710000207200002074000020CD240000FD
S1132730770000203926000080B500AF0021062074
S1132740024B9847C046BD4680BDC046311F0000BD
S113275080B500AF074B9847074B9847074B9847FE
S1132760074B9847074B9847074B9847C046BD46C9
S113277080BDC04635150000851F0000C52100003E
S113278039270000C92200003523000080B500AFBE
S1132790034B9847034B9847034B9847FAE7C046C7
S11327A0512700008D260000B126000070B50026D8
S11327B00C4D0D4C641BA410A64209D1002600F058
S11327C05DF80A4D0A4C641BA410A64205D170BDE5
S11327D0B300EB5898470136EEE7B300EB5898473F
S11327E00136F2E7882800008828000088280000C5
S11327F08C280000380C0000880C0000880C0000B5
S1132800840C00002A0C00004A0C00001A0C000082
S11328105C0C00006E0C0000D60C0000040D0000DF
S1132820040D0000000D0000D00C0000DC0C0000C2
S1132830CA0C0000E20C0000E80C000001000000DB
S11328400200000004000000080000000010000066
S11328500020000000400000008000000000010093
S113286000000200000004000000080000180042FC
S1132870001C00421212000040008000F8B5C0465F
S1132880F8BC08BC9E467047B5000000F8B5C046C9
S10F2890F8BC08BC9E4670478D00000098
S113289C0100000000000000060000000000000021
S11328AC0000000000000000020000009001000085
S10728BC0D0E0000F9
S9031D459A
