:1000000010050020E10D0000DF0D0000DF0D0000F5
:1000100000000000000000000000000000000000E0
:10002000000000000000000000000000DF0D0000E4
:100030000000000000000000DF0D0000DF0D0000E8
:10004000DF0D0000DF0D0000DF0D0000DF0D000000
:10005000F5010000DF0D0000DF0D0000DF0D0000E6
:100060009501000035030000450300005503000022
:100070004D0A0000F50A0000050B0000DF0D00002E
:10008000DF0D0000DF0D0000DF0D000010B5064C95
:100090002378002B07D1054B002B02D0044800E049
:1000A00000BF0123237010BD1C00002000000000D1
:1000B00074140000084B10B5002B03D00749084802
:1000C00000E000BF07480368002B00D110BD064BBD
:1000D000002BFBD09847F9E700000000200000202B
:1000E0007414000074140000000000000C4B1B6826
:1000F000002B06D1EFF31083002B07D00022094B11
:100100001A70074A136801331360704772B6BFF361
:100110005F8F0022044B1A700132024B1A70F0E715
:10012000380000203C00002000000020084B1A6826
:10013000013A1A601B68002B09D1064B1B78002B73
:1001400005D00122044B1A70BFF35F8F62B670476F
:10015000380000203C00002000000020F0B583B0F3
:1001600001AC012565700027A770257021001020C3
:10017000064EB04780225202054B9A612770657087
:1001800021000E20B04703B0F0BDC04611030000AF
:100190000044004110B50B4B1C690B498A699868F3
:1001A00002439A60094B8B6103E0206863689847BB
:1001B000A468002CF9D1034BD9689A688A439A60E5
:1001C00010BDC0460400002000040042FFFF0F0FD6
:1001D000064A136A02210B4313620122044B1A7070
:1001E000034B1B78DB07FBD47047C046000400407C
:1001F0000004004210B500220F4B1A7005E00F48B2
:100200000AE00D4A1378013313700B4B1B780F2B48
:1002100011D81F2BF3D900201F21194001228A4039
:1002200001691142EDD002619B00054A9B58002BE9
:10023000E7D09847E5E710BD810000200018004096
:10024000840000200022002A06D00023002B0BD0BF
:100250000023002BF9D1704708490B780220034393
:10026000DBB20B700132EEE7044A527852B2002A38
:1002700001DB0133EAE70123EBE7C0460018004049
:1002800000B583B01B4A936940210B43936101A9D8
:1002900001230B700520184B98470520174B9847F2
:1002A0000022002A06D00023002B0BD00023002BB5
:1002B000F9D116E012490B7801200343DBB20B7031
:1002C0000132EEE70E4A527852B2002A01DB0133C6
:1002D000EAE70123EBE7990000200A4A885001333E
:1002E000DBB20F2BF7D91022074B1A60074B984748
:1002F00003B000BD00040040FD08000075080000C8
:10030000001800408400002000E100E045020000E9
:1003100000B583B001AB80221A700A785A704A780F
:100320009A708A78DA701900014B984703B000BDC3
:10033000AD09000010B5024B1B680020984710BDA6
:100340004000002010B5024B5B680120984710BDAB
:100350004000002010B5024B9B680220984710BD5A
:100360004000002010B582B0022201AB1A700024B8
:1003700004E0E0B201A9034B98470134172CF8D9E7
:1003800002B010BDFD08000070B50C4D2E6A027859
:1003900003210A4012020A493140114382780124A4
:1003A0002240D201802399430A43437823409B0192
:1003B00040218A4313432B6270BDC04600080040B1
:1003C000FFFCFFFFF0B5154FBE69427801231A40CC
:1003D000D20008218E43324385781D40AD00043998
:1003E0008A431543017807240C4024020C490D4030
:1003F0002C4301791940C901802294432143C278DA
:100400001A4092014024A1430A4341790B401B0347
:1004100004490A401343BB61F0BDC04600080040D8
:10042000FFF8FFFFFFEFFFFF10B5037A9B061B0CE1
:1004300042899205920D13431C494B608379C2791E
:10044000134342881343828813434278D2011343F3
:100450000B600378042B03D00378202B10D010BD41
:10046000037B9B06C289120411490A401343028A86
:1004700013430E4A9360136801780B431360EBE754
:10048000037B9B06C289120409490A401343028A6E
:10049000134306498B600C68027804231A43D2B2D6
:1004A00014438023DB0023430B60D8E74C0000207B
:1004B0000000FF0308284AD88000264B1B589F469F
:1004C00000207047244A136A02210B431362002064
:1004D000F7E7214A936902210B4393610020F0E77B
:1004E0001D4A138A02210B439BB213820020E8E7C6
:1004F000194A938A02210B439BB293820020E0E7C2
:1005000016490B68022213430B60134B9A84124B5B
:10051000DB68DB06FBD5114A91680F4BD962526844
:100520009A6200229A840C4BDB68DB06FBD50B4BEE
:100530001B689BB2084A93840020C2E70649442204
:100540008B5C02200343DBB28B540020B9E71720F9
:10055000B7E7C046B8130000000800404C00002078
:1005600008281FD88000104B1B589F46012018E018
:10057000012010E002200EE0D0200CE050230B4AB6
:10058000D05C4D3B1840033843425841C0B208E0AC
:10059000082000E00420054BDB68984343425841A3
:1005A000C0B270470020FCE7DC13000000080040E8
:1005B000F0B5D6464F464646C0B58CB04A4CC2232D
:1005C000DB00A36049494A681E239A431C3B13433E
:1005D0004B60474B9847474D2B689909A2697F2389
:1005E0000B401B0444490A401343A3610AA801239A
:1005F000437083700024C470037106330370447128
:100600003E4B984704203E4B984705AB00225C8048
:100610009C809A71DA713F2159813B3919705A7067
:100620002B689B0E3F2B5CD005A80372B723DB0021
:1006300003820723994603733F23C381314B9847B5
:1006400004A8002545700126867005702E4B98473A
:1006500006202B4FB8472D4B984701AC029665708A
:10066000257265720423237021000120284B9A46CD
:1006700098470120274B9846984766606570257219
:1006800065724B46237021000320D0470320C047EA
:10069000267021000020204B984700201F4B9847D0
:1006A0000720B84707201E4B98470028FAD01D4A5C
:1006B0000023137253729372D37201A901224A600C
:1006C0004B7005320A700B724B720020104B98472A
:1006D0000020104B98470CB01CBC90469946A2468F
:1006E000F0BD203BA0E7C0460008004000400041AC
:1006F0006503000024608000FFFF80FFC503000049
:10070000B504000029040000890300002907000047
:100710004D0700001D080000FD08000075080000DE
:100720006105000000040040064A936908210B435C
:1007300093610122044B1A70034B1B78DB07FBD437
:100740007047C04600040040000C0040F8B50600A9
:1007500005000C78240204434B78002B02D0802340
:10076000DB021C434B7A002B02D080231B031C436B
:100770004868012812D9431E03423DD00502354383
:1007800080239B021C4309E001325B008342FBD3C0
:1007900012023243150080235B031C430B7A002BAB
:1007A00002D080239B031C43184B5B785BB2002B69
:1007B00025DB0027002FF7D1154B9847154B1E70EE
:1007C000124B5B785BB2002B1BDB3A00002AF7D19F
:1007D0000E4B9D600D4B5B785BB2002B13DB13005F
:1007E000002BF7D1094A5368802149020B401C4372
:1007F0005460094B9847F8BD02230022C6E7012741
:10080000D8E70122E2E70123EAE7C046000C0040F6
:10081000ED000000080C00402D01000070B505003F
:10082000104B5B785BB2002B17DB0024002CF7D158
:100830000D4B98470D4B1D700A4B5B785BB2002B3C
:100840000DDB2300002BF7D1064A516880235B02A1
:100850000B435360064B984770BD0124E6E7012324
:10086000F0E7C046000C0040ED000000040C004022
:100870002D01000010B50400064B9847064B1C7074
:10088000064A53888021C9010B435380044B984783
:1008900010BDC046ED000000020C0040000C0040FE
:1008A0002D01000010B504000E4B98470E4B1C7034
:1008B0000E494B881B051A0F4B880D4803404B808F
:1008C0004B880C4803404B80084B5B885B04FBD48F
:1008D000064841881302064A0A4013434380064BE8
:1008E000984710BDED000000020C0040000C0040D5
:1008F000FFF0FFFFFFBFFFFF2D01000010B50C78D8
:1009000024020443024B9847A4B2024B5C8010BD02
:10091000A5080000000C004070B5D378002B20D152
:100920001578802D1BD02D0680235B021D43537844
:10093000002B01D0022B0AD180239B022B439478F9
:10094000002C02D0C023DB022B4341601D005378F2
:10095000013BDBB2012B06D8134B1D4003E0002501
:10096000E5E7416000250C04240C0B0C2C43A02669
:10097000F605344384622B43D02424062343836248
:10098000D378002B0AD16B0303D59378012B06D0C3
:1009900041615378013BDBB2012B02D970BD81610B
:1009A000F7E78160FAE7C046FFFFFBFF10B50A00DA
:1009B000C109430900290BD1DB0106498C46634478
:1009C0001F242040012181401800034B984710BD8F
:1009D0000023F5E7004400411909000070470000BA
:1009E00010B5054B9847054B9847054B9847054B65
:1009F0009847054B984710BDB10500005D01000008
:100A0000D101000081020000DD090000F8B580007E
:100A10000C4BC7583B68DE6A7B6B1E40BB6B1E40AD
:100A2000002400E001340B2C0BDCA300064A9D5887
:100A30003542F7D0FB185B68380098473B68DD62A9
:100A4000F0E7F8BDC40000200014000010B500203D
:100A5000014B984710BDC0460D0A0000931C9B0037
:100A60001950022A09D0032A0CD0012393401A00FE
:100A7000037E1343037600207047037E1022134346
:100A80000376F8E7037E202213430376F3E70000A2
:100A900070B58000164BC5582B689C7B2A7E6B7EF8
:100AA00014401C40E30706D4A3070BD4E30610D47C
:100AB000A30615D470BD2800AB68984701232A68A7
:100AC0009373F1E72800EB68984702232A68937331
:100AD000ECE728002B69984710232A689373E7E70F
:100AE00028006B6998472B6820229A73E2E7C0467A
:100AF000C800002010B50020014B984710BDC0462B
:100B0000910A000010B50120014B984710BDC04666
:100B1000910A000010B582B06A46094B12CB12C28E
:100B20000023012B08D89A0069465258824201D00E
:100B30000133F6E7D8B200E0002002B010BDC04695
:100B400030140000F0B585B004000D001600080058
:100B5000884B98470700884B198903AA1180DB68E6
:100B60000293002305E09A1C9200002111510133E9
:100B7000DBB2032BF7D9002323766376BB007F4AD1
:100B80009C502560B378082B06D023712B88DB0797
:100B900006D5052005B0F0BDFA07F6D51720F9E710
:100BA000EB7BDB0601D51C20F4E72B889B0701D5E6
:100BB0001C20EFE7337C002B47D1337F002B50D133
:100BC0007B0002AA9B5A6E4A116A0B431362B378E8
:100BD000082B56D033786A46137003ABDF5D694645
:100BE0003800684B98473800674B9847B378B1791D
:100BF00032890B431A43B3881A437378002B02D00F
:100C000080231B011A432368DB7B5BB2002BFADBDA
:100C10002A80737B002B3DD10022B37B002B02D0B6
:100C200001231A43D2B22368DB7B5BB2002BFADBD1
:100C3000FF232B71002A05D02368DB7B5BB2002BDE
:100C4000FADB6A71B27A002328E001A901238B70D4
:100C50000022CA70327E0A704B70307D4B4B984731
:100C6000ABE701A901238B700022CA702432B218AD
:100C700012780A704B701F33F3181878434B98475B
:100C80009EE77B1C5B0002AA9B5A3D4A116A0B43FC
:100C900013629FE70422C0E70133DBB2012B08D8BF
:100CA000F118C97A0029F7D0102199400A43D2B22D
:100CB000F2E72368DB7B5BB2002BFADBAA712268C8
:100CC000D37B5BB2002BFADB2379042B05D0082BF6
:100CD0003AD0002B22D017205CE7D37B5BB2002BED
:100CE000FBDB2823F35C2B742368DB7B5BB2002BDC
:100CF000FADB2923F35C2B752368DB7B5BB2002BCB
:100D0000FADB2A23F35C2B762368DB7B5BB2002BB8
:100D1000FADB2B23F35C6B7600203BE7D37B5BB2E3
:100D2000002BFBDB338D2B822368DB7B5BB2002B3C
:100D3000FADB738D2B832368DB7B5BB2002BFADB42
:100D4000B38D6B83002025E7D37B5BB2002BFBDBED
:100D5000B36A2B612368DB7B5BB2002BFADBF36A9F
:100D6000AB612368DB7B5BB2002BFADB336BEB619F
:100D700000200FE7150B000030140000C800002011
:100D800000040040FD08000075080000AD090000E7
:100D900010B50468E37B5BB2002BFBDB0379042B0B
:100DA00005D0082B07D0002B03D0172006E001291F
:100DB00005D9012908D901290CD9172010BDD2B2B3
:100DC000641822760020F9E792B20C3149000A53E8
:100DD0000020F3E7063189000A510020EEE7FEE724
:100DE000F8B5234A234B9A4209D0224B204A03E00C
:100DF00011681960043304321F498B42F8D31F4B2A
:100E000002E000221A6004331D4A9342F9D31D4ABE
:100E1000FF211D4B8B439360FD3990235B001B4AE0
:100E2000D1501B4AD3780325AB4302242343D3700C
:100E3000D3780C27BB4308263343D370154B987BDC
:100E400030229043202210439873997BB943314359
:100E500099739A7BAA4322439A730F4A516880235D
:100E60000B4353600D4B98470D4B9847FEE7C04628
:100E700074140000000000201C0000201C00002052
:100E80001001002000ED00E00000000000700041B3
:100E90000050004100480041004000415D13000047
:100EA00041130000014B18567047C0465014000013
:100EB000134A1368013313600A2B09DD114A1368C2
:100EC0000133136000220E4B1A6001320E4B1A7070
:100ED0000C4B1B68052B06DD0C4A136801331360AD
:100EE0000022084B1A60094B1B68022B06DD084ADA
:100EF0001368013313600022044B1A607047C04628
:100F00007800002074000020670000207C00002092
:100F10007000002000B58FB001AA002300211370DB
:100F20001381002050709172D172117391735173BB
:100F3000117713625362138553859385043393703D
:100F4000A021C900918055202921505440380131F9
:100F5000505416319171363951619361033B1374CA
:100F600002490348034B98470FB000BD001C0042E4
:100F7000F4000020450B000000B583B001A9002358
:100F80000B708B7002334B701B20024B984703B0E1
:100F900000BDC0461103000010B58EB001AA0023A9
:100FA0000021137093711381002050709172D172DF
:100FB00011739173517311745361936111771362BB
:100FC000536213855385938504339370A023DB000C
:100FD00093807C212923D154084C09492000094BD6
:100FE00098472268D37B5BB2002BFBDB138802217E
:100FF0000B439BB213800EB010BDC046D40000203E
:1010000000180042450B000010B50C4C00220C49A2
:1010100020000C4B984720680B4B98470B4B984788
:101020001F231840012211008140094B1960637E83
:1010300001210B43637623685A7310BDD40000204E
:10104000B10E00005D0A0000150B0000A50E0000A7
:1010500000E100E0114B1B6A5B0413D4104A1388B3
:101060000133138001220F4B1A700F4A1368013BA2
:1010700013600D4B1B68002B0BDD01220B4B1A700C
:10108000002070470022074B1A700532064B1A6089
:10109000EFE70022054B1A700120F2E700440041FF
:1010A0006800002064000020180000206500002077
:1010B000034B1B88C72B02D90122024B1A707047C1
:1010C000680000206A00002010B5184B1B78002B28
:1010D00009D0174A13780133DBB21370022B03D007
:1010E000032B07D00CD810BD222200211148124B2F
:1010F0009847F8E74D2200210E480F4B9847F2E73A
:1011000000220B4B1A700B4C1532002120000A4BA9
:1011100098472268D37B5BB2002BFBDB3B23137326
:101120009373138802218B431380DCE76600002051
:1011300080000020F4000020910D000010B5284B25
:101140009847284B1B7801225340DBB2002819D066
:10115000002B17D0244B1B88C72B13D80122214BFF
:101160001A70224B1B78002B2DD1204B1A70204B6C
:101170001A68D37B5BB2002BFBDB138802210B4385
:101180009BB213801B4B1B78002B28D01A4B1B786B
:10119000002B1ED00122134B1A700022164B1A701E
:1011A000124B1B78002B11D10132104B1A70104BCF
:1011B0001A68D37B5BB2002BFBDB138802210B4345
:1011C0009BB2138008E00D4B9847DBE70B4B984729
:1011D00002E00022034B1A700022034B1A8010BD5C
:1011E000551000006B000020680000206600002001
:1011F000F4000020650000206C000020C9100000F1
:10120000034B1A6AD20E01231340024A137070472F
:1012100000440041D000002010B50C000749084BE5
:101220009847002809D107492000054B9847002816
:1012300003D180225202044B5A6110BD40140000B9
:10124000A5130000481400000044004110B5054BF0
:101250001B78002B00D110BD03490448044B98476C
:10126000F9E7C046D20000204814000040140000F6
:101270001912000010B5014B984710BD0112000073
:1012800010B5184B1B78002B18D0164B1B78002B71
:1012900017D1154B1B78002B16D1144B1B78002B44
:1012A00015D1134B1B78002B14D1124B1B78002B3C
:1012B00003D080225202104B5A6110BD0F4B984749
:1012C000E3E70F4B9847E4E70D4B9847E5E70C4BF6
:1012D0009847E6E70022064B1A700A4B98470A4BDC
:1012E0009847E2E7D0000020D3000020D100002082
:1012F000670000206A00002000440041150F000034
:101300004D1200003D110000B110000010B5074B58
:1013100098470122064B1A70BFF35F8F62B6054BE8
:101320009847054B9847054B984710BDE1090000C9
:1013300000000020790F0000990F00000910000044
:1013400010B5034B9847034B9847034B9847FAE770
:101350000D130000751200008112000070B5002608
:101360000C4D0D4C641BA410A64209D1002600F0C0
:1013700071F80A4D0A4C641BA410A64205D170BD39
:10138000B300EB5898470136EEE7B300EB589847A7
:101390000136F2E7601400006014000060140000E1
:1013A0006414000002780B78002A03D00130013168
:1013B0009A42F7D0D01A7047E00400004E050000B2
:1013C0004E050000C0040000D2040000F00400003C
:1013D000C4040000000500003C050000700500008A
:1013E000A4050000A40500006C05000094050000A1
:1013F0007405000090050000780500007C050000E1
:1014000001000000020000000400000008000000CD
:1014100000100000002000000040000000800000DC
:1014200000000100000002000000040000000800AD
:1014300000180042001C0042121200004000800010
:10144000626C696E6B00000079656C6C6F770000F0
:101450000D0E0000F8B5C046F8BC08BC9E467047AB
:10146000B5000000F8B5C046F8BC08BC9E46704701
:041470008D000000EB
:101474000100000000000000060000000000000061
:0C14840000000000000000000500000057
:0400000300000DE10B
:00000001FF
