S02000004556454E54535F515549434B5F53544152545F484F4F4B312E73726563A5
S113000058040020790B0000750B0000750B0000EC
S113001000000000000000000000000000000000DC
S1130020000000000000000000000000750B00004C
S11300300000000000000000750B0000750B0000BC
S1130040750B0000750B0000750B0000750B0000AC
S1130050750B0000750B0000750B0000750B00009C
S11300607D020000750B0000750B0000750B00008D
S1130070750B0000750B0000750B0000750B00007C
S1130080750B0000750B0000750B000010B5064CD5
S11300902378002B07D1054B002B02D0044800E045
S11300A000BF0123237010BD1800002000000000D1
S11300B0600E0000084B10B5002B03D00749084818
S11300C000E000BF07480368002B00D110BD064BB9
S11300D0002BFBD09847F9E7000000001C0000202B
S11300E0600E0000600E0000000000000C4B1B6856
S11300F0002B06D1EFF31083002B07D00022094B0D
S11301001A70074A136801331360704772B6BFF35D
S11301105F8F0022044B1A700132024B1A70F0E711
S1130120340000203800002000000020084B1A682A
S1130130013A1A601B68002B09D1064B1B78002B6F
S113014005D00122044B1A70BFF35F8F62B670476B
S1130150340000203800002000000020F0B583B0F7
S113016001AC012565700027A770257021001020BF
S1130170064EB04780225202054B9A612770657083
S113018021000E20B04703B0F0BDC046F9030000C3
S113019000440041002383600360416000207047F5
S11301A008600A4B1A69002A02D1196104E01A0096
S11301B09368002BFBD19160054B1B68DB0503D4CE
S11301C080225200024B1A60002070470400002075
S11301D000E100E010B5012904D01723002909D05B
S11301E0180010BD00780731064B9847064B58613C
S11301F00023F5E70078034B9847034B586100232D
S1130200EEE7C046B90200000004004210B5030046
S1130210012903D00020002906D010BD0078073141
S1130220074B9847030003E01878054B98470300F1
S1130230044A90681840431E9841C0B2EDE7C04696
S1130240B90200000400002010B5012904D01723CE
S1130250002906D0180010BD00780731054B9847D7
S113026002E00078034B9847034BDA681043D860E8
S11302700023EFE7B90200000400002010B50B4B87
S11302801C690B498A69986802439A60094B8B611F
S1130290002C05D0206863689847A468002CF9D125
S11302A0024BD9689A688A439A6010BD0400002002
S11302B000040042FFFF0F0F072804D90918083172
S11302C0012088407047091801208840FAE700009F
S11302D0064A136A02210B4313620122044B1A706B
S11302E019000B781342FCD17047C046000400404B
S11302F00004004201230370002343708370C37021
S113030070470000F0B583B005000E00244B9847F9
S1130310244B1B68DA070ED55B08012401221A421C
S11303200AD05B080134E4B2062CF8D11E4B98477E
S1130330142003B0F0BD00241A4A11680123A3401D
S11303400B4313601379013B1371174B9847142027
S1130350FF2CEED02C707378022B0AD001A9F3780D
S11303600B70E71DFFB23800104B98473800104B54
S11303709847B3781B04FC22920313407278120648
S1130380C02189040A40134332789206C02109052A
S11303900A401343072214401C436C600020C8E742
S11303A0ED000000040000202D01000015080000ED
S11303B08907000010B5054BDC6800780821044B60
S11303C098472040431E9841C0B210BD000400422B
S11303D0B9020000037801331B02F022120113401A
S11303E01F2211400B43034A1381436853600020CA
S11303F07047C0460004004200B583B001AB8022C0
S11304001A700A785A704A789A708A78DA701900E1
S1130410014B984703B000BDD908000070B50C49E2
S11304200B6A0478857840780122104080014026C8
S1130430B34303432A40D20180208343134303225E
S1130440224012020348034013430B6270BDC046AE
S113045000080040FFFCFFFFF0B5CE46474680B5DC
S1130460194B99469B6941788C4605780679C7787B
S11304704479807801210840800004229343034397
S113048060460840C00004329343034338000840E8
S113049080014027BB43034330000840C00180264D
S11304A0B3430343072005402D02084803402B4370
S11304B021400903064803400B434A4693610CBCA0
S11304C090469946F0BDC04600080040FFF8FFFF83
S11304D0FFEFFFFF082803D88000254B1B589F46D9
S11304E0172044E0234A136A02210B4313620020BD
S11304F03DE0204A936902210B439361002036E0DA
S11305001C4A138A02210B43138200202FE0194A4C
S1130510938A02210B439382002028E016490B683A
S1130520022213430B60134B9A8419000E32CB68DA
S11305301A42FCD0104A91680E4BD96252689A62F2
S113054000229A8419001032CB681A42FCD00A4B5C
S11305501B689BB2074A9384002008E005494422A3
S11305608B5C022003438B54002000E00020704782
S11305701C0E0000000800403C000020F0B587B0CD
S1130580C222D2002C4B9A602C4A53681E218B4302
S1130590536002236A4613700024294DE0B2694671
S11305A0A8470134182CF9D1264B1B68DB042249D7
S11305B08A695B0E1B042448024013438B6104A820
S11305C00125457085700024C470057107230370EC
S11305D044711E4B984704201D4EB04703A8447035
S11305E0857004701B4B98470620B0471A4B9847F8
S11305F06B465C701C725C7204236A461370FB3396
S1130600019369460120154FB8470120144EB047A5
S1130610144B1C725C729C72DC7201956B465C70AC
S113062006236A4613701472547269460020B84750
S11306300020B04707B0F0BD000800400040004172
S11306401508000024608000FFFF80FF59040000AB
S1130650D50400001D040000690600008D0600009A
S11306604507000000040040064A936908210B4333
S113067093610122044B1A7019000B781342FCD1C8
S11306807047C04600040040000C004070B50600EE
S113069004000D782D0205434B78002B02D08023F3
S11306A0DB021D434B7A002B02D080231B031D4326
S11306B04868012810D9431E184234D1022830D981
S11306C00223002201325B009842FBD8120232431B
S11306D0140080235B031D430B7A002B02D080237C
S11306E09B031D43134A53785BB2002BFBDB124B75
S11306F09847124B1E700F4A53785BB2002BFBDBFA
S11307000C4B9C601A0053785BB2002BFBDB094A4C
S11307105368802149020B401D435560084B98479C
S113072070BD0022D2E70402344380239B021D43A0
S1130730D2E7C046000C0040ED000000080C004069
S11307402D01000010B504000B4A53785BB2002B56
S1130750FBDB0A4B98470A4B1C70074A53785BB281
S1130760002BFBDB044A516880235B020B4353607C
S1130770044B984710BDC046000C0040ED0000003B
S1130780040C00402D01000010B50400064B9847EE
S1130790064B1C70064A53888021C9010B435380C1
S11307A0044B984710BDC046ED000000020C004009
S11307B0000C00402D01000010B504000F4B9847B9
S11307C00F4B1C700F4A53881B05180F53880E4992
S11307D00B40538053880D490B40538011008022F5
S11307E0D2014B881342FCD106494A8803020648C9
S11307F0024013434B80064B984710BDED000000A8
S1130800020C0040000C0040FFF0FFFFFFBFFFFFA1
S11308102D01000010B50C7824020443024B9847C4
S1130820A4B2024B5C8010BDB9070000000C00406C
S113083030B5D378002B35D11378802B29D01B0603
S113084080246402234354780225AC4306D194786F
S1130850002C20D18024A402234341605478013C1D
S1130860012C1CD90D042D0CA024E4052C431C439D
S113087084620D0CD02424062C431C438462D47857
S1130880002C22D15B031CD59378012B1ED041612F
S113089017E00023D7E7C024E4022343DDE70D4C2F
S11308A02340DFE741600C04240CA023DB05234331
S11308B083620C0CD0231B0623438362D378002B62
S11308C003D15378013B012B02D930BD8161F8E794
S11308D08160FAE7FFFFFBFF10B50A00C10900239E
S11308E0002904D14309DB0105498C4663441F24D4
S11308F02040012181401800024B984710BDC0469A
S113090000440041310800007047000010B5054B59
S11309109847054B9847054B9847054B9847054B17
S1130920984710BD7D0500005D010000D102000064
S11309300909000009090000064B984208D0064A3C
S11309400023904201D0180070470133DBB2FAE76C
S11309500023FBE700180042001C0042F0B585B0FC
S113096005000C00170008007D4B9847060003ABF8
S113097012221A705A7002AB2E321A8040325A80F8
S11309802C60BB78082B06D02B7123880520DB074D
S113099005D505B0F0BD1720F207FAD4F4E7E37BE0
S11309A01730DB06F5D423889B07F2D43B7C002B5D
S11309B000D07AE03B7F002B00D082E06949086ACE
S11309C0720002ABD35A03430B62BB78082B00D1ED
S11309D087E03B786A46137003AB9E5D694630003E
S11309E0614B98473000614B98473989BB880B436A
S11309F0B978BA79114319437B78002B02D080234C
S1130A001B0119432A68D37B5BB2002BFBDB2180DB
S1130A10797B4B1E99418900BB7B002B01D00123BC
S1130A2019432A68D37B5BB2002BFBDBFF232371C2
S1130A30002905D02A68D37B5BB2002BFBDB6171F4
S1130A40B97AFB7A002B01D0102319433B7B002B8E
S1130A5001D0202319432A68D37B5BB2002BFBDB34
S1130A60A1712A68D37B5BB2002BFBDB2B79042BAF
S1130A703FD0082B5ED01720002B00D089E7D37B12
S1130A805BB2002BFBDB3B8D23822A68D37B5BB2FA
S1130A90002BFBDB7B8D23832A68D37B5BB2002B8B
S1130AA0FBDBBB8D6383002073E701A901238B70FB
S1130AB00022CA703A7E0A704B70387D2C4B9847DE
S1130AC078E701A901238B700022CA702432BA1876
S1130AD012780A704B701F33FB181878244B984710
S1130AE06CE7086A721C520002ABD35A03430B62D0
S1130AF06FE7D37B5BB2002BFBDB2823FB5C237407
S1130B002A68D37B5BB2002BFBDB2923FB5C2375B8
S1130B102A68D37B5BB2002BFBDB2A23FB5C2376A6
S1130B202A68D37B5BB2002BFBDB2B23FB5C637655
S1130B3000202EE7D37B5BB2002BFBDBBB6A236177
S1130B402A68D37B5BB2002BFBDBFB6AA3612A68B8
S1130B50D37B5BB2002BFBDB3B6BE361002018E72C
S1130B60390900000004004015080000890700004E
S1130B70D9080000FEE70000F8B52A4A2A4B9A4239
S1130B8011D01A00294B9A420DD2294A03339B1AD9
S1130B909B0801339B000022234822498C5884502F
S1130BA004329A42FAD1234A234B9A420AD2D343BB
S1130BB021495B1803218B4304339B18002102C293
S1130BC09342FCD11D4AFF211D4B8B439360FD3999
S1130BD090235B001B4AD1501B4AD3780325AB43B7
S1130BE002242343D370D3780C27BB430826334312
S1130BF0D370164B987B3022904320221043987375
S1130C00997BB943314399739A7BAA4322439A73DC
S1130C100F4A536880210B4353600E4B98470E4B89
S1130C209847FEE7600E0000000000201800002036
S1130C3004000020180000205800002000ED00E00F
S1130C4000000000007000410050004100480041D5
S1130C5000400041D50D0000990C000010B50400BF
S1130C600121094B9847002800D110BD802252026F
S1130C70064BDA61064A1368013313600121200030
S1130C80044B9847F1E7C0460D02000000440041C0
S1130C905400002049020000F0B597B0414B98473A
S1130CA00127414B1F70BFF35F8F62B602AC200077
S1130CB03E4B98472223A3702770002500266570B9
S1130CC0E570210012A83A4B9847002112A8394B2D
S1130CD0984739490FA8394B98470FA912A8384BA0
S1130CE09847012112A8374B9847A5712581002305
S1130CF06370A672E6722673A673667326746561C2
S1130D00A56126772562656225856585A585042309
S1130D10A3702770A023DB00A38022002A4914A813
S1130D202A4B984714996B461A79531E9A4112011B
S1130D306B46DB78002B01D020231A4380235B0011
S1130D40134368460078002802D088235B011343CC
S1130D506A465278002A02D08022920113434A89BB
S1130D6068464079024313439BB24B81CB7B5BB211
S1130D70002BFBDB0B88022213430B80144C12A8BC
S1130D80A0470028FBD1149BDA7B52B2002AFBDB7C
S1130D9000221A71DA7B52B2002AFBDB40225A711C
S1130DA0FEE7C0460D09000000000020F502000027
S1130DB005030000D50300005D0C00009501000050
S1130DC0A1010000D5010000001C00425D090000E3
S1130DD0B503000070B500260C4D0D4C641BA41027
S1130DE0A64209D1002600F02BF80A4D0A4C641BD8
S1130DF0A410A64205D170BDB300EB589847013644
S1130E00EEE7B300EB5898470136F2E74C0E0000CA
S1130E104C0E00004C0E0000500E000000050000B7
S1130E20E0040000E00400006C050000F20400008F
S1130E300E050000E40400001C0500005C05000031
S1130E40F8B5C046F8BC08BC9E467047B500000023
S1130E50F8B5C046F8BC08BC9E4670478D0000003B
S1130E600100000000000000060000000000000077
S10B0E70000000000000000076
S9030B7978
