:100000006804002015090000110900001109000012
:1000100000000000000000000000000000000000E0
:1000200000000000000000000000000011090000B6
:10003000000000000000000011090000110900008C
:100040001109000011090000110900001109000048
:100050001109000011090000110900001109000038
:100060001109000011090000110900001109000028
:10007000110900009D060000AD06000011090000F6
:1000800011090000110900001109000010B5064C0B
:100090002378002B07D1054B002B02D0044800E049
:1000A00000BF0123237010BD0400002000000000E9
:1000B0007C0B0000084B10B5002B03D00749084803
:1000C00000E000BF07480368002B00D110BD064BBD
:1000D000002BFBD09847F9E7000000000800002043
:1000E0007C0B00007C0B0000000000000C4B1B6828
:1000F000002B06D1EFF31083002B07D00022094B11
:100100001A70074A136801331360704772B6BFF361
:100110005F8F0022044B1A700132024B1A70F0E715
:10012000200000202400002000000020084B1A6856
:10013000013A1A601B68002B09D1064B1B78002B73
:1001400005D00122044B1A70BFF35F8F62B670476F
:10015000200000202400002000000020F0B583B023
:1001600001AC012565700027A770257021001020C3
:10017000064EB04780225202054B9A612770657087
:1001800021000E20B04703B0F0BDC046950100002D
:100190000044004100B583B001AB80221A700A7898
:1001A0005A704A789A708A78DA701900014B984729
:1001B00003B000BDA505000070B50C490B6A0478BA
:1001C000857840780122104080014026B3430343E4
:1001D0002A40D2018020834313430322224012028B
:1001E0000348034013430B6270BDC0460008004043
:1001F000FFFCFFFF082803D88000254B1B589F46B3
:10020000172044E0234A136A02210B4313620020A3
:100210003DE0204A936902210B439361002036E0C0
:100220001C4A138A02210B43138200202FE0194A33
:10023000938A02210B439382002028E016490B6821
:10024000022213430B60134B9A8419000E32CB68C1
:100250001A42FCD0104A91680E4BD96252689A62D9
:1002600000229A8419001032CB681A42FCD00A4B43
:100270001B689BB2074A9384002008E0054944228A
:100280008B5C022003438B54002000E00020704769
:10029000340B0000000800402800002030B585B075
:1002A000C222D2001A4B9A601A4A53681E218B430D
:1002B000536001236A4613700024174DE0B269466B
:1002C000A8470134182CF9D103A800244470012553
:1002D00085700470114B98470620114B9847114BBD
:1002E0009847114B1C725C729C72DC7201956B46D4
:1002F0005C7006236A4613701472547269460020BB
:100300000A4B984700200A4B984705B030BDC046BD
:100310000008004000400041E1040000B901000075
:10032000F5010000350300000004004059030000FF
:1003300011040000064A936908210B4393610122CE
:10034000044B1A7019000B781342FCD17047C04659
:1003500000040040000C004070B5060004000D7859
:100360002D0205434B78002B02D08023DB021D4376
:100370004B7A002B02D080231B031D4348680128C1
:1003800010D9431E184234D1022830D9022300224A
:1003900001325B009842FBD81202324314008023E2
:1003A0005B031D430B7A002B02D080239B031D436C
:1003B000134A53785BB2002BFBDB124B9847124B6E
:1003C0001E700F4A53785BB2002BFBDB0C4B9C601A
:1003D0001A0053785BB2002BFBDB094A536880217B
:1003E00049020B401D435560084B984770BD0022E1
:1003F000D2E70402344380239B021D43D2E7C04668
:10040000000C0040ED000000080C00402D01000031
:1004100010B504000B4A53785BB2002BFBDB0A4B90
:1004200098470A4B1C70074A53785BB2002BFBDBE2
:10043000044A516880235B020B435360044B984786
:1004400010BDC046000C0040ED000000040C004050
:100450002D01000010B50400064B9847064B1C7098
:10046000064A53888021C9010B435380044B9847A7
:1004700010BDC046ED000000020C0040000C004022
:100480002D01000010B504000F4B98470F4B1C7056
:100490000F4A53881B05180F53880E490B40538091
:1004A00053880D490B40538011008022D2014B88A4
:1004B0001342FCD106494A8803020648024013430E
:1004C0004B80064B984710BDED000000020C004029
:1004D000000C0040FFF0FFFFFFBFFFFF2D010000F9
:1004E00010B50C7824020443024B9847A4B2024B87
:1004F0005C8010BD85040000000C004030B5D3784E
:10050000002B35D11378802B29D01B068024640260
:10051000234354780225AC4306D19478002C20D193
:100520008024A402234341605478013C012C1CD94F
:100530000D042D0CA024E4052C431C4384620D0CF7
:10054000D02424062C431C438462D478002C22D16E
:100550005B031CD59378012B1ED0416117E000236B
:10056000D7E7C024E4022343DDE70D4C2340DFE757
:1005700041600C04240CA023DB05234383620C0C94
:10058000D0231B0623438362D378002B03D15378F7
:10059000013B012B02D930BD8161F8E78160FAE7A8
:1005A000FFFFFBFF10B50A00C1090023002904D199
:1005B0004309DB0105498C4663441F242040012187
:1005C00081401800024B984710BDC04600440041CE
:1005D000FD0400007047000010B5054B9847054B1F
:1005E0009847054B9847054B9847054B984710BDD2
:1005F0009D0200005D010000D5050000D50500004A
:10060000D5050000931C9B001950022A09D0032A2B
:100610000CD0012393401A00037E1343037600207D
:100620007047037E102213430376F8E7037E2022EF
:1006300013430376F3E7000070B58000164BC458EF
:1006400023689D7B227E637E13401D40EB0706D40A
:10065000AB070BD4EB0610D4AB0615D470BD20004D
:10066000A3689847012322689373F1E72000E368A9
:100670009847022322689373ECE720002369984788
:10068000102322689373E7E7200063699847236883
:1006900020229A73E2E7C0464000002010B50020F7
:1006A000014B984710BDC0463906000010B5012027
:1006B000014B984710BDC04639060000064B9842D2
:1006C00008D0064A0023904201D018007047013339
:1006D000DBB2FAE70023FBE700180042001C0042EF
:1006E000F0B585B004000D0016000800824B984755
:1006F000070003AB12221A705A7002AB2E321A8016
:1007000040325A800023A360E36023616361237653
:1007100063768200794BD4502560B378082B06D0DD
:1007200023712B880520DB0705D505B0F0BD172008
:10073000FA07FAD4F4E7EB7B1730DB06F5D42B8805
:100740009B07F2D4337C002B00D07AE0337F002B60
:1007500000D082E06A49086A7A0002ABD35A0343A8
:100760000B62B378082B00D187E033786A461370A8
:1007700003ABDF5D69463800624B98473800624B37
:1007800098473189B3880B43B178B2791143194343
:100790007378002B02D080231B0119432268D37B7E
:1007A0005BB2002BFBDB2980717B4B1E99418900DA
:1007B000B37B002B01D0012319432268D37B5BB2AA
:1007C000002BFBDBFF232B71002905D02268D37B94
:1007D0005BB2002BFBDB6971B17AF37A002B01D09D
:1007E00010231943337B002B01D0202319432268A7
:1007F000D37B5BB2002BFBDBA9712268D37B5BB29E
:10080000002BFBDB2379042B3FD0082B5ED0172075
:10081000002B00D089E7D37B5BB2002BFBDB338D51
:100820002B822268D37B5BB2002BFBDB738D2B8387
:100830002268D37B5BB2002BFBDBB38D6B83002084
:1008400073E701A901238B700022CA70327E0A70FF
:100850004B70307D2D4B984778E701A901238B70B1
:100860000022CA702432B21812780A704B701F33FB
:10087000F3181878254B98476CE7086A7A1C5200E1
:1008800002ABD35A03430B626FE7D37B5BB2002BFF
:10089000FBDB2823F35C2B742268D37B5BB2002B39
:1008A000FBDB2923F35C2B752268D37B5BB2002B27
:1008B000FBDB2A23F35C2B762268D37B5BB2002B15
:1008C000FBDB2B23F35C6B7600202EE7D37B5BB244
:1008D000002BFBDBB36A2B612268D37B5BB2002B5E
:1008E000FBDBF36AAB612268D37B5BB2002BFBDBE3
:1008F000336BEB61002018E7BD06000040000020CC
:1009000000040040E104000055040000A5050000BB
:10091000FEE70000F8B52A4A2A4B9A4211D01A0085
:10092000294B9A420DD2294A03339B1A9B08013363
:100930009B000022234822498C58845004329A425A
:10094000FAD1234A234B9A420AD2D34321495B1856
:1009500003218B4304339B18002102C29342FCD134
:100960001D4AFF211D4B8B439360FD3990235B0093
:100970001B4AD1501B4AD3780325AB43022423439F
:10098000D370D3780C27BB4308263343D370164B60
:10099000987B30229043202210439873997BB9436F
:1009A000314399739A7BAA4322439A730F4A53683F
:1009B00080210B4353600E4B98470E4B9847FEE740
:1009C0007C0B000000000020040000200400002038
:1009D000040000206400002000ED00E000000000A2
:1009E00000700041005000410048004100400041BB
:1009F000ED0A0000C10A000080225202014B5A6138
:100A00007047C0460044004110B58EB001AA0023D3
:100A10000021937093711381002050709172D172F4
:100A20001173917351731174536193611177136250
:100A3000536213855385938501331370A023DB0024
:100A4000938064212923D154074C08492000084B86
:100A500098472268D37B5BB2002BFBDB1388022113
:100A60000B4313800EB010BD480000200018004258
:100A7000E106000010B50C4C00220C4920000C4B84
:100A8000984720680B4B98470B4B1A5C1F23134069
:100A9000012211009940094B1960637E01210B432B
:100AA000637623685A7310BD48000020F9090000DE
:100AB00005060000BD060000580B000000E100E044
:100AC00010B5064B9847064B9847064B98470122AE
:100AD000054B1A70BFF35F8F62B6FEE7D9050000C1
:100AE000090A0000750A00000000002070B5002609
:100AF0000C4D0D4C641BA410A64209D1002600F039
:100B00002DF80A4D0A4C641BA410A64205D170BDF5
:100B1000B300EB5898470136EEE7B300EB5898471F
:100B20000136F2E7680B0000680B0000680B00005C
:100B30006C0B000020020000000200000002000018
:100B40008C020000120200002E02000004020000CD
:100B50003C0200007C0200000D0E0000F8B5C0460B
:100B6000F8BC08BC9E467047B5000000F8B5C0460A
:0C0B7000F8BC08BC9E4670478D000000D9
:040B7C000100000074
:0400000300000915DB
:00000001FF
