:10000000F00400201D130000191300001913000054
:1000100000000000000000000000000000000000E0
:1000200000000000000000000000000019130000A4
:100030000000000000000000191300001913000068
:100040001913000019130000191300001913000000
:1000500025030000191300001913000019130000F4
:1000600095010000D9040000E9040000F904000033
:1000700009130000191300001913000019130000E0
:1000800019130000191300001913000010B5064CD5
:100090002378002B07D1054B002B02D0044800E049
:1000A00000BF0123237010BD1800002000000000D5
:1000B00034170000084B10B5002B03D0074908483F
:1000C00000E000BF07480368002B00D110BD064BBD
:1000D000002BFBD09847F9E7000000001C0000202F
:1000E0003417000034170000000000000C4B1B68A0
:1000F000002B06D1EFF31083002B07D00022094B11
:100100001A70074A136801331360704772B6BFF361
:100110005F8F0022044B1A700132024B1A70F0E715
:10012000340000203800002000000020084B1A682E
:10013000013A1A601B68002B09D1064B1B78002B73
:1001400005D00122044B1A70BFF35F8F62B670476F
:10015000340000203800002000000020F0B583B0FB
:1001600001AC012565700027A770257021001020C3
:10017000064EB04780225202054B9A612770657087
:1001800021000E20B04703B0F0BDC046B50400000A
:100190000044004110B50B4B1C690B498A699868F3
:1001A00002439A60094B8B61002C05D0206863687C
:1001B0009847A468002CF9D1024BD9689A688A4301
:1001C0009A6010BD0400002000040042FFFF0F0FE2
:1001D000064A136A02210B4313620122044B1A7070
:1001E00019000B781342FCD17047C0460004004050
:1001F0000004004201230370002343708370C37026
:1002000070470000F0B583B005000E00244B9847FE
:10021000244B1B68DA070ED55B08012401221A4221
:100220000AD05B080134E4B2062CF8D11E4B984783
:10023000142003B0F0BD00241A4A11680123A34022
:100240000B4313601379013B1371174B984714202C
:10025000FF2CEED02C707378022B0AD001A9F37812
:100260000B70E71DFFB23800104B98473800104B59
:100270009847B3781B04FC2292031340727812064D
:10028000C02189040A40134332789206C02109052F
:100290000A401343072214401C436C600020C8E747
:1002A000ED000000040000202D010000150A0000F0
:1002B00089090000037801331B02F0221201134068
:1002C0001F2211400B43034A1381436853600020EF
:1002D0007047C046000400421723002A01D01800CE
:1002E00070478B00064A9B58002B03D0834205D0F1
:1002F0001D23F4E7890088500023F0E70023EEE790
:10030000640000201723002901D018007047002244
:100310001F2800D8024A01238340D3600023F4E75A
:100320000018004070B50022104B1A7000231049CD
:100330001F25104E0D4C0AE00D4908E023780133CB
:10034000DBB223700F2B10D800211F2BF4D928000B
:1003500018400122824008691042EFD00A619B00D8
:100360009B59002BEAD09847E8E770BD6100002058
:100370000018004064000020044A137802210B4357
:10038000137053785BB2002BFBDB70470018004002
:1003900000B583B0124A936940210B43936101A9D0
:1003A00001230B7005200F4B984705200E4B9847F3
:1003B0000E4A137801210B43137053785BB2002B64
:1003C000FBDB0B4B19004031002204C39942FCD1E6
:1003D0001022084B1A60084B984703B000BDC04676
:1003E00000040040150A00008909000000180040C0
:1003F0006400002000E100E07903000000230360B6
:10040000436001220272427283720233C3727047E8
:10041000F0B583B005000C0001A900234B70CB7030
:1004200023790B70237A8B702078154B9847002026
:100430001F2D00D8134807222A409200E77AA37A9A
:10044000002B01D008231F43EB089B00C3189969B8
:100450000F269640B14397403A000A439A61637A67
:10046000002B06D143690122AA409343436103B0A4
:10047000F0BD42690123AB4013434361F7E7C04637
:10048000D90A00000018004010B500230021012403
:1004900002E00133202B06D0C25C002AF9D02200F2
:1004A0009A401143F5E7024B5A681143596010BD59
:1004B0000018004000B583B001AB80221A700A78A2
:1004C0005A704A789A708A78DA701900014B984706
:1004D00003B000BDD90A000010B5024B1B68002014
:1004E000984710BD3C00002010B5024B5B6801200E
:1004F000984710BD3C00002010B5024B9B680220BD
:10050000984710BD3C00002070B50C490B6A047878
:10051000857840780122104080014026B343034390
:100520002A40D20180208343134303222240120237
:100530000348034013430B6270BDC04600080040EF
:10054000FFFCFFFFF0B5CE46474680B5194B9946F4
:100550009B6941788C4605780679C778447980781C
:100560000121084080000422934303436046084071
:10057000C000043293430343380008408001402701
:10058000BB43034330000840C0018026B34303430C
:10059000072005402D02084803402B432140090352
:1005A000064803400B434A4693610CBC904699466B
:1005B000F0BDC04600080040FFF8FFFFFFEFFFFF5F
:1005C00010B5037A9B061B0C42899205920D1343CA
:1005D00018494B608379C279134342888488224347
:1005E00013434278D20113430B600378042B11D0DC
:1005F000202B0ED1037B9B06028A1343C28912046F
:100600000D490A4013430B4A936011680B4B0B438F
:10061000136010BD037B9B06028A1343C289120438
:1006200005490A401343034A9360136804210B43AE
:100630001360EEE7480000200000FF0324040000E0
:10064000082803D88000254B1B589F46172044E0FC
:10065000234A136A02210B43136200203DE0204A23
:10066000936902210B439361002036E01C4A138AF0
:1006700002210B43138200202FE0194A938A0221A2
:100680000B439382002028E016490B680222134393
:100690000B60134B9A8419000E32CB681A42FCD0BF
:1006A000104A91680E4BD96252689A6200229A846D
:1006B00019001032CB681A42FCD00A4B1B689BB25F
:1006C000074A9384002008E0054944228B5C0220FD
:1006D00003438B54002000E00020704760160000A8
:1006E0000008004048000020F0B5D6464F46464678
:1006F000C0B58CB0C222D2004D4B9A604D494B68B8
:100700001E2293431C3A13434B6001AB1A70002422
:10071000494DE0B201A9A8470134182CF9D1474C42
:100720002368DB0442498A695B0E1B04444802408B
:1007300013438B610AA80123437083700025C570A1
:1007400003710633037045713E4B984704203E4BBE
:10075000984705AB00225D809D809A71DA713F2138
:1007600059813B3919705A7023689B0E3F2B5DD01D
:1007700005A80372B723DB0003820723994603739E
:100780003F23C381314B984704A8002545700126BB
:10079000867005702E4B984706202B4FB8472D4B7F
:1007A000984701AC02966570257265720423237028
:1007B00021000120284B9A4698470120274B984654
:1007C000984766606570257265724B4623702100FC
:1007D0000320D0470320C047267021000020164B7D
:1007E000984700201E4B98470720B8471049D02251
:1007F000CB681340D02BFBD11A4A002313725372DB
:100800009372D37201A901224A604B7005320A70BB
:100810000B724B720020104B984700200F4B9847EB
:100820000CB01CBC90469946A246F0BD203B9FE709
:100830000008004000400041150A000024608000CC
:10084000FFFF80FF4505000041060000C1050000D4
:1008500009050000690800008D0800004509000036
:100860008909000000040040064A936908210B43EF
:1008700093610122044B1A7019000B781342FCD1CA
:100880007047C04600040040000C004070B50600F0
:1008900004000D782D0205434B78002B02D08023F5
:1008A000DB021D434B7A002B02D080231B031D4328
:1008B0004868012810D9431E184234D1022830D983
:1008C0000223002201325B009842FBD8120232431D
:1008D000140080235B031D430B7A002B02D080237E
:1008E0009B031D43134A53785BB2002BFBDB124B77
:1008F0009847124B1E700F4A53785BB2002BFBDBFC
:100900000C4B9C601A0053785BB2002BFBDB094A4E
:100910005368802149020B401D435560084B98479E
:1009200070BD0022D2E70402344380239B021D43A2
:10093000D2E7C046000C0040ED000000080C00406B
:100940002D01000010B504000B4A53785BB2002B58
:10095000FBDB0A4B98470A4B1C70074A53785BB283
:10096000002BFBDB044A516880235B020B4353607E
:10097000044B984710BDC046000C0040ED0000003D
:10098000040C00402D01000010B50400064B9847F0
:10099000064B1C70064A53888021C9010B435380C3
:1009A000044B984710BDC046ED000000020C00400B
:1009B000000C00402D01000010B504000F4B9847BB
:1009C0000F4B1C700F4A53881B05180F53880E4994
:1009D0000B40538053880D490B40538011008022F7
:1009E000D2014B881342FCD106494A8803020648CB
:1009F000024013434B80064B984710BDED000000AA
:100A0000020C0040000C0040FFF0FFFFFFBFFFFFA3
:100A10002D01000010B50C7824020443024B9847C6
:100A2000A4B2024B5C8010BDB9090000000C00406C
:100A300030B5D378002B35D11378802B29D01B0605
:100A400080246402234354780225AC4306D1947871
:100A5000002C20D18024A402234341605478013C1F
:100A6000012C1CD90D042D0CA024E4052C431C439F
:100A700084620D0CD02424062C431C438462D47859
:100A8000002C22D15B031CD59378012B1ED0416131
:100A900017E00023D7E7C024E4022343DDE70D4C31
:100AA0002340DFE741600C04240CA023DB05234333
:100AB00083620C0CD0231B0623438362D378002B64
:100AC00003D15378013B012B02D930BD8161F8E796
:100AD0008160FAE7FFFFFBFF10B50A00C1090023A0
:100AE000002904D14309DB0105498C4663441F24D6
:100AF0002040012181401800024B984710BDC0469C
:100B000000440041310A00007047000010B5054B59
:100B10009847054B9847054B9847054B9847054B19
:100B2000984710BDE90600005D010000D1010000FA
:100B300091030000090B00000020704700230360B0
:100B40004C4A42608372C372037343720372C3617F
:100B5000036243628362037543758375C3750376CD
:100B60004376037443748374C3742C228354013218
:100B7000835401328354013283540132835401324D
:100B8000835401328354013283540132835401323D
:100B9000835401328354013283540132835401322D
:100BA000835401328354013283540132835401321D
:100BB000835401328354013283540132835401320D
:100BC00083540132835401328354013283540132FD
:100BD00083540132835401328354013283540132ED
:100BE00083540132835401328354013283540132DD
:100BF00083540132835401328354013283540132CD
:100C000083540132835401328354013283540132BC
:100C100083540132835401328354413283548365B7
:100C2000836701328354C365C3670132835403660B
:100C30001A3A83501B3283544366173A8350183252
:100C400083548366143A835015328354C366113A31
:100C500083501232835403670E3A83500F32835409
:100C600043670B3A835001210C3281540132835483
:100C70007047C046FFFFFF00F0B5DE4657464E46C0
:100C80004546E0B58DB006000C0015000800CD4BC0
:100C900098470300CC490A6A202002430A6222686E
:100CA0000438920706D50DB03CBC90469946A24642
:100CB000AB46F0BD226801271740F4D1C34A05387E
:100CC00029689142EFD869689142ECD8E96991426C
:100CD00000D98BE1296A914200D989E1696A914280
:100CE00000D987E1A96A914200D985E12A7C013ABD
:100CF00050425041020601926A7C012A31D0AA7CFE
:100D0000012A34D0EA7C012A37D0A122AA5C002A29
:100D100004D0802212010199114301912A7A511EB7
:100D20008A41920003926A7A012A2CD03522AA5C69
:100D3000032A00D962E12C21695C0F2900D95DE109
:100D4000287B0490E87A05902D208246AA44002052
:100D50000297844606960E00A0465446A94607937D
:100D600047E080229204019911430191C7E7802254
:100D7000D204019911430191C4E78022120501991F
:100D800011430191C1E7039911430391CEE7920208
:100D9000C0252D012A4032430D7903262E403243CF
:100DA00055462A434E797601602535402A438D7990
:100DB0002D02C026B60035402A43CD792D03E0260A
:100DC000F60135402A43104303431F4308AB6246F4
:100DD00008201B189F50042A28D08A7C032A00D997
:100DE0000CE14E7A0A3404239A46D4440F2E00D9DB
:100DF00004E13606F0231B051E40210025782D0452
:100E0000FF231B041D40AA4663788020002B00D1DD
:100E100002988F780823002F00D1029BCF78BB4621
:100E200010275D46002DB2D1029FB0E7069E4446D2
:100E30004D46079B484650304946413100228027A5
:100E40007F02BC460127B9460227FF37BA461F007A
:100E50001300A0463C0007E0574697403B43013251
:100E600001300231082A0ED00778002F02D06746E1
:100E700097403B430F78002FF1D0022FECD04F4624
:100E800097403B43EBE722004446984613006A7EB6
:100E9000120130211140287E072202401143002216
:100EA000802040020F0002E00132042A07D0A91876
:100EB000097D0029F8D0010091400F43F4E7B946BD
:100EC000321D30003430002102C29042FCD1002299
:100ED0007263B2639B003E4A9E503460A023EA5C7A
:100EE000643BF25409A9AB7A0B701120394B984737
:100EF0001120394B98472F0098372E005836782309
:100F00009A46AA44773B9B46230054469A4603E000
:100F100001370436B44214D03B78002BF8D008AB2C
:100F20005A469A70002308AAD37013002022B218E0
:100F300012781A705A465A7030781900274B984721
:100F4000E6E75446049B1B03059A12021343019AD9
:100F5000134323600422A3681A42FCD1FF232371A8
:100F60000422A3681A42FCD16B461B7B63710A9B67
:100F7000E3600B9B23614346A361194AA3681342B4
:100F8000FCD14B46E3631022A3681A42FCD12B68C4
:100F90006363144AA3681342FCD16B6823641C3555
:100FA0000021114802008A40A3681A42FCD104CDF6
:100FB0000B0010339B00E3185A6001310429F1D172
:100FC000002070E6390B000000040040FFFFFF0026
:100FD000A4000020150A000089090000D90A0000B9
:100FE00040000200800004000001080017205AE6BB
:100FF000172058E6172056E6172054E6172052E629
:10100000F0B5046823681C209B0700D0F0BD236A5C
:10101000CA79002A0ED0C02293438A79012A07D0C8
:10102000002A07D0022A1DD0032A1ED01720EDE780
:10103000402213430A7A002A02D08022D2011343AD
:101040008A78002A02D08022520113434A78002A6B
:1010500010D0072293430A780B2A76D892003D4895
:101060008258974680221343E4E7C0221343E1E706
:10107000012213434A7A002A02D08022120213432B
:101080004A79002A02D08022920113430A79002A69
:1010900019D038229343CA780B2A58D892002E4888
:1010A0008258974602221343E4E703221343E1E701
:1010B00004221343DEE705221343DBE70722134331
:1010C000D8E70822134308000A30002280256D0467
:1010D000AC4680277F0215E010221343F3E7182265
:1010E0001343F0E720221343EDE71C4A1343EAE7DA
:1010F0001B4A1343E7E738221343E4E70132013088
:10110000042A0DD005000679002E02D066469640CE
:1011100033432D78002DF1D03D0095402B43EDE772
:101120008A7C002A02D0802252001343CA7C002A03
:1011300002D08022920013430A7D002A02D080222E
:10114000D20013432362002060E717205EE71720D8
:101150005CE7C04684160000B416000028000300B7
:1011600030000300F0B50368DF6A1E6B98684342E5
:101170005841C0050023F021090531400125F02424
:1011800024033C40A44609E00133042B0FD01A0489
:101190006446144202D02A009A4010431A061142B3
:1011A000F2D01A0008322C0094402043ECE73B00B8
:1011B00033431A0402D58022920210435A0402D506
:1011C000802252021043720502D58022520310433E
:1011D000320502D58022920310439A0402D5802260
:1011E00012031043DB0402D58023DB021843F3050E
:1011F00002D58023DB031843B30502D580231B04EB
:1012000018433B0702D580235B0418437B0702D5B4
:1012100080239B041843BB0702D58023DB041843BB
:10122000FB0702D580231B051843F30702D5802353
:101230009B051843B30702D580235B051843F0BD17
:1012400070B5002300220125F026360302E00133A9
:10125000042B07D00C00DC402542F8D01C0434409D
:101260002243F4E700238C0302D580231B021A4398
:10127000CC0303D58024E401224323430C0303D58C
:101280008024A401224323434C0303D5802464011A
:1012900022432343CC0101D5082422438C0101D5EC
:1012A000042422434C0100D50222090101D5012169
:1012B0000A4301680B630368DA6270BDF0B5C64685
:1012C00000B580000E4BC7583B68DE6ABB6B7A6B7B
:1012D00013401E4000240B4B984602E00434302C8F
:1012E0000AD04346E5583542F8D03B195B683800D0
:1012F00098473B68DD62F1E704BC9046F0BDC0460C
:10130000A4000020E416000010B50020014B98470F
:1013100010BDC046BD120000FEE70000F8B52A4A25
:101320002A4B9A4211D01A00294B9A420DD2294ACF
:1013300003339B1A9B0801339B0000222348224958
:101340008C58845004329A42FAD1234A234B9A4251
:101350000AD2D34321495B1803218B4304339B18E2
:10136000002102C29342FCD11D4AFF211D4B8B4339
:101370009360FD3990235B001B4AD1501B4AD37800
:101380000325AB4302242343D370D3780C27BB43FC
:1013900008263343D370164B987B3022904320228B
:1013A00010439873997BB943314399739A7BAA434D
:1013B00022439A730F4A536880210B4353600E4BAC
:1013C00098470E4B9847FEE73417000000000020B6
:1013D000180000200400002018000020F000002069
:1013E00000ED00E0000000000070004100500041EE
:1013F000004800410040004109160000CD140000E3
:101400008022014B9A61704700440041F0B5B1B0B1
:10141000254F07AC39002000244B9847244BE3614B
:10142000244B6360022323760022A272E27201261B
:101430009832A654943AA2650132A2672C32A6547F
:101440000232A3541C4D2200390028001B4B984740
:101450001B4B187001AC152200212000194B984736
:10146000A67221002800184B98472A680221936829
:101470001942FCD1136802210B4313600E4B1A680A
:1014800002311F20E02493681942FCD15379834331
:1014900005D0202B05D0402BF5D11471F3E7202384
:1014A000537131B0F0BDC046001400423D0B000046
:1014B000FF010000FF030000B0000020790C0000D5
:1014C000600000205116000001100000F0B5C64673
:1014D00000B58CB0394B98470125394B1D70BFF3CF
:1014E0005F8F62B60BAC65700027A7702570210076
:1014F0000720344B9846984702262670210010207A
:10150000C0478022304B9A61304B98476846304B39
:1015100098476B469D7203236A46D37200960197E3
:10152000694602202B4B984703AC20220021200063
:10153000294B9847A5702000284B9847002202218C
:101540002748284B984700210220274B9847200026
:10155000264B98470E23A3706670254D2100280066
:10156000244B984706212800234B98478021C90225
:101570002248234B9847144C8025ED011F4E07E06D
:101580008021C9021D481E4B984780235B02A3613E
:10159000236A2B42FCD1236A2B42FCD18023636156
:1015A0003000184B98472369DB03E9D54303EFD597
:1015B00080235B0263618023A361E9E70D0B0000D8
:1015C00000000020B5040000004400410D1400009C
:1015D000FD03000011040000511600008904000002
:1015E00001140000D902000005030000F50100000D
:1015F000A800002005020000B5020000B000002095
:10160000411200006511000070B500260C4D0D4C14
:10161000641BA410A64209D1002600F07BF80A4DF5
:101620000A4C641BA410A64205D170BDB300EB5850
:1016300098470136EEE7B300EB5898470136F2E7DA
:1016400020170000201700002017000024170000BA
:1016500003008218934200D1704719700133F9E7F3
:101660006C0600004C0600004C060000D806000086
:101670005E0600007A0600005006000088060000A2
:10168000C8060000741000004A110000701000002D
:10169000AA100000A41000004A110000B0100000C1
:1016A0004A110000B61000004A1100004A11000063
:1016B000BC100000C6100000DE100000C2100000C8
:1016C0004E1100004E110000D81000004E11000015
:1016D000E41000004E110000EA100000F0100000BD
:1016E000F6100000010000000200000004000000ED
:1016F0000800000000100000002000000040000072
:101700000080000000000100000002000000040052
:1017100000000800F8B5C046F8BC08BC9E467047FB
:10172000B5000000F8B5C046F8BC08BC9E4670473E
:041730008D00000028
:10173400010000000000000006000000000000009E
:0817440000000000000000009D
:040000030000131DC9
:00000001FF
