S0280000666F75725F6368616E6E656C5F7267625F70776D5F7463635F74657374696E672E73726563C5
S11300001005002005080000010800000108000098
S113001000000000000000000000000000000000DC
S113002000000000000000000000000001080000C3
S113003000000000000000000108000001080000AA
S11300400108000001080000010800000108000088
S11300500108000001080000010800000108000078
S11300600108000001080000010800000108000068
S1130070010600000108000001080000010800005A
S113008001080000010800000108000010B5064C3A
S11300902378002B07D1054B002B02D0044800E045
S11300A000BF0123237010BD0400002000000000E5
S11300B0700B0000084B10B5002B03D0074908480B
S11300C000E000BF07480368002B00D110BD064BB9
S11300D0002BFBD09847F9E700000000080000203F
S11300E0700B0000700B000000000000002070473F
S11300F0002303604C4A42608372C37203734372E9
S11301000372C3610362436283620375437583753B
S1130110C37503764376037443748374C3742C22C7
S113012083540132835401328354013283540132A3
S11301308354013283540132835401328354013293
S11301408354013283540132835401328354013283
S11301508354013283540132835401328354013273
S11301608354013283540132835401328354013263
S11301708354013283540132835401328354013253
S11301808354013283540132835401328354013243
S11301908354013283540132835401328354013233
S11301A08354013283540132835401328354013223
S11301B08354013283540132835401328354013213
S11301C083540132835401328354013283544132C3
S11301D083548365836701328354C365C3670132E3
S11301E0835403661A3A83501B3283544366173A86
S11301F08350183283548366143A835015328354DF
S1130200C366113A83501232835403670E3A835003
S11302100F32835443670B3A835001210C328154CB
S1130220013283547047C046FFFFFF00F0B5DE463D
S113023057464E464546E0B58DB006000C00150005
S11302400800CD4B98470300CC490A6A202002439A
S11302500A6222680438920706D50DB03CBC904669
S11302609946A246AB46F0BD226801271740F4D157
S1130270C34A053829689142EFD869689142ECD89D
S1130280E969914200D98BE1296A914200D989E157
S1130290696A914200D987E1A96A914200D985E14E
S11302A02A7C013A50425041020601926A7C012A9A
S11302B031D0AA7C012A34D0EA7C012A37D0A12289
S11302C0AA5C002A04D080221201019911430191F1
S11302D02A7A511E8A41920003926A7A012A2CD00A
S11302E03522AA5C032A00D962E12C21695C0F291A
S11302F000D95DE1287B0490E87A05902D208246A0
S1130300AA4400200297844606960E00A04654464E
S1130310A946079347E08022920401991143019171
S1130320C7E78022D204019911430191C4E78022D6
S11303301205019911430191C1E7039911430391F6
S1130340CEE79202C0252D012A4032430D790326BF
S11303502E40324355462A434E7976016025354076
S11303602A438D792D02C026B60035402A43CD7923
S11303702D03E026F60135402A43104303431F436F
S113038008AB624608201B189F50042A28D08A7C98
S1130390032A00D90CE14E7A0A3404239A46D44441
S11303A00F2E00D904E13606F0231B051E40210060
S11303B025782D04FF231B041D40AA466378802062
S11303C0002B00D102988F780823002F00D1029BC4
S11303D0CF78BB4610275D46002DB2D1029FB0E70F
S11303E0069E44464D46079B484650304946413197
S11303F0002280277F02BC460127B9460227FF3727
S1130400BA461F001300A0463C0007E05746974039
S11304103B43013201300231082A0ED00778002F05
S113042002D0674697403B430F78002FF1D0022F4C
S1130430ECD04F4697403B43EBE7220044469846B6
S113044013006A7E120130211140287E07220240E7
S113045011430022802040020F0002E00132042AEE
S113046007D0A918097D0029F8D0010091400F4355
S1130470F4E7B946321D30003430002102C2904204
S1130480FCD100227263B2639B003E4A9E503460EA
S1130490A023EA5C643BF25409A9AB7A0B701120E7
S11304A0394B98471120394B98472F0098372E0025
S11304B0583678239A46AA44773B9B4623005446F1
S11304C09A4603E001370436B44214D03B78002B3B
S11304D0F8D008AB5A469A70002308AAD3701300C8
S11304E02022B21812781A705A465A7030781900BD
S11304F0274B9847E6E75446049B1B03059A1202D0
S11305001343019A134323600422A3681A42FCD1C3
S1130510FF2323710422A3681A42FCD16B461B7B80
S113052063710A9BE3600B9B23614346A361194AF1
S1130530A3681342FCD14B46E3631022A3681A421A
S1130540FCD12B686363144AA3681342FCD16B6823
S113055023641C350021114802008A40A3681A4212
S1130560FCD104CD0B0010339B00E3185A60013119
S11305700429F1D1002070E6ED00000000040040E1
S1130580FFFFFF00280000200D0700008106000087
S1130590D1070000400002008000040000010800B0
S11305A017205AE6172058E6172056E6172054E677
S11305B0172052E6F0B5C64600B580000E4BC7586A
S11305C03B68DE6ABB6B7A6B13401E4000240B4B06
S11305D0984602E00434302C0AD04346E5583542AC
S11305E0F8D03B195B68380098473B68DD62F1E757
S11305F004BC9046F0BDC04628000020040B000057
S113060010B50020014B984710BDC046B505000049
S11306100C4B1B68002B06D1EFF31083002B07D083
S11306200022094B1A70074A13680133136070479C
S113063072B6BFF35F8F0022044B1A700132024B73
S11306401A70F0E7200000202400002000000020A1
S1130650084B1A68013A1A601B68002B09D1064B33
S11306601B78002B05D00122044B1A70BFF35F8F57
S113067062B6704720000020240000200000002003
S113068010B50400064B9847064B1C70064A538865
S11306908021C9010B435380044B984710BDC046C9
S11306A011060000020C0040000C0040510600003E
S11306B010B504000F4B98470F4B1C700F4A53881A
S11306C01B05180F53880E490B40538053880D495E
S11306D00B40538011008022D2014B881342FCD17D
S11306E006494A8803020648024013434B80064BDE
S11306F0984710BD11060000020C0040000C004099
S1130700FFF0FFFFFFBFFFFF5106000010B50C789C
S113071024020443024B9847A4B2024B5C8010BDF0
S1130720B1060000000C004030B5D378002B35D161
S11307301378802B29D01B06802464022343547829
S11307400225AC4306D19478002C20D18024A40245
S1130750234341605478013C012C1CD90D042D0C19
S1130760A024E4052C431C4384620D0CD0242406ED
S11307702C431C438462D478002C22D15B031CD507
S11307809378012B1ED0416117E00023D7E7C024E2
S1130790E4022343DDE70D4C2340DFE741600C0412
S11307A0240CA023DB05234383620C0CD0231B06FB
S11307B023438362D378002B03D15378013B012B6D
S11307C002D930BD8161F8E78160FAE7FFFFFBFFE2
S11307D010B50A00C1090023002904D14309DB0133
S11307E005498C4663441F242040012181401800A0
S11307F0024B984710BDC046004400412907000041
S1130800FEE70000F8B52A4A2A4B9A4211D01A0092
S1130810294B9A420DD2294A03339B1A9B08013370
S11308209B000022234822498C58845004329A4267
S1130830FAD1234A234B9A420AD2D34321495B1863
S113084003218B4304339B18002102C29342FCD141
S11308501D4AFF211D4B8B439360FD3990235B00A0
S11308601B4AD1501B4AD3780325AB4302242343AC
S1130870D370D3780C27BB4308263343D370164B6D
S1130880987B30229043202210439873997BB9437C
S1130890314399739A7BAA4322439A730F4A53684C
S11308A080210B4353600E4B98470E4B9847FEE74D
S11308B0700B000000000020040000200400002051
S11308C0040000201001002000ED00E00000000002
S11308D000700041005000410048004100400041C8
S11308E0BD0A00008D0A000010B5164B1A68136883
S11308F09B070FD5022493681C42FCD1124B536210
S1130900D36213680224A34313600E4B1C68A368CC
S1130910002BFCD113680124234313600B4A1018E5
S113092098300170074C0A4920000A4B9847226806
S1130930022193681942FCD1136802210B4313600E
S113094010BDC0462C0000200FF80F006C000020E2
S1130950001400422D020000064B1A68022193681D
S11309601942FCD1044B5362D362136802218B43B6
S1130970136070472C0000200FF80F0010B504001E
S11309801B4B9847062C2FD8A4001A4B1B599F4683
S113099001210020184B984710BD01210120164B5E
S11309A09847F9E701210220134B9847F4E7012106
S11309B00520114B9847EFE7012100200E4CA0477A
S11309C001210120A047E7E7012100200A4CA047AC
S11309D001210220A047DFE701210120064CA047A6
S11309E001210220A047D7E7014B9847D4E7C0462E
S11309F059090000340B0000E908000070B51B4DD4
S1130A001B4C290020001B4B9847072323761A4BC5
S1130A1023621A4B6360012323756375A3756376A0
S1130A200422A2650433A367FF21E161E365E36760
S1130A30F739216678316250114A62620922E2660E
S1130A408332A350FC33FF33A3620E4E22002900ED
S1130A5030000D4B98473268022193681942FCD14B
S1130A60136802210B43136070BDC046001400429A
S1130A706C000020F1000000FF010000FF030000F3
S1130A80FF0200002C0000202D02000010B5094BCD
S1130A9098470020084CA0470120A0470220A04707
S1130AA00320A0470420A0470520A0470620A04714
S1130AB0002010BDFD0900007D09000070B500266E
S1130AC00C4D0D4C641BA410A64209D1002600F065
S1130AD03FF80A4D0A4C641BA410A64205D170BD10
S1130AE0B300EB5898470136EEE7B300EB5898474C
S1130AF00136F2E75C0B00005C0B00005C0B0000AD
S1130B00600B00000100000002000000040000006F
S1130B100800000000100000002000000040000059
S1130B20008000000000010000000200000004003A
S1130B3000000800900900009A090000A4090000C0
S1130B40AE090000B8090000C8090000D809000077
S1130B50F8B5C046F8BC08BC9E467047B500000016
S1130B60F8B5C046F8BC08BC9E4670478D0000002E
S1070B70010000007C
S9030805EF
