S011000074696D65725F70776D2E737265633F
S113000000060020DD1E0000DB1E0000DB1E0000D9
S113001000000000000000000000000000000000DC
S1130020000000000000000000000000DB1E0000D3
S11300300000000000000000DB1E0000DB1E0000CA
S1130040DB1E0000DB1E0000DB1E0000DB1E0000C8
S1130050DB1E0000DB1E0000DB1E0000DB1E0000B8
S1130060DB1E000051140000611400007114000034
S1130070A51B0000311C00003B1C0000DB1E00001F
S1130080DB1E0000DB1E0000DB1E000010B5064C6A
S11300902378002B07D1054B002B02D0044800E045
S11300A000BF0123237010BD2000002000000000C9
S11300B0EC3C0000084B10B5002B03D0074908485E
S11300C000E000BF07480368002B00D110BD064BB9
S11300D0002BFBD09847F9E7000000002400002023
S11300E0EC3C0000EC3C000000000000037E01201A
S11300F0DBB218400222590700D51043134201D045
S1130100042318437047000010B58CB0684600F013
S113011065F80C4C6A460C49200000F081F823680D
S11301205A7E52B2002AFBDB0F229A751A7619788E
S11301300D3A0A431A702268537E5BB2002BFBDB34
S11301400CB010BD980000200020004270B5134C84
S113015023685A7E52B2002AFBDB0222197B0A432F
S11301601A735A7E52B2002AFBDB01252068FFF77E
S1130170BDFF2842FAD02068437E5BB2002BFBDB34
S1130180428B074B1A8001230376FFF7AFFF430727
S113019002D5022223681A7670BDC046980000205A
S11301A09400002030B597B002AD040050220A49F3
S11301B0280003F0EDFC092C0BD80023A40060599F
S11301C001A94B70CB708B70C0B201330B7001F07E
S11301D07BFC17B030BDC046A43B0000C0225201D6
S11301E0C281020000232A320370437043800371EA
S11301F003760362C361836003730374437483747B
S1130200C37403751370421D43758375D377C38418
S11302100385C37526322C301370037070470000B9
S11302208023F0B51400AB4A01600700106A5B003C
S1130230034313620B7887B00520DB0700D5E5E0A4
S11302400B7817309B0700D5E0E063783B71002BF7
S113025004D1A14A0433116C0B431364237805A918
S113026013200B703D6801F0CDFB132001F08EFBD1
S113027023002C3302931B78227B0192002B33D072
S113028022002B321678019A9619F6B29B19DBB22A
S11302900393019BF01A039BC0B2B3421BD8E089BD
S11302A0FFF780FF637D9B00DBB22B70A37D627838
S11302B0DB011343DBB26B702379302B00D1B2E046
S11302C016D8102B00D1ABE0202B00D1ABE0002BD3
S11302D018D11A00A5E00F231840237B0136C0185B
S11302E0FFF760FFF6B2D4E70198FFF75BFFD6E7AC
S11302F0322B09D000D298E0332B00D18CE0342B80
S113030000D185E0172081E004221023022170200F
S1130310090101400A43AA70E27D3F2AF2D8EA703B
S113032039684A7E52B2002AFBDB6188E27C0A43C8
S1130330611DC87FC0000243207D80000243A07C71
S1130340400002431A43AA80227E9446002A07D022
S1130350102B00D1AFE000D969E0002B00D19BE065
S11303603868437E5BB2002BFBDB63462B723A6832
S1130370537E5BB2002BFBDBA38BAB833A68537ECB
S11303805BB2002BFBDB238C2B84029B1A78002AA4
S113039003D0013AD2B20F2AB4D823002B331878F1
S11303A00F28AFD83E68737E5BB2002BFBDB267B45
S11303B0E38900053343A66812043343034313431C
S11303C02B6123002A331B782B750F23AB75CB7F4E
S11303D0002B0CD0E38C41498B4293D8AB8480230F
S11303E0228D1B01D3189BB28B428BD8EA84E02266
S11303F03B4B00201968D2004B0119001A40394BBD
S11304001B68DB0E0B43DBB213432B8507B0F0BD37
S1130410617C227C10237AE706221023012176E7EF
S11304200822002173E70022FBE70222F5E7202BD4
S113043018D0302B00D093E7E37CE069002B09D07F
S113044003008033FF2B00D95CE7236A8033FF2B42
S113045000D957E7FF2800DD54E7236AFF2B00DDAE
S113046050E77DE7E07CE6691F4B00280CD0802034
S113047080003018984200D944E78022206A920014
S11304801018984200D93DE79E4200DD3AE7226AFF
S11304909A4200DD36E763E7E07CE6690F4B00280B
S11304A0F2D080221201B018984200D92AE78020A5
S11304B0226A0001E4E7E07CE6690C4B0028E3D003
S11304C080221202B018984200D91BE78020226AC9
S11304D00002D5E70004004000080040FF0F0000C0
S11304E02460800020608000FF030000FFFF000004
S11304F0144B1549186A154A154B400418D40120A9
S1130500087019680139196011680139116011689E
S1130510002904DC01200F4908700021116000202B
S113052019680D4A81420ADC107018600130704766
S113053000200870022119608F31FF31E6E70123A2
S11305401370F4E7004400413C0000200000002048
S113055008000020400000203D000020144B1549F5
S1130560186A154A154B000418D40120087019683C
S1130570013919601168013911601168002904DC1E
S113058001200F49087000211160002019680D4AEC
S113059081420ADC10701860013070470020087036
S11305A0022119608F31FF31E6E701231370F4E76C
S11305B0004400413E000020040000200C00002004
S11305C0410000203F00002010B50A1E0A4C00D054
S11305D00A4A0100200001F0BFFA04211F2022680A
S11305E093680B42FCD15379834302D0602BF7D13B
S11305F010BD60235371FBE7A0000020FF0300003F
S1130600002110B50800FFF7DFFF00210220FFF7EB
S1130610DBFF00210120FFF7D7FF00210320FFF7B4
S1130620D3FF10BD10B50400FFF7EAFF062C0AD86B
S11306302000012101F08EFD040E14080A1016009A
S11306400020FFF7C1FF10BD0320FAE70020FFF7E9
S1130650BBFF01210800F4E70020FFF7B5FF0121EB
S11306600220EEE70220F2E710B5134C207801389F
S113067006281BD801F06EFD040A10121416180087
S11306800020FFF7CFFF01F09DFC10BD01F0B6FC88
S11306900120FFF7C7FFF8E70220FAE70420F8E794
S11306A00520F6E70620F4E70320F2E7FFF7A8FFAA
S11306B000232370E9E7C04642000020A02100B5D2
S11306C08FB001AAC90091802D21002355206944CF
S11306D0138508702E2140386944538508704021E1
S11306E01370138153709372D37213739373537390
S11306F013771362536293850433937091719361FA
S11307003639033B516113740249034801F0ACFAD2
S11307100FB000BD001C0042A0010020084B1B6864
S1130720DA7B52B2002AFBDB022219880A431A80C0
S11307304022044B9A61044B3F3A1A707047C046FA
S1130740A0010020004400414400002000210E4B81
S113075010B50E4C19700E4B15222000197001F0C3
S113076097FB2368DA7B52B2002AFBDB3B2202218F
S11307701A739A731A888A431A804022054B5A6165
S11307800022054B1A7010BD46000020A001002075
S113079045000020004400414400002010B50E4BE9
S11307A01B78002B0BD00D4B22221B78022B02D07E
S11307B0032B05D14D220021094801F069FB10BD2E
S11307C0042B04D10122074B1A704C32F3E7042B9B
S11307D0F5D9FFF7BBFFF2E74400002045000020F5
S11307E0A001002046000020084B1B78002B08D0F5
S11307F0074B084A18784021002803D05161002291
S11308001A707047012018709161FAE746000020C1
S1130810430000200044004110B5FFF769FE0028A2
S113082007D02B4C2378002B2FD0FFF78FFF00230A
S11308302370284B1B78002B02D00022264B1A7001
S1130840FFF78CFE002807D0244C2378002B30D0EF
S1130850FFF77CFF00232370214B1B78002B02D071
S11308600022204B1A70204B1B78002B0CD01F4BFE
S11308701B78002B01D0FFF769FF1D4B1A781D4B25
S1130880002A23D101321A7010BD134A1378002BA9
S1130890CFD119490B7801330B7001231370134B1B
S11308A01B78002B02D1FFF739FFC2E7FFF776FF71
S11308B0BFE70C4A1378002BCED110490B780133D3
S11308C00B7001231370FFF7CFFEC5E70022DAE7B0
S11308D0400000203D0000204C000020410000208A
S11308E03F0000204B000020BD01002044000020F8
S11308F0BE010020480000204500002042000020E6
S1130900114B124A1B88934208D80122104B1A70CB
S11309100023104A1370104A137070470F4A934211
S113092006D8002301210A4A13700A4A1170F2E71B
S11309300B4A9342F1D80023054A1370054A1370F9
S11309400122054B1A70E8E794000020790C00009E
S11309504A00002049000020470000202B0D000021
S11309608E0E000010B50A4B1A78002A03D000221C
S11309701A70FFF751FF074B1A78002A07D000229C
S11309801A70FFF731FFFFF7E1FBFFF7B9FF10BD66
S11309904E0000204F00002019490B685A1C0A60C1
S11309A0184B092A07DD1A6801321A6000220A600E
S11309B00121154A11701968144A042907DD1168C8
S11309C00131116000211960114B01311970116856
S11309D0104B012907DD19680131196000211160EC
S11309E00D4A013111701A68012A08DD0B490A68A1
S11309F001320A6000221A60094B01321A707047F2
S1130A005C000020580000204E00002064000020FC
S1130A1050000020540000204D0000206000002001
S1130A204F000020F7B502250027012601AC210064
S1130A301B202770A770657000F02AF9210006209A
S1130A402670657000F024F9210007202670667076
S1130A5000F01EF921000F202770657000F018F9CE
S1130A6021000B202770657000F012F9210003208B
S1130A702670657000F00CF928002100277065705D
S1130A8000F006F921001020267000F001F9210081
S1130A900E202770667000F0FBF8F7BD002310B538
S1130AA08EB001AA138513709371138153709372DE
S1130AB0D3721373937353735361936113771362F4
S1130AC053625385938504339370A023DB00938092
S1130AD02D236F216B4419700123084C13740849AA
S1130AE0200001F0C1F82368DA7B52B2002AFBDB54
S1130AF0022219880A431A800EB010BDE0000020BB
S1130B000018004210B50C4C00220C49200001F0E2
S1130B104EF8206801F096F8094B1A5C1F231A401E
S1130B201E3B19009140074A1160627E1A436276A7
S1130B302268537310BDC046E000002099090000EC
S1130B40F43B000000E100E04022074B5A61921898
S1130B505A61802212025A61802212015A610822CB
S1130B609A61043A5A6170470044004110B500F09C
S1130B70C0FF0122094B1A70BFF35F8F62B6FFF703
S1130B8051FFFFF7E1FFFFF789FFFFF7BBFF01F01C
S1130B9089FAFFF7B9FAFFF791FD10BD10000020A4
S1130BA00121064B06481A6AD20E0A4002701B6ADB
S1130BB0044ADB0A0B4013707047C04600440041EE
S1130BC0BD010020BF01002010B5104B1B78002B85
S1130BD006D00F4B1B78002B14D001F02BFA10BD5C
S1130BE00C4B1B78002B02D001F040FAF7E70A4BBC
S1130BF01B78002B02D001F0E5F9F0E7074B1B78D6
S1130C00002BECD001F0C4F9E9E7C046BD01002097
S1130C10480000204A00002049000020470000202E
S1130C2010B5FFF7BDFFFFF7CFFF10BD094B1968E3
S1130C3000290BD1EFF31080074A002805D172B6C2
S1130C40BFF35F8F05490870012111701A680132E2
S1130C501A607047680000206C000020100000201B
S1130C60084B1A68013A1A601B68002B09D1064B1D
S1130C701B78002B05D00122044B1A70BFF35F8F41
S1130C8062B67047680000206C000020100000204D
S1130C9007B5802201AB1A700A785A704A789A70A4
S1130CA08A781900DA7000F00FFF07BD0723016886
S1130CB0CA691A42FCD17047F0B507008BB039609D
S1130CC0080014000E0000F07DFB0125831C9D40EC
S1130CD02B009A4A0E30116AC5B20B431362237B70
S1130CE008AA11002800137000F08CFE280000F000
S1130CF04DFE207B002100F0EDFA33681C209B0799
S1130D0000D50DE10123356817381D4000D007E1F7
S1130D10386800F057FB8A49019000F071FB019B91
S1130D203D769A00874B7D76D750BB1D7D83BD836E
S1130D30DD7714233D6233603B6809AE18000193EC
S1130D4000F040FB80230490E06933707F3B7570B2
S1130D50F570B370256A002803D10100019800F0F2
S1130D60D7FA02233070000CC0B23100737000F067
S1130D70ABFE002D04D10121019800F0C9FA050051
S1130D80022335702D0CE8B23100737000F09CFE24
S1130D90A38AFB80E38A3B81227E8023002A06D13A
S1130DA0694B02329B7813405F1EBB41DB01A26892
S1130DB0276917431F43631DDB7F002B02D0802369
S1130DC0DB051F43A36A1F4323002C331B78002B2E
S1130DD003D180239B049A4202D180231B051F4325
S1130DE023002D331B78002B02D080231B041F43C8
S1130DF023002E331B78002B02D08023DB031F43F8
S1130E00019B04981B68019A1F43019BFA251F60EC
S1130E1080230E305B005360C0B200F0FFFD2368F6
S1130E20AD005D4363680490059302F037FE06004D
S1130E3068000F0002F032FE02900391208E02F04F
S1130E402DFE424A06900791414B3000390002F0D2
S1130E505BF802000B000698079902F055F800228F
S1130E603C4B01F00DFA06900791280002F016FEA3
S1130E7002000B000698079902F046F802000B00E6
S1130E803000390002F0C0FA029A039B01F0F8F92D
S1130E900022314B02F0B8FA029A039B01F000FDE4
S1130EA002F0C8FD8023A26802909B049A4241D1BB
S1130EB0FA23059D9B0032005D4330003B0039005E
S1130EC001F0DEF9060028000F0002F0E7FD002221
S1130ED0224B02F019F802000B003000390001F037
S1130EE0DFFC00221C4B02F08FFA02F0A3FD061E69
S1130EF018D02900049801F037F90238831B029AAC
S1130F004020FF2A0CD8FF2B0AD8FF20140000042D
S1130F101B040340002036063443019A2343D36064
S1130F200BB0F0BD049B6900481EC01801F01CF909
S1130F30431EE4E700263300E1E7C0460004004016
S1130F4055110000C00100200020004195D626E87C
S1130F500B2E113E000024400000F03F000008402A
S1130F6002220368197E114206D01A765B8B412057
S1130F7013420AD1002008E05A8B5207FAD5C02246
S1130F801820596892020A435A60704770B50022CB
S1130F900126022401680B7E334002D10D7E2542D6
S1130FA001D0002005E00132038992B29342F2D8C5
S1130FB0122070BD802310B50468DB0262681343FD
S1130FC063606162FFF7E2FF0123237610BD000036
S1130FD0F7B50F004B88050001930468FFF766FE20
S1130FE07B7A002B03D0B97A2800FFF7E3FF63680C
S1130FF0244A134063607A7A3B88397A5B0092030F
S11310001343002902D08022120213436362280092
S1131010FFF7BCFF061E15D12800FFF7A1FF061E2F
S113102010D10090009B019A93420DD10026AB7A17
S1131030002B07D02800FFF739FEC02362689B020B
S1131040134363603000FEBD2022638B134216D02D
S11310502800FFF72BFE7B68009A28009A5C230087
S113106028331A70FFF792FF061EE0D1009A638BB3
S11310700132009204221342D4D01E26D7E741261F
S1131080E0E7C046FFFFFBFF10B5828B030005209D
S1131090002A05D101329A72DA721800FFF798FF1C
S11310A010BD07230168CA691A42FCD1704770B5A4
S11310B0056804002A68468B838BF61A838BB6B2C4
S11310C0013B9BB28383C37A12010AD5002B0DD056
S11310D0838B012B0AD180236A68DB0213436B6084
S11310E004E0002B02D0838B002BF4D0A38B002BC5
S11310F00AD1A37A002B07D02000FFF7D2FFC02328
S11311006A689B0213436B602000FFF7CAFF236ADF
S113111028359E192B78DBB2337070BD70B5066824
S11311200400738B5B0703D51E230634E37770BD7D
S1131130458B838B2836ED1A838BADB2013B9BB272
S11311408383FFF7AEFF236A5D192B78DBB233701C
S1131150EDE70000F8B55E4B8000C4582568A61D75
S11311602B68627E277E1B011740628BDB0F002AEF
S11311702ED1A28B002A2BD001232A7E1A4206D01C
S113118002222B766B8B134010D04123F377A38B71
S11311909BB26383F37F052B3CD1631DDB7F20006F
S11311A0002B00D08AE0FFF7B9FF33E06A8B5207C7
S11311B0EDD51822F277A383A37A002BE7D0200081
S11311C0FFF76FFFC0236A689B0213436B60DEE77F
S11311D0628B002A5FD0A28B002A5CD1F27F052AA1
S11311E059D1621DD27FD2B2002A54D103232B7568
S11311F06283F277A37A002B4AD02000FFF751FFD5
S1131200C0236A689B0213436B60FB0702D5E36843
S113121020009847638B002B1BD0A38B002B18D185
S1131220F37F052B15D1631DDA7F012A11D1297EA5
S11312300132114200D02A7603222A7500226283E9
S1131240F277BA073DD5DA7F012A3AD12369200023
S11312509847F37F052B1AD0F37F002B17D0032375
S11312602B7500236383A383F37F412B0AD0A37AD6
S1131270002B07D02000FFF714FFE0236A68DB028D
S113128013436B607B0702D5636920009847F8BD60
S113129001232B76B9E7628B002ABBD0A28B002AEC
S11312A0B8D06A8B920600D577E7002B03D0A38BC6
S11312B0012B00D171E74123F377ABE7FFF7F7FE8A
S11312C0A8E7FA07C5D5DB7F002BC2D1E368BEE7E8
S11312D0C001002037B50D4C05002378002B01D048
S11312E000290CD001A90D200D7000F08BFB0D20FE
S11312F000F04CFB01230020657023703EBD637831
S11313000800AB42FAD01D20F8E7C0466D0000206B
S11313101D4A030000B50800934213D01B4A9342B0
S11313201DD01B4A934227D10023032904D800F07F
S113133011FF25020507174B180000BD164BFBE7EC
S1131340164BF9E700230329F6D800F003FF19022E
S11313500406134BF0E7134BEEE7134BECE70023C3
S11313600329E9D800F0F6FE0E0204060F4BE3E76A
S11313700F4BE1E70F4BDFE70023DDE70E4BDBE725
S11313800E4BD9E70E4BD7E7000C00420010004289
S113139000080042030005000300060003000700E4
S11313A00200170003001E0003001F0003001700C3
S11313B003001000030019000300040002001600DB
S11313C0030016007FB50C4B0100180001AA70C879
S11313D070C2019A8A420AD05A688A4209D09B682C
S11313E000208B4201D10230C0B204B070BD002095
S11313F0FAE70120F8E7C046F83B00007047000018
S113140070B5094E094B3278002A09D1084C094DB0
S113141022606260A26001321D605D609D60327076
S11314208000195070BDC0466F000020700000207D
S1131430C0010020FD130000092313B501AC237083
S1131440013363700133A370FFF7BCFF205616BD50
S113145010B5024B00201B68984710BD7000002097
S113146010B5024B01205B68984710BD7000002046
S113147010B5024B02209B68984710BD70000020F5
S113148010230249CA681A42FCD070470008004081
S1131490022270B500260A4D0A4C2B6813432B60B8
S11314A0A284FFF7EDFFAB68E3626B68A362A684D6
S11314B0FFF7E6FF2B6830009BB2A38470BDC046E3
S11314C07C0000200008004070B5082806D800F011
S11314D041FE0805053030120B15280000242000B9
S11314E070BD164B1C69FAE7154B164C1B6A9B051D
S11314F09B0FDC40F3E7114B5C69F0E70F4D0024D0
S11315002B689B07EBD5FFF7BBFF24222B68134006
S1131510042B11D1200000F081FAAC68A4B244433A
S1131520DDE7094B00241B785B07D8D5034BDC6847
S1131530D5E780242402D2E7044CD0E77C000020C5
S11315400008004000127A0050080040006CDC02E1
S113155070B5847802784578012040260540204003
S113156080240849AD010B6AC001B3432B43A34354
S113157003430320024004481202034013430B6256
S113158070BDC04600080040FFFCFFFFF7B5184FD0
S11315904678BB69190003780193042342790479DE
S11315A0C5780092012299430823807816401040A0
S11315B0800008439843F60006431540A80135000F
S11315C038339D4305431440E30180202C008443B9
S11315D01C43072301990B4006491B022140194370
S11315E0009B1A401303044A0A401A43BA61F7BD28
S11315F000080040FFF8FFFFFFEFFFFF10B5027A7D
S1131600438992069B059B0D120C1A43174B5A6093
S1131610C179827984880A43418821430A43417805
S11316200478C9010A431A60042C0DD1027B018A93
S113163092060A43C1890E48090401400A439A608C
S11316401A6814431C6010BD202CFCD1027B018A53
S113165092060A43C1890648090401400A439A6074
S11316601968044A0A431A60EDE7C0467C0000206A
S11316700000FF032404000010B5082806D800F079
S113168069FD1405050C0E1A07202300172010BD50
S11316900223104A116A0B4313620020F7E7022366
S11316A00C4A91690B439361F7E70223094A118AB3
S11316B00B431382F1E70223064A918A0B43938278
S11316C0EBE7FFF7E5FEE2E70223034A11780B4359
S11316D01370E2E70008004044080040C2231E22C1
S11316E0F0B50025484EDB004849B3604B688DB027
S11316F093431C3A134307AC4B602270E8B22100B9
S1131700013500F07FF9182DF8D1414FB2693B68DB
S11317104049DB045B0E0A401B041343B3610123FD
S1131720002502A843708370037106330370C570EB
S11317304571FFF72BFF0420FFF79EFF3F236381D2
S11317403B3B6580A580A571E571237065703B689E
S11317509B0E3F2B00D1203B2372B723DB00238257
S1131760072323733F23002501272000E381FFF78C
S113177045FF01A8457087700570FFF7E9FE062054
S1131780FFF77AFF00F050F8042304AC210038007E
S11317902370676065702572657200F055F8380033
S11317A000F0A0F807232100032023706760657010
S11317B02572657200F048F8032000F093F82100C8
S11317C02800277000F01EF9280000F0DFF8FFF76A
S11317D05FFED022F3681340D02BFBD100250E4BC3
S11317E021001D725D729D72DD7201232800636009
S11317F00533237065702572657200F025F82800A2
S113180000F070F80DB0F0BD000800400040004149
S113181024608000FFFF80FF00040040014B5878E3
S1131820C0097047000C00400823054A91690B4326
S113183093610123034A137011781942FCD1704754
S113184000040040000C004070B50C784B78240272
S1131850060005000443002B02D08023DB021C4356
S11318604B7A002B02D080231B031C434B68012BB3
S113187012D95D1E1D400222002D06D01D028023B8
S113188035439B0207E0013552009A42FBD3802383
S11318902D0235435B031C430B7A002B02D08023BB
S11318A09B031C43FFF7BAFF0028FBD1FFF7BEF9E7
S11318B00A4B1E70FFF7B2FF0028FBD1084B9D6056
S11318C01D00FFF7ABFF0028FBD180226B6852029A
S11318D013401C436C60FFF7C3F970BD080C004053
S11318E0000C004010B50400FFF798FF0028FBD15E
S11318F0FFF79CF9074B1C70FFF790FF0028FBD102
S11319008023054A5B0251680B435360FFF7A8F933
S113191010BDC046040C0040000C0040F8B50700A0
S1131920FFF77CFF0028FBD1154EFFF77FF93770D6
S1131930FFF774FF0028FBD1124C6068C004C00E8E
S1131940FFF7C2FD0500377066680F4BF602F60F0D
S11319501F70FFF763FF0028FBD1A4682402240C46
S1131960FFF77EF9002E08D1012C04D928002100AC
S113197000F0FAFB05002800F8BD0134E540FAE761
S1131980040C0040000C0040080C004010B504009A
S1131990FFF74CF9054B064A1C7080235188DB0184
S11319A00B435380FFF75CF910BDC046020C0040A6
S11319B0000C004010B50400FFF738F90D4B0E4A37
S11319C01C700E4B0E4C58885988000511405980E4
S11319D05988000F2140598011008022D2015C886F
S11319E01442FCD15A8800020A4002435A80FFF78D
S11319F037F910BD020C0040FFF0FFFF000C00405F
S1131A00FFBFFFFF10B50C7824020443FFF7D2FF99
S1131A10014BA4B25C8010BD000C004010B5040062
S1131A20FFF704F9054B1C70054B5C88FFF718F9A8
S1131A302405240F2000FFF771FF10BD020C0040A5
S1131A40000C0040D37830B5002B35D11478802CAD
S1131A5003D0802324065B02234302255478AC433D
S1131A6006D19478002C24D18024A402234341601D
S1131A705478013C012C01D8124C2340A0248DB28F
S1131A80E4052C431C438462D0240D0C24062C430F
S1131A901C438462D478002C0AD15B0303D5937869
S1131AA0012B0CD181615378013B012B00D881605B
S1131AB030BDC024E402D9E741600023DEE7416180
S1131AC0F1E7C046FFFFFBFF10B503000A0044091D
S1131AD0C1090020814202D10449E00140181F21BC
S1131AE00B401E399940FFF7ADFF10BD0044004183
S1131AF0704710B5FFF7F2FDFFF7FAFFFFF7F8FFA5
S1131B00FFF7F6FF10BD000030B5040017200329CD
S1131B1013D8104DAA4210D8002B0FD080235B029B
S1131B208B40206B0342FCD180252D038D40A0689F
S1131B302840FCD11C3189000A5130BD802040006E
S1131B408840A3680340FCD11031890061184A60C1
S1131B501800F2E7FFFFFF00030010B53C331B78C9
S1131B600068FFF7D1FF10BDF8B500250B4B8000CE
S1131B70C4582368626BDE6AA36B13401E40084B93
S1131B80EF58374205D063195B68200098472368F3
S1131B90DF620435302DF2D1F8BDC046CC010020FF
S1131BA0043C000010B50020FFF7DEFF10BD931CBD
S1131BB09B001950037E022A04D10E32134303768C
S1131BC000207047032A01D11D32F7E7012191401B
S1131BD00B43F4E770B50126144B8000C458236806
S1131BE0227E657E9B7B15401D40354204D0A36850
S1131BF02000984723689E730226354204D0E36888
S1131C002000984723689E731026354204D0236928
S1131C102000984723689E732026354204D06369C8
S1131C202000984723689E7370BDC046D0010020F1
S1131C3010B50020FFF7CEFF10BD10B50120FFF74F
S1131C40C9FF10BD064B984207D0064A00239042B4
S1131C5001D10133DBB2180070470023FAE7C04614
S1131C6000180042001C0042F0B5050085B00800D1
S1131C7014000E00FFF7E6FF6A4612231371537136
S1131C802E331381403353810023AB60EB602B610F
S1131C906B612B766B767C4B8200D5502E60A378DB
S1131CA00700082B03D11720FA0700D5D5E001223D
S1131CB02B7133880520134200D0CEE0F37B17301C
S1131CC0DB0600D5C9E0022133880B4000D0C4E014
S1131CD0217C002908D003A9CB70237E207D8A7043
S1131CE00B704A70FFF7F0FE237F002B0ED000220A
S1131CF0012303A9CA7024328B70A2184B701F33BE
S1131D001278E31818780A70FFF7DEFE7A0094461A
S1131D1068460822801862465C4B825A196A0A4354
S1131D201A62A278082A0AD1791C4A00944608212A
S1131D306A4652186146186A525A02431A626A463F
S1131D402378694613706B460433DF5D3800FFF770
S1131D5059FE3800FFF71AFE2389A288A1791A4395
S1131D60A3780B4313436278002A02D08022120125
S1131D7013432968CA7B52B2002AFBDB3380637B9E
S1131D805A1E9341A27B9B00002A01D001221343D7
S1131D902968CA7B52B2002AFBDBFF223271002B76
S1131DA005D02968CA7B52B2002AFBDB7371E37A3F
S1131DB0A27A002B01D010231A43237B002B01D0DD
S1131DC020231A432968CB7B5BB2002BFBDBB27167
S1131DD02B68DA7B52B2002AFBDB2A79042A19D059
S1131DE0082A3CD01720002A37D1DA7B52B2002AC5
S1131DF0FBDB238D33822A68D37B5BB2002BFBDBB6
S1131E00638D33832A68D37B5BB2002BFBDBA38D0A
S1131E10738321E0DA7B52B2002AFBDB23002833F0
S1131E201B7833742A68D37B5BB2002BFBDB230063
S1131E3029331B7833752A68D37B5BB2002BFBDB19
S1131E4023002A331B7833762A68D37B5BB2002BBA
S1131E50FBDB2B3423787376002005B0F0BDDA7BEE
S1131E6052B2002AFBDBA36A33612A68D37B5BB2DC
S1131E70002BFBDBE36AB3612A68D37B5BB2002BE4
S1131E80FBDB236BF361E7E7D00100200004004093
S1131E9010B50468E37B5BB2002BFBDB0379042BF6
S1131EA00CD0082B12D01720002B0ED1172001299B
S1131EB00BD80C3192B249000A5305E017200129CE
S1131EC003D8D2B261180A76002010BD1720012968
S1131ED0FBD8063189000A51F6E7FEE7214822497A
S1131EE070B5884204D00023204CCA18A24232D3D1
S1131EF000211F4B1F4A934231D3FF211E4B1F4A1F
S1131F008B43936002220C25082430261C4B1D4869
S1131F105A62C378FC398B431343C370C378AB4311
S1131F202343C370184B987BB043060020203043F2
S1131F309873987BA84304439C73987B884302431B
S1131F409A738023114A51680B43536001F0FCFDDE
S1131F5000F0F8F8FEE7C55804331560C5E702C37E
S1131F60C9E7C046EC3C000000000020200000202F
S1131F7020000020000200200000000000ED00E02E
S1131F80FC70004100500041004800410040004105
S1131F9073B5022501AE2A000749300001F0F8FDAF
S1131FA03123064C66602380658021000448FFF7D6
S1131FB06BF80028F9D173BD343C000014000020F4
S1131FC0D801002073B50225094901AE2A00491938
S1131FD0300001F0DDFD3123064C6660238065800E
S1131FE021000548FFF750F80028F9D173BDC04619
S1131FF0343C000014000020D801002073B50225F1
S1132000094901AE2A000431300001F0C1FD312339
S1132010064C66602380658021000548FFF734F88C
S11320200028F9D173BDC046343C000014000020E0
S1132030D801002073B50225094901AE2A000631F2
S1132040300001F0A5FD3123064C666023806580D5
S113205021000548FFF718F80028F9D173BDC046E0
S1132060343C000014000020D801002073B5022580
S1132070094901AE2A000831300001F089FD3123FD
S1132080064C66602380658021000548FEF7FCFF4E
S11320900028F9D173BDC046343C00001400002070
S11320A0D80100208021642370B58EB001AA890371
S11320B01161012101931E4B494253600023918217
S11320C00A316944CB770CA90B70312169440B7038
S11320D032216944936013731376D361136293625C
S11320E00B70144ED7331386134B14493000D3822C
S11320F0FEF7E2FD07223568EC691440FCD10223A7
S11321002A6813432B603068FFF796F91F231840A1
S11321101E3B83400A4A13601022F088698B1142E7
S113212003D101348442F9D36A830EB070BDC04632
S1132130480D0000D80100201027000000100042C4
S113214000E100E010B5FEF711FDFEF769FDFEF7B2
S113215009FCFAE702B4714649084900095C4900E0
S11321608E4402BC7047C046002243088B4274D39D
S113217003098B425FD3030A8B4244D3030B8B4284
S113218028D3030C8B420DD3FF22090212BA030C8D
S11321908B4202D31212090265D0030B8B4219D36E
S11321A000E0090AC30B8B4201D3CB03C01A52418E
S11321B0830B8B4201D38B03C01A5241430B8B42D6
S11321C001D34B03C01A5241030B8B4201D30B03BF
S11321D0C01A5241C30A8B4201D3CB02C01A5241E6
S11321E0830A8B4201D38B02C01A5241430A8B42A9
S11321F001D34B02C01A5241030A8B4201D30B0292
S1132200C01A5241CDD2C3098B4201D3CB01C01AAB
S1132210524183098B4201D38B01C01A52414309B5
S11322208B4201D34B01C01A524103098B4201D3A3
S11322300B01C01A5241C3088B4201D3CB00C01A10
S1132240524183088B4201D38B00C01A5241430888
S11322508B4201D34B00C01A5241411A00D20146AD
S1132260524110467047FFE701B5002000F006F820
S113227002BDC0460029F7D076E770477047C046D4
S1132280F8B54546DE4657464E460C03E0B54E00CB
S1132290C90F88460D00610A440F0C43C700190397
S11322A05800DB0F9B464B0A510F0B43760D400D34
S11322B01900D200D84500D1AEE0351A002D00DC5B
S11322C0F6E000280FD1134300D1DBE06B1E002B96
S11322D000D037E1BA1A9742BF41641A7F42E41B27
S11322E00126170024E0C64B9E424DD080231B04D8
S11322F01943382D00DD07E11F2D00DD38E12020D2
S1132300431B9A460B0050468340994613004846A7
S1132310EB401843030050468240501E8241E9407E
S11323201A43BA1A611A9742A441170064420C1B5B
S1132330230262D56402650A002D00D1DFE0280083
S113234001F0E4FB0300083B1F2B00DDD2E0202258
S11323503C00D21A9D40D4409F4025439E4200DD5C
S1132360C4E09E1B731C1F2B00DDF1E0202238000B
S11323702900D21AD840914097402C000143781E7E
S11323808741DC4000260F437B0709D00F233B40E5
S1132390042B05D03B1DBB42BF417F42E4191F0003
S11323A023022CD5964B01369E4200D19AE0454635
S11323B0944BFF081C406007760564020743240B16
S11323C0760D00212403230B0C0D8F4A24051C4396
S11323D01440330523435B00ED075B082B433800AF
S11323E019003CBC90469946A246AB46F8BD6446EB
S11323F0044300D111E2040067467B07C6D1454679
S11324006007FF080743E4087D4B9E4230D0240355
S11324107605240B760DD4E7331A9A46002B78DD23
S1132420002831D076488642AED080200004014393
S11324305346382B00DCE9E00A43511E8A4100214F
S1132440D219BA42BF4109197C4217000C19230260
S1132450D3D56B4B01369E4200D13AE10120694B42
S11324601C407B0807401F43E007074364088BE7D1
S113247023003B4300D1CBE1802212031443240305
S1132480240B9EE72E007FE70800104300D1B4E040
S1132490581E002800D0DEE0BA18BA429B416418E6
S11324A05B42E418170001262302A6D50226D5E7CD
S11324B0002D6ED1701C4005400D012800DCF9E0B0
S11324C0B81A844687428041E51A40422D1A2802F0
S11324D000D489E0D71BBA4292411C1B5242A51A70
S11324E0D84629E74546002400276AE7454CF61AF2
S11324F02C4049E73D002838854000272EE7380066
S113250001F004FB20301DE70A43511E8A410021DB
S113251007E7002B00D0F3E0701C43055B0D012B93
S113252000DCADE0364B984200D1D1E0BA18BA4293
S1132530BF4164187F42E419E7075208174364084F
S1132540060021E72E48854200D193E01D00D0E625
S113255029001F3EF140202B00D18DE04022D31AE8
S11325609D402F437D1EAF4100240F43002644E7C6
S11325702B000800203BD8400300202D00D17DE033
S11325804020451BA9400A43511E8A4100211A4399
S1132590C7E6002E50D01A4EB04257D080266B4268
S11325A09946360434434B46382B00DDD6E01F2BC6
S11325B000DD35E12026F51A2600AE40B2463E0085
S11325C0DE40AC46350056462E436546AF407D1E80
S11325D0AF41DC403743D71BBA4292410C1B5242F5
S11325E0A41A0600D846A3E6644667462C4300D0E6
S11325F0A2E600250026002706E71E00C4E6C04622
S1132600FF070000FFFF7FFFFFFF0F801F2B63DC2E
S11326102020C31A080098409C4683465346100065
S1132620D84003005846184363469A40531E9A41C3
S113263053460243D94003E726003E4306D0EB430A
S11326409946002BC7D0944EB042ACD10C00170071
S11326500600D84698E6904B9A450BD08246E7E6AA
S1132660002800D09EE01800104300D1E9E01C00CF
S11326701700D846884E87E6002572E7002182E7D6
S113268023003B43002E00D0ABE0002B00D1E7E059
S11326900B00134300D177E6BA18BA42BF4164185D
S11326A07F42E419230200D4F2E07C4B17001C4063
S11326B0060069E620003843002ED1D100285BD102
S11326C01C00144300D1A8E01C001700D8465BE6A8
S11326D006000024002797E650460B002038C3402C
S11326E099465346202B00D195E0402350461B1AAF
S11326F099400A43511E8A414B4600211A439FE6E2
S1132700002E30D126003E4367D0DB439A46002B8F
S11327101CD0614EB04260D05346382B00DD96E0A9
S11327201F2B00DD9FE02026F31A26009E409C46C6
S1132730B34653463E00DE4033005E461E436346C6
S11327409F407B1E9F415346DC403743BF1897424E
S1132750924164185242A418060078E627437C1E6E
S1132760A741002437E74C4EB04236D080265B4266
S113277036049A463443CFE71800104300D103E6E9
S1132780B81A84466745AD41E01A6D42401B050204
S113279000D42CE6D71BBA4292411C1B5242A41A05
S11327A0D846F1E51800104300D163E7F80867073D
S11327B007438020E4080003044208D0DD080542F2
S11327C005D1D208590711430F002C00D8467B0FBE
S11327D0E4001C43FF00304ED6E50C001700060051
S11327E0D2E5002B38D00B00134300D142E7F808A0
S11327F0670707438020E40800030442E7D0CB08BE
S11328000342E4D1D208490711430F001C00DEE75C
S113281000270024D5E500216BE700250027F3E518
S11328204E462500203EF5404B462E00202B2DD051
S11328304025ED1AAC4027437C1EA74100243743B2
S1132840C9E6802400252403134E0027DCE5274332
S11328507C1EA741002479E70C0017000E4E93E577
S11328600C00170090E556462300203EF34099469D
S11328705346202B0ED0402356469B1B9C40274397
S11328807C1EA7414B4600241F435FE70024D2E788
S11328901700B2E50024F2E7FF070000FFFF7FFF07
S11328A0F0B557464546DE464E46E0B54C000E03AD
S11328B087B0834692461D008046360B640DCF0FC9
S11328C0002C4FD06F4B9C4235D08023420F1B0409
S11328D0F600134333439946C30098466A4B0026D7
S11328E09C460023644403932B031B0B9B466B0001
S11328F0ED0F50465B0D01955ED0624A934253D072
S11329005A46D1008022400F120402430A439346E0
S11329105246D1005C4A9446002263443800684021
S113292084460290E41A16430F2E00D9B4E0574BA4
S1132930B6009B599F460300334399466CD100234C
S11329409846023308260393CEE7CB464146039AC2
S11329500197022A65D1019B4A4C9C460023002220
S113296098466BE00300334399464ED0002E00D1C5
S1132970BCE1300001F0CAF803000B3B1C2B00DD66
S1132980ACE11D22D31A5A460100DA4008398E40C0
S11329901300334399465B468B40984600233C4CD6
S11329A00026241A03939FE751465A46114329D11E
S11329B0002293460232B1E7594601431ED05B46DA
S11329C0002B00D19EE1584601F0A0F803000B3B18
S11329D01C2B00DD8FE102005946083A91408B46DA
S11329E01D21CB1A5146D9400B0059460B43514681
S11329F09B469140264B00221B1A8FE7002301229D
S1132A009B468BE75146032288E70023984601330F
S1132A1004260024039367E70323B14603930C269B
S1132A2062E7032A00D15CE2019B012A00D0E4E1C1
S1132A3013409C46002300240022984600211203E0
S1132A40130B0A0D12051A432305124C404622406B
S1132A50134362465B00D2075B081343190007B0B7
S1132A603CBC90469946A246AB46F0BD002380226A
S1132A709C4612039846034CE0E70023014C0022D5
S1132A809846DBE7FF07000001FCFFFF4C3C000019
S1132A900DFCFFFFFFFF0F80D94500D939E100D1BC
S1132AA034E1002346464D469A46013C5B460A0EF5
S1132AB01B021A430B02170C039313041B0C39005B
S1132AC0280090460193FFF74FFB0200019B8346C9
S1132AD05A43280039009146FFF7CCFB350C090412
S1132AE00D43A9450DD95B464544013BA84500D992
S1132AF03AE1A94500D837E102235B429C464544AC
S1132B00E3444B46EB1A390018000493FFF72CFBFF
S1132B10019B05004343390004989946FFF7AAFB3B
S1132B20330409041B0C0B43994509D943446A1E19
S1132B30984500D91AE1994500D817E1023D43446C
S1132B404A469B1A5A4612042A4303999346100C88
S1132B500A0C914609045A46090C4E460D0012040B
S1132B60120C4543059151437243704352190E0CA4
S1132B70B218954203D980256D02AC466044150C09
S1132B8009041204090C28185218834200D2CEE01A
S1132B9000D1C8E01D1A53469E1AB24592415242D2
S1132BA0AB1A9A46984500D117E139001800FFF78F
S1132BB0DBFA019B05004343390050460493FFF7B9
S1132BC059FB04980B04310C1943884209D9414438
S1132BD06B1E884500D907E1884200D804E1023D14
S1132BE04144049BCB1A180039000493FFF7BCFA44
S1132BF0019B82464343390004980193FFF73AFB53
S1132C0001980B043104090C194388420DD9534629
S1132C104144013B884500D9E8E0884200D8E5E01A
S1132C2002235B429C464144E244019B2D04CE1A9C
S1132C3051462943059D4F462A000B04080C1B0CE2
S1132C405A4345437B4378435B19170CFB189D4259
S1132C5003D980256D02AC4660441D0C12041B048C
S1132C60120C28189B18864200D293E000D18EE003
S1132C7001231943A04BE318002B00DC99E04A0719
S1132C8000D09EE05A46D20106D55A469B4B1A40C4
S1132C9080239346DB00E318994A934268DD0123BD
S1132CA0029A984C1A400023944698460022C5E69E
S1132CB080224B46120313420AD05B46134206D1CC
S1132CC01A431203120BAC4688468E4CB6E64B46AA
S1132CD01A431203120BBC468A4CAFE603005A4651
S1132CE0283B9A4000239146984657E6584600F000
S1132CF00DFF203040E603005246283B9A40002155
S1132D00934677E600F002FF20305FE6884500D264
S1132D10C7E64B46DE075D0843465B081E43434651
S1132D20DB079A46C2E60025924500D333E7039EAB
S1132D305946B446E244B245AD416D424544EB18B0
S1132D400139984507D2984200D97FE000D1BCE010
S1132D501D1A8B461FE79845FAD1039D5545F2D9B4
S1132D6043468B461D1A16E79B46CAE61500E7E65E
S1132D705A46C90852070A435B0590465C0D5A46F9
S1132D800123029952021940120B8C4656E6002B7D
S1132D9000D16FE746444A1EB04529D91100864246
S1132DA000D065E7039A934200D061E762E701210E
S1132DB049420120C21A382A21DD029B03409C4665
S1132DC038E60F220A40042A00D15BE70A00111DED
S1132DD0914292415242934454E7474BE318002BEB
S1132DE0E5DD01225242F2E71D00FAE69A461CE7AD
S1132DF0B04239D86ED011003AE702933AE71F2A5D
S1132E003CDC20239B1A0C005846994098404B1EEA
S1132E1099415B46D440D340204308431A004307FA
S1132E2009D00F230340042B05D00100081D88425C
S1132E309B415B42D21813023AD50123029A012422
S1132E401A400023944698460022F7E5022149429D
S1132E508C46039DE344AC46E244AA45AD416D4231
S1132E604544ED182D1A96E68A1E03994D008D42AD
S1132E70894149424144761803958FE71F20404217
S1132E80C31A5846D8400300202A28D040205D4663
S1132E90821A954029434A1E91411943072300226F
S1132EA00B4009D00F2300220B400800042BBDD196
S1132EB0010053075202120BC90819430123884623
S1132EC00299002419408C46B8E55245BED88B4679
S1132ED0002560E6039D9D42C6D3110062E70025EC
S1132EE0D8E780225B4612031A43019B1203120B9C
S1132EF09C468846034CA1E5FF030000FFFFFFFE4C
S1132F00FE070000FF070000F0B557464546DE46C1
S1132F104E46E0B50C0398464E00230B87B00700DD
S1132F2092469B46760DCD0F002E6BD06D4B9E4284
S1132F3035D080245B46420F2404DB0014431C4339
S1132F40C3009946684BA3469C4600230027664469
S1132F50029343461C035A00DB0F5046240B520DC8
S1132F60984600D176E05F4B9A426DD08023410FA2
S1132F701B040B435C49E4008C461C43C300002043
S1132F8062444146B6186940721C01919446074355
S1132F900F2F00D9B0E0554ABF00D25997465B467F
S1132FA00343994600D087E000239B460233082759
S1132FB00293CEE742460192022867D0032800D14B
S1132FC00EE2012800D062E1002300240022994689
S1132FD001990140CDB2002112030B0D120B1B0508
S1132FE01343434A240513401C436400ED0764085B
S1132FF02C434846210007B03CBC90469946A24663
S1133000AB46F0BD034399464FD05B46002B00D13D
S113301089E1584600F07AFD03000B3B1C2B00DDD0
S11330207AE11D22D31A3A0001005C46DA400839DD
S11330308C4013008F4023439B46B94600232D4EFA
S11330400027361A029384E7534623432AD10024E7
S1133050022096E75346234320D0002C00D157E1A9
S1133060200000F053FD03000B3B1C2B00DD49E165
S11330701D21CB1A51460200D9405346083A9440C8
S113308093400C431B4A121A00207AE70125019B46
S1133090144C1D400023002299469CE70024002282
S11330A001206EE7534603206BE700239B46013360
S11330B00427002602934CE7032381460C2702933E
S11330C047E780220023002512039946054C82E736
S11330D05C464B4602986FE75C464B460195029866
S11330E06AE7C046FF07000001FCFFFF8C3C0000BC
S11330F0FFFF0F800DFCFFFF4A464946170C1A0CD0
S11331001B041B0C08041900000C414315008846DD
S113311019007D43794303958946290015004543E9
S11331204D44029545462D0CAA46029D5544A94599
S113313006D98A46802149028946CA4451460391E8
S1133140290C0491414609042D04090C88462900E0
S1133150250C24044144240C059121004143884654
S1133160210079438A466843414650448146080C0D
S113317048446F43824503D98021490289464F441C
S1133180010C894639004944029141460F040499CF
S11331903F0C88460004C0198044414604915946B6
S11331A00F0C0904090C884659438A4639005143D7
S11331B0894641464A435146090C8B467B43D21803
S11331C05A44934203D980235B029B46D944514617
S11331D00904090C8A46414661437C43130C1204DA
S11331E04B445244A1468A463C0041466C434D43FD
S11331F051464D440F0C7D19A94503D9802149023C
S113320088464444049F0399B84641448B46834509
S1133210804141428846514608042F04000C3F185F
S11332205846029910188946904292414F44BA4632
S1133230524299469346C244D144CB448F42BF4143
S1133240C245894199459B41934592417F424942F8
S11332502D0C52420F435B4213437F19FF185B4608
S11332603C19DB0D059A64021C43430213435D1EA3
S1133270AB415A46C00D034352021343E20156D5F3
S113328001205A0803401343E207134364085A48D1
S1133290604400284DDD5A0709D00F221A40042A41
S11332A005D01A1D9A429B415B42E4181300E201C7
S11332B004D58020514AC00014406044504A9042D2
S11332C000DDE3E60125DB0862071A436402019B83
S11332D09146220B4405640D1D407CE6802259462C
S11332E01203114208D0144206D122431203120BD6
S11332F045469946434C6EE65B461A431203120B4D
S1133300404C68E603005446283B9C400023B9E641
S113331000F0FCFB2030A6E60300283B9F4000237E
S1133320BB4699468AE600F0F1FB203074E6B446C9
S1133330ADE701252A1A382A06DD019B00241D4029
S113334000230022994646E61F2A21DC202520007E
S1133350AD1A1E00AB40A840D6405D1EAB413043C1
S11333601843D440430709D00F230340042B05D04E
S11333700300181D98429B415B42E418230221D5A7
S11333800125019B01241D4000230022994622E6C9
S11333901F2521006D42281AC1400800202A1DD093
S11333A05F35AA1A944023435C1EA34107250343B7
S11333B01D400022002D09D00F2200241A401800BD
S11333C0042AD6D1030065076402220BDB082B43D1
S11333D001259946019B00241D40FCE50024E2E7F9
S11333E0802201251203224301991203120B0D407E
S11333F09946044CEFE5C046FF030000FFFFFFFEC3
S1133400FE070000FF070000F0B54646D6464F46CB
S11334100C03C0B5CD0F4E00610A440F0C43C1002C
S11334205800400D84468A460F001903500F490A7C
S11334300143C648760DA846DB0FD200844500D16F
S1133440D8E001204340AB4200D1A6E06046351AE3
S1133450002D00DC05E1002810D10B00134300D13E
S1133460D7E06B1E002B00D04BE153469F1ABA45A0
S11334708041641A4042241A01261EE0B34B9E4246
S113348048D080231B041943382D00DD19E11F2D7A
S113349000DD4CE120230F005B1B10009A409F408D
S11334A0E840531E9A41E940074317435346DF1B44
S11334B0611ABA45A44164420C1B230200D4C5E03E
S11334C06402650A002D00D1F6E0280000F01EFB1E
S11334D00300083B1F2B00DDE9E020223C00D21A48
S11334E09D40D4409F4025439E4200DDDBE09E1B6F
S11334F0731C1F2B00DD0AE120223800D21A290098
S113350097402C009140D8407A1E9741DC40002619
S113351001430F437B0709D00F233B40042B05D005
S11335203B1DBB42BF417F42E4191F00230225D546
S1133530864B01369E4200D1AFE0854B01251C40ED
S113354043466207FF08640276051743240B760D91
S11335501D4000212403230B0C0D7E4A24051C432B
S11335601440330523435B00ED075B082B4338000D
S113357019001CBC90469946A246F0BD012543465D
S11335806207FF081743E4081D40704B9E4236D083
S113359024037605240B760DDBE76346F31A002B30
S11335A000DC94E06046002835D068488642B1D0FB
S11335B080273F043943382B00DCFDE00A43170021
S11335C000217A1E974157445745804109194442C6
S11335D00C1923023AD55D4B01369E4200D14BE1D2
S11335E001225B4B1C407B0817401F43E207174333
S11335F064088FE70800104300D024E721E7230084
S11336003B4300D1B9E18022120314432403240B69
S11336109FE72E007EE70800104300D1CAE0581E41
S11336208446002800D0E7E05244524580416418A3
S11336304042241817000126230207D50226CFE7AB
S113364064462C4300D1B3E12C0067467B0700D0CD
S113365062E76307FF081F4301254346E4081D4052
S113366093E7002D78D1751C6D056D0D012D00DCDF
S1133670F2E05046801A8245BF41651A7F42ED1B35
S11336808446280200D48CE05046171ABA4292416C
S11336900C1B5542651B984614E70125434600243C
S11336A01D40002755E72A4CF61A2C4032E73D000E
S11336B028388540002717E7380000F027FA203023
S11336C006E70A43170000217A1E9741EEE6002B15
S11336D000D0E5E0731C9C465B055B0D012B00DC10
S11336E09FE01A4B9C4500D1C5E0524452458041AD
S11336F0641840422418E7075208174364086646D2
S113370008E71248854200D185E01D00BCE6290087
S11337101F3EF140202B00D17FE04022D31A9D4070
S11337202F437D1EAF4100240F4300268EE72B005C
S11337300F00203BDF40202D71D040235D1BA940AA
S11337400A43511E8A4100211743AFE6FF070000D8
S1133750FFFF7FFFFFFF0F80002E3ED0B34EB44526
S113376045D0802636046D423443382D00DDA8E070
S11337701F2D00DD1FE1202627005046761BB74091
S1133780E84007435046B040461EB041EC40384341
S1133790171ABA4292410C1B5242A41A6646984622
S11337A08BE6644667462C4300D08BE60025002652
S11337B00027EAE61E00ADE61F2B60DC2027F81A7E
S11337C00F00844687401000D8400743604682407B
S11337D0501E8241D9401743F5E626005046064361
S11337E005D0ED43002DD3D0904EB445BDD10C008F
S11337F01700664698468DE68C4883420BD0634694
S1133800D9E6002D00D096E00800104300D1E2E094
S11338100C0017009846854E7CE6002580E70021C1
S11338208EE7230050460343002E00D0A8E0002B6F
S113383000D1DEE00B00134300D16BE65244524545
S113384080416418404224181700230200D4FDE686
S1133850774B66461C405DE6250050460543002E26
S1133860CFD1002D4FD10C00144300D1A0E00C00A7
S1133870170098464EE666460024002785E61F009A
S11338800800203FF8400700202B00D18EE04020A4
S1133890C31A99400A43511E8A410021174392E6F4
S11338A0002E14D126005046064362D0DB43002B81
S11338B05CD187189742924164185242A418664614
S11338C087E650462043441EA041002460E7574E3B
S11338D0B4454ED0802636045B423443382B00DD99
S11338E07FE01F2B00DD8BE0202627005046F61AD0
S11338F0B740D84007435046B040461EB041074346
S1133900DC40BF18D6E70D00154300D102E650464F
S1133910801A8245BF41651A7F42ED1B8446280206
S113392000D48DE65046171ABA4292410C1B5242FB
S1133930A41A9846EEE50D00154300D16BE75046F6
S11339406707C00807438020E4080003044207D047
S1133950CD08054204D12C009846D70849070F43E7
S11339607B0FE4001C43FF00304ED3E52F4EB445DB
S1133970B4D10C0017006646CCE500270024E8E526
S1133980002B39D00B00134300D144E7C00867076C
S113399007438020E40800030442E1D0CB0803423B
S11339A0DED1D70849070F431C00D9E7002171E78E
S11339B000250027E9E52E002700203EF740202DB2
S11339C02FD04026751BAC4050462043441EA041D6
S11339D000243843DCE6802400252403134E00270A
S11339E0D3E5504620430700781E87410024BF18C2
S11339F060E70C0017008DE50C0017000B4E89E5FD
S1133A001E002700203EF740202B0CD04026F31A3E
S1133A109C4050462043441EA04107430024BF1845
S1133A2048E70024D0E70024F3E7C046FF0700007E
S1133A30FFFF7FFF30B5134D0A034B00120B5B0DE4
S1133A40C90F0024AB4210DD0F4CA3420FDC8024CD
S1133A500E4D64032243ED1A1F2D0BDD0C48C31ACF
S1133A60DA405442002900D11400200030BD094B33
S1133A70CC18FAE7084CE840A44663449A40024351
S1133A80EFE7C046FE0300001D04000033040000FD
S1133A9013040000FFFFFF7FEDFBFFFF10B5041EC2
S1133AA028D000F033F8154B154A1B1AD21A1F2AD6
S1133AB015DD144AD21A9440002224035B05240B1A
S1133AC05B0D0021100024030A0D240B1205224370
S1133AD00D4C1B05224013435B00590810BD210007
S1133AE091400A000B21081AC4405B052403240BEF
S1133AF05B0DE6E7002300240022E2E71E04000039
S1133B003304000013040000FFFF0F801C21012375
S1133B101B04984201D3000C10391B0A984201D3AC
S1133B20000A08391B09984201D30009043902A28A
S1133B30105C40187047C0460403020201010101F1
S1133B40000000000000000070B500260C4D0D4C74
S1133B50641BA410A64209D1002600F0B7F80A4D50
S1133B600A4C641BA410A64205D170BDB300EB58E7
S1133B7098470136EEE7B300EB5898470136F2E771
S1133B80D83C0000D83C0000D83C0000DC3C0000DD
S1133B90002310B59A4200D110BDCC5CC45401334B
S1133BA0F8E7000002000000030000000400000029
S1133BB00500000006000000070000000E000000E1
S1133BC00F0000000A0000000B000000FFFF0000CF
S1133BD0FFFF0000FFFF0000FFFF0000FFFF0000E9
S1133BE0FFFF0000FFFF0000FFFF0000FFFF0000D9
S1133BF0FFFF00000D0E000000080042000C004210
S1133C000010004201000000020000000400000057
S1133C100800000000100000002000000040000028
S1133C200080000000000100000002000000040009
S1133C30000008000404040104100405041404082A
S1133C40012505EF021C04020521022D982A00001B
S1133C507A2A0000342A000052290000342A000085
S1133C606C2A0000342A0000522900007A2A00003D
S1133C707A2A00006C2A0000522900004A29000018
S1133C804A2900004A290000B02C0000F830000046
S1133C90B82F0000B82F0000B42F0000D03000006F
S1133CA0D0300000C2300000B42F0000D03000003B
S1133CB0C2300000D0300000B42F0000D830000023
S1133CC0D8300000D8300000DC320000F8B5C0461F
S1133CD0F8BC08BC9E467047B5000000F8B5C04665
S10F3CE0F8BC08BC9E4670478D00000034
S1133CEC900100009001000002000000020000009E
S1133CFC0100000031000200000000000000000080
S9031EDD01
